

Microchip MPLAB XC8 Assembler V2.10 build 88905656 
                                                                                               Thu Feb  6 18:21:59 2020

Microchip MPLAB XC8 C Compiler v2.10 (Free license) build 20190730164152 Og1 
     1                           	processor	16F1518
     2                           	opt	pw 120
     3                           	opt	flic
     4                           	psect	nvCOMMON,global,class=COMMON,space=1,delta=1
     5                           	psect	nvBANK0,global,class=BANK0,space=1,delta=1
     6                           	psect	cinit,global,class=CODE,merge=1,delta=2
     7                           	psect	bssCOMMON,global,class=COMMON,space=1,delta=1
     8                           	psect	cstackCOMMON,global,class=COMMON,space=1,delta=1
     9                           	psect	maintext,global,class=CODE,merge=1,split=1,delta=2
    10                           	psect	text1,local,class=CODE,merge=1,delta=2
    11                           	psect	text2,local,class=CODE,merge=1,delta=2
    12                           	psect	text3,local,class=CODE,merge=1,delta=2
    13                           	psect	text4,local,class=CODE,merge=1,delta=2
    14                           	psect	text5,local,class=CODE,merge=1,delta=2
    15                           	psect	text6,local,class=CODE,merge=1,delta=2
    16                           	psect	text7,local,class=CODE,merge=1,delta=2
    17                           	psect	text8,local,class=CODE,merge=1,delta=2
    18                           	psect	text9,local,class=CODE,merge=1,delta=2
    19                           	psect	intentry,global,class=CODE,delta=2
    20                           	psect	text11,local,class=CODE,merge=1,delta=2
    21                           	psect	text12,local,class=CODE,merge=1,delta=2
    22                           	psect	text13,local,class=CODE,merge=1,delta=2
    23                           	psect	text14,local,class=CODE,merge=1,delta=2
    24                           	dabs	1,0x7E,2
    25  0000                     
    26                           ; Version 2.10
    27                           ; Generated 31/07/2019 GMT
    28                           ; 
    29                           ; Copyright © 2019, Microchip Technology Inc. and its subsidiaries ("Microchip")
    30                           ; All rights reserved.
    31                           ; 
    32                           ; This software is developed by Microchip Technology Inc. and its subsidiaries ("Microch
      +                          ip").
    33                           ; 
    34                           ; Redistribution and use in source and binary forms, with or without modification, are
    35                           ; permitted provided that the following conditions are met:
    36                           ; 
    37                           ;     1. Redistributions of source code must retain the above copyright notice, this lis
      +                          t of
    38                           ;        conditions and the following disclaimer.
    39                           ; 
    40                           ;     2. Redistributions in binary form must reproduce the above copyright notice, this 
      +                          list
    41                           ;        of conditions and the following disclaimer in the documentation and/or other
    42                           ;        materials provided with the distribution.
    43                           ; 
    44                           ;     3. Microchip's name may not be used to endorse or promote products derived from th
      +                          is
    45                           ;        software without specific prior written permission.
    46                           ; 
    47                           ; THIS SOFTWARE IS PROVIDED BY MICROCHIP "AS IS" AND ANY EXPRESS OR IMPLIED WARRANTIES,
    48                           ; INCLUDING, BUT NOT LIMITED TO, THE IMPLIED WARRANTIES OF MERCHANTABILITY AND FITNESS F
      +                          OR
    49                           ; PURPOSE ARE DISCLAIMED.  IN NO EVENT SHALL MICROCHIP BE LIABLE FOR ANY DIRECT, INDIREC
      +                          T,
    50                           ; INCIDENTAL, SPECIAL, EXEMPLARY, OR CONSEQUENTIAL DAMAGES (INCLUDING BUT NOT LIMITED TO
    51                           ; PROCUREMENT OF SUBSTITUTE GOODS OR SERVICES; LOSS OF USE, DATA OR PROFITS; OR BUSINESS
    52                           ; INTERRUPTION) HOWSOEVER CAUSED AND ON ANY THEORY OF LIABILITY, WHETHER IN CONTRACT, ST
      +                          RICT
    53                           ; LIABILITY, OR TORT (INCLUDING NEGLIGENCE OR OTHERWISE) ARISING IN ANY WAY OUT OF THE U
      +                          SE OF
    54                           ; THIS SOFTWARE, EVEN IF ADVISED OF THE POSSIBILITY OF SUCH DAMAGE.
    55                           ; 
    56                           ; 
    57                           ; Code-generator required, PIC16F1518 Definitions
    58                           ; 
    59                           ; SFR Addresses
    60  0000                     	;# 
    61  0001                     	;# 
    62  0002                     	;# 
    63  0003                     	;# 
    64  0004                     	;# 
    65  0005                     	;# 
    66  0006                     	;# 
    67  0007                     	;# 
    68  0008                     	;# 
    69  0009                     	;# 
    70  000A                     	;# 
    71  000B                     	;# 
    72  000C                     	;# 
    73  000D                     	;# 
    74  000E                     	;# 
    75  0010                     	;# 
    76  0011                     	;# 
    77  0012                     	;# 
    78  0015                     	;# 
    79  0016                     	;# 
    80  0016                     	;# 
    81  0017                     	;# 
    82  0018                     	;# 
    83  0019                     	;# 
    84  001A                     	;# 
    85  001B                     	;# 
    86  001C                     	;# 
    87  008C                     	;# 
    88  008D                     	;# 
    89  008E                     	;# 
    90  0090                     	;# 
    91  0091                     	;# 
    92  0092                     	;# 
    93  0095                     	;# 
    94  0096                     	;# 
    95  0097                     	;# 
    96  0099                     	;# 
    97  009A                     	;# 
    98  009B                     	;# 
    99  009B                     	;# 
   100  009C                     	;# 
   101  009D                     	;# 
   102  009E                     	;# 
   103  010C                     	;# 
   104  010D                     	;# 
   105  010E                     	;# 
   106  0116                     	;# 
   107  0117                     	;# 
   108  011D                     	;# 
   109  018C                     	;# 
   110  018D                     	;# 
   111  018E                     	;# 
   112  0191                     	;# 
   113  0191                     	;# 
   114  0192                     	;# 
   115  0193                     	;# 
   116  0193                     	;# 
   117  0194                     	;# 
   118  0195                     	;# 
   119  0196                     	;# 
   120  0197                     	;# 
   121  0199                     	;# 
   122  019A                     	;# 
   123  019B                     	;# 
   124  019B                     	;# 
   125  019B                     	;# 
   126  019B                     	;# 
   127  019C                     	;# 
   128  019C                     	;# 
   129  019D                     	;# 
   130  019E                     	;# 
   131  019F                     	;# 
   132  020D                     	;# 
   133  0210                     	;# 
   134  0211                     	;# 
   135  0211                     	;# 
   136  0212                     	;# 
   137  0212                     	;# 
   138  0213                     	;# 
   139  0213                     	;# 
   140  0214                     	;# 
   141  0214                     	;# 
   142  0215                     	;# 
   143  0215                     	;# 
   144  0215                     	;# 
   145  0216                     	;# 
   146  0216                     	;# 
   147  0217                     	;# 
   148  0217                     	;# 
   149  0291                     	;# 
   150  0291                     	;# 
   151  0292                     	;# 
   152  0293                     	;# 
   153  0298                     	;# 
   154  0298                     	;# 
   155  0299                     	;# 
   156  029A                     	;# 
   157  0394                     	;# 
   158  0395                     	;# 
   159  0396                     	;# 
   160  0FE4                     	;# 
   161  0FE5                     	;# 
   162  0FE6                     	;# 
   163  0FE7                     	;# 
   164  0FE8                     	;# 
   165  0FE9                     	;# 
   166  0FEA                     	;# 
   167  0FEB                     	;# 
   168  0FED                     	;# 
   169  0FEE                     	;# 
   170  0FEF                     	;# 
   171  0000                     	;# 
   172  0001                     	;# 
   173  0002                     	;# 
   174  0003                     	;# 
   175  0004                     	;# 
   176  0005                     	;# 
   177  0006                     	;# 
   178  0007                     	;# 
   179  0008                     	;# 
   180  0009                     	;# 
   181  000A                     	;# 
   182  000B                     	;# 
   183  000C                     	;# 
   184  000D                     	;# 
   185  000E                     	;# 
   186  0010                     	;# 
   187  0011                     	;# 
   188  0012                     	;# 
   189  0015                     	;# 
   190  0016                     	;# 
   191  0016                     	;# 
   192  0017                     	;# 
   193  0018                     	;# 
   194  0019                     	;# 
   195  001A                     	;# 
   196  001B                     	;# 
   197  001C                     	;# 
   198  008C                     	;# 
   199  008D                     	;# 
   200  008E                     	;# 
   201  0090                     	;# 
   202  0091                     	;# 
   203  0092                     	;# 
   204  0095                     	;# 
   205  0096                     	;# 
   206  0097                     	;# 
   207  0099                     	;# 
   208  009A                     	;# 
   209  009B                     	;# 
   210  009B                     	;# 
   211  009C                     	;# 
   212  009D                     	;# 
   213  009E                     	;# 
   214  010C                     	;# 
   215  010D                     	;# 
   216  010E                     	;# 
   217  0116                     	;# 
   218  0117                     	;# 
   219  011D                     	;# 
   220  018C                     	;# 
   221  018D                     	;# 
   222  018E                     	;# 
   223  0191                     	;# 
   224  0191                     	;# 
   225  0192                     	;# 
   226  0193                     	;# 
   227  0193                     	;# 
   228  0194                     	;# 
   229  0195                     	;# 
   230  0196                     	;# 
   231  0197                     	;# 
   232  0199                     	;# 
   233  019A                     	;# 
   234  019B                     	;# 
   235  019B                     	;# 
   236  019B                     	;# 
   237  019B                     	;# 
   238  019C                     	;# 
   239  019C                     	;# 
   240  019D                     	;# 
   241  019E                     	;# 
   242  019F                     	;# 
   243  020D                     	;# 
   244  0210                     	;# 
   245  0211                     	;# 
   246  0211                     	;# 
   247  0212                     	;# 
   248  0212                     	;# 
   249  0213                     	;# 
   250  0213                     	;# 
   251  0214                     	;# 
   252  0214                     	;# 
   253  0215                     	;# 
   254  0215                     	;# 
   255  0215                     	;# 
   256  0216                     	;# 
   257  0216                     	;# 
   258  0217                     	;# 
   259  0217                     	;# 
   260  0291                     	;# 
   261  0291                     	;# 
   262  0292                     	;# 
   263  0293                     	;# 
   264  0298                     	;# 
   265  0298                     	;# 
   266  0299                     	;# 
   267  029A                     	;# 
   268  0394                     	;# 
   269  0395                     	;# 
   270  0396                     	;# 
   271  0FE4                     	;# 
   272  0FE5                     	;# 
   273  0FE6                     	;# 
   274  0FE7                     	;# 
   275  0FE8                     	;# 
   276  0FE9                     	;# 
   277  0FEA                     	;# 
   278  0FEB                     	;# 
   279  0FED                     	;# 
   280  0FEE                     	;# 
   281  0FEF                     	;# 
   282  0000                     	;# 
   283  0001                     	;# 
   284  0002                     	;# 
   285  0003                     	;# 
   286  0004                     	;# 
   287  0005                     	;# 
   288  0006                     	;# 
   289  0007                     	;# 
   290  0008                     	;# 
   291  0009                     	;# 
   292  000A                     	;# 
   293  000B                     	;# 
   294  000C                     	;# 
   295  000D                     	;# 
   296  000E                     	;# 
   297  0010                     	;# 
   298  0011                     	;# 
   299  0012                     	;# 
   300  0015                     	;# 
   301  0016                     	;# 
   302  0016                     	;# 
   303  0017                     	;# 
   304  0018                     	;# 
   305  0019                     	;# 
   306  001A                     	;# 
   307  001B                     	;# 
   308  001C                     	;# 
   309  008C                     	;# 
   310  008D                     	;# 
   311  008E                     	;# 
   312  0090                     	;# 
   313  0091                     	;# 
   314  0092                     	;# 
   315  0095                     	;# 
   316  0096                     	;# 
   317  0097                     	;# 
   318  0099                     	;# 
   319  009A                     	;# 
   320  009B                     	;# 
   321  009B                     	;# 
   322  009C                     	;# 
   323  009D                     	;# 
   324  009E                     	;# 
   325  010C                     	;# 
   326  010D                     	;# 
   327  010E                     	;# 
   328  0116                     	;# 
   329  0117                     	;# 
   330  011D                     	;# 
   331  018C                     	;# 
   332  018D                     	;# 
   333  018E                     	;# 
   334  0191                     	;# 
   335  0191                     	;# 
   336  0192                     	;# 
   337  0193                     	;# 
   338  0193                     	;# 
   339  0194                     	;# 
   340  0195                     	;# 
   341  0196                     	;# 
   342  0197                     	;# 
   343  0199                     	;# 
   344  019A                     	;# 
   345  019B                     	;# 
   346  019B                     	;# 
   347  019B                     	;# 
   348  019B                     	;# 
   349  019C                     	;# 
   350  019C                     	;# 
   351  019D                     	;# 
   352  019E                     	;# 
   353  019F                     	;# 
   354  020D                     	;# 
   355  0210                     	;# 
   356  0211                     	;# 
   357  0211                     	;# 
   358  0212                     	;# 
   359  0212                     	;# 
   360  0213                     	;# 
   361  0213                     	;# 
   362  0214                     	;# 
   363  0214                     	;# 
   364  0215                     	;# 
   365  0215                     	;# 
   366  0215                     	;# 
   367  0216                     	;# 
   368  0216                     	;# 
   369  0217                     	;# 
   370  0217                     	;# 
   371  0291                     	;# 
   372  0291                     	;# 
   373  0292                     	;# 
   374  0293                     	;# 
   375  0298                     	;# 
   376  0298                     	;# 
   377  0299                     	;# 
   378  029A                     	;# 
   379  0394                     	;# 
   380  0395                     	;# 
   381  0396                     	;# 
   382  0FE4                     	;# 
   383  0FE5                     	;# 
   384  0FE6                     	;# 
   385  0FE7                     	;# 
   386  0FE8                     	;# 
   387  0FE9                     	;# 
   388  0FEA                     	;# 
   389  0FEB                     	;# 
   390  0FED                     	;# 
   391  0FEE                     	;# 
   392  0FEF                     	;# 
   393  0000                     	;# 
   394  0001                     	;# 
   395  0002                     	;# 
   396  0003                     	;# 
   397  0004                     	;# 
   398  0005                     	;# 
   399  0006                     	;# 
   400  0007                     	;# 
   401  0008                     	;# 
   402  0009                     	;# 
   403  000A                     	;# 
   404  000B                     	;# 
   405  000C                     	;# 
   406  000D                     	;# 
   407  000E                     	;# 
   408  0010                     	;# 
   409  0011                     	;# 
   410  0012                     	;# 
   411  0015                     	;# 
   412  0016                     	;# 
   413  0016                     	;# 
   414  0017                     	;# 
   415  0018                     	;# 
   416  0019                     	;# 
   417  001A                     	;# 
   418  001B                     	;# 
   419  001C                     	;# 
   420  008C                     	;# 
   421  008D                     	;# 
   422  008E                     	;# 
   423  0090                     	;# 
   424  0091                     	;# 
   425  0092                     	;# 
   426  0095                     	;# 
   427  0096                     	;# 
   428  0097                     	;# 
   429  0099                     	;# 
   430  009A                     	;# 
   431  009B                     	;# 
   432  009B                     	;# 
   433  009C                     	;# 
   434  009D                     	;# 
   435  009E                     	;# 
   436  010C                     	;# 
   437  010D                     	;# 
   438  010E                     	;# 
   439  0116                     	;# 
   440  0117                     	;# 
   441  011D                     	;# 
   442  018C                     	;# 
   443  018D                     	;# 
   444  018E                     	;# 
   445  0191                     	;# 
   446  0191                     	;# 
   447  0192                     	;# 
   448  0193                     	;# 
   449  0193                     	;# 
   450  0194                     	;# 
   451  0195                     	;# 
   452  0196                     	;# 
   453  0197                     	;# 
   454  0199                     	;# 
   455  019A                     	;# 
   456  019B                     	;# 
   457  019B                     	;# 
   458  019B                     	;# 
   459  019B                     	;# 
   460  019C                     	;# 
   461  019C                     	;# 
   462  019D                     	;# 
   463  019E                     	;# 
   464  019F                     	;# 
   465  020D                     	;# 
   466  0210                     	;# 
   467  0211                     	;# 
   468  0211                     	;# 
   469  0212                     	;# 
   470  0212                     	;# 
   471  0213                     	;# 
   472  0213                     	;# 
   473  0214                     	;# 
   474  0214                     	;# 
   475  0215                     	;# 
   476  0215                     	;# 
   477  0215                     	;# 
   478  0216                     	;# 
   479  0216                     	;# 
   480  0217                     	;# 
   481  0217                     	;# 
   482  0291                     	;# 
   483  0291                     	;# 
   484  0292                     	;# 
   485  0293                     	;# 
   486  0298                     	;# 
   487  0298                     	;# 
   488  0299                     	;# 
   489  029A                     	;# 
   490  0394                     	;# 
   491  0395                     	;# 
   492  0396                     	;# 
   493  0FE4                     	;# 
   494  0FE5                     	;# 
   495  0FE6                     	;# 
   496  0FE7                     	;# 
   497  0FE8                     	;# 
   498  0FE9                     	;# 
   499  0FEA                     	;# 
   500  0FEB                     	;# 
   501  0FED                     	;# 
   502  0FEE                     	;# 
   503  0FEF                     	;# 
   504  0000                     	;# 
   505  0001                     	;# 
   506  0002                     	;# 
   507  0003                     	;# 
   508  0004                     	;# 
   509  0005                     	;# 
   510  0006                     	;# 
   511  0007                     	;# 
   512  0008                     	;# 
   513  0009                     	;# 
   514  000A                     	;# 
   515  000B                     	;# 
   516  000C                     	;# 
   517  000D                     	;# 
   518  000E                     	;# 
   519  0010                     	;# 
   520  0011                     	;# 
   521  0012                     	;# 
   522  0015                     	;# 
   523  0016                     	;# 
   524  0016                     	;# 
   525  0017                     	;# 
   526  0018                     	;# 
   527  0019                     	;# 
   528  001A                     	;# 
   529  001B                     	;# 
   530  001C                     	;# 
   531  008C                     	;# 
   532  008D                     	;# 
   533  008E                     	;# 
   534  0090                     	;# 
   535  0091                     	;# 
   536  0092                     	;# 
   537  0095                     	;# 
   538  0096                     	;# 
   539  0097                     	;# 
   540  0099                     	;# 
   541  009A                     	;# 
   542  009B                     	;# 
   543  009B                     	;# 
   544  009C                     	;# 
   545  009D                     	;# 
   546  009E                     	;# 
   547  010C                     	;# 
   548  010D                     	;# 
   549  010E                     	;# 
   550  0116                     	;# 
   551  0117                     	;# 
   552  011D                     	;# 
   553  018C                     	;# 
   554  018D                     	;# 
   555  018E                     	;# 
   556  0191                     	;# 
   557  0191                     	;# 
   558  0192                     	;# 
   559  0193                     	;# 
   560  0193                     	;# 
   561  0194                     	;# 
   562  0195                     	;# 
   563  0196                     	;# 
   564  0197                     	;# 
   565  0199                     	;# 
   566  019A                     	;# 
   567  019B                     	;# 
   568  019B                     	;# 
   569  019B                     	;# 
   570  019B                     	;# 
   571  019C                     	;# 
   572  019C                     	;# 
   573  019D                     	;# 
   574  019E                     	;# 
   575  019F                     	;# 
   576  020D                     	;# 
   577  0210                     	;# 
   578  0211                     	;# 
   579  0211                     	;# 
   580  0212                     	;# 
   581  0212                     	;# 
   582  0213                     	;# 
   583  0213                     	;# 
   584  0214                     	;# 
   585  0214                     	;# 
   586  0215                     	;# 
   587  0215                     	;# 
   588  0215                     	;# 
   589  0216                     	;# 
   590  0216                     	;# 
   591  0217                     	;# 
   592  0217                     	;# 
   593  0291                     	;# 
   594  0291                     	;# 
   595  0292                     	;# 
   596  0293                     	;# 
   597  0298                     	;# 
   598  0298                     	;# 
   599  0299                     	;# 
   600  029A                     	;# 
   601  0394                     	;# 
   602  0395                     	;# 
   603  0396                     	;# 
   604  0FE4                     	;# 
   605  0FE5                     	;# 
   606  0FE6                     	;# 
   607  0FE7                     	;# 
   608  0FE8                     	;# 
   609  0FE9                     	;# 
   610  0FEA                     	;# 
   611  0FEB                     	;# 
   612  0FED                     	;# 
   613  0FEE                     	;# 
   614  0FEF                     	;# 
   615                           
   616                           	psect	nvCOMMON
   617  007A                     __pnvCOMMON:	
   618  007A                     _timer1ReloadVal:	
   619  007A                     	ds	2
   620                           
   621                           	psect	nvBANK0
   622  0020                     __pnvBANK0:	
   623  0020                     _TMR1_InterruptHandler:	
   624  0020                     	ds	2
   625  000B                     _INTCONbits	set	11
   626  0019                     _T1GCONbits	set	25
   627  0018                     _T1CONbits	set	24
   628  0018                     _T1CON	set	24
   629  0011                     _PIR1bits	set	17
   630  0016                     _TMR1L	set	22
   631  0017                     _TMR1H	set	23
   632  0019                     _T1GCON	set	25
   633  0095                     _OPTION_REGbits	set	149
   634  008E                     _TRISC	set	142
   635  008D                     _TRISB	set	141
   636  008C                     _TRISA	set	140
   637  0097                     _WDTCON	set	151
   638  0099                     _OSCCON	set	153
   639  0091                     _PIE1bits	set	145
   640  011D                     _APFCON	set	285
   641  010E                     _LATC	set	270
   642  010D                     _LATB	set	269
   643  010C                     _LATA	set	268
   644  0116                     _BORCON	set	278
   645  010C                     _LATAbits	set	268
   646  018C                     _ANSELA	set	396
   647  018D                     _ANSELB	set	397
   648  018E                     _ANSELC	set	398
   649  020D                     _WPUB	set	525
   650  0210                     _WPUE	set	528
   651                           
   652                           ; #config settings
   653  0000                     
   654                           	psect	cinit
   655  001B                     start_initialization:	
   656  001B                     __initialization:	
   657                           
   658                           ; Clear objects allocated to COMMON
   659  001B  01F0               	clrf	__pbssCOMMON& (0+127)
   660  001C  01F1               	clrf	(__pbssCOMMON+1)& (0+127)
   661  001D  01F2               	clrf	(__pbssCOMMON+2)& (0+127)
   662  001E  01F3               	clrf	(__pbssCOMMON+3)& (0+127)
   663  001F  01F4               	clrf	(__pbssCOMMON+4)& (0+127)
   664  0020  01F5               	clrf	(__pbssCOMMON+5)& (0+127)
   665  0021                     end_of_initialization:	
   666                           ;End of C runtime variable initialization code
   667                           
   668  0021                     __end_of__initialization:	
   669  0021  107E               	bcf	int$flags,0	;clear compiler interrupt flag (level 1)
   670  0022  0020               	movlb	0
   671  0023  3180  28E2         	ljmp	_main	;jump to C main() function
   672                           
   673                           	psect	bssCOMMON
   674  0070                     __pbssCOMMON:	
   675  0070                     _appledData2:	
   676  0070                     	ds	3
   677  0073                     _appledData:	
   678  0073                     	ds	3
   679                           
   680                           	psect	cstackCOMMON
   681  0076                     __pcstackCOMMON:	
   682  0076                     ?_TMR1_DefaultInterruptHandler:	
   683  0076                     ??_TMR1_DefaultInterruptHandler:	
   684                           ; 1 bytes @ 0x0
   685                           
   686  0076                     ?_TMR1_CallBack:	
   687                           ; 1 bytes @ 0x0
   688                           
   689  0076                     ??_TMR1_CallBack:	
   690                           ; 1 bytes @ 0x0
   691                           
   692  0076                     ?_SYSTEM_Initialize:	
   693                           ; 1 bytes @ 0x0
   694                           
   695  0076                     ?_PIN_MANAGER_Initialize:	
   696                           ; 1 bytes @ 0x0
   697                           
   698  0076                     ?_OSCILLATOR_Initialize:	
   699                           ; 1 bytes @ 0x0
   700                           
   701  0076                     ?_WDT_Initialize:	
   702                           ; 1 bytes @ 0x0
   703                           
   704  0076                     ?_TMR1_Initialize:	
   705                           ; 1 bytes @ 0x0
   706                           
   707  0076                     ?_TMR1_WriteTimer:	
   708                           ; 1 bytes @ 0x0
   709                           
   710  0076                     ?_TMR1_ISR:	
   711                           ; 1 bytes @ 0x0
   712                           
   713  0076                     ?_APP_LED_Initialize:	
   714                           ; 1 bytes @ 0x0
   715                           
   716  0076                     ?_APP_LED_Tasks:	
   717                           ; 1 bytes @ 0x0
   718                           
   719  0076                     ?_APP_LED_Tasks2:	
   720                           ; 1 bytes @ 0x0
   721                           
   722  0076                     ?_main:	
   723                           ; 1 bytes @ 0x0
   724                           
   725  0076                     ?_INTERRUPT_InterruptManager:	
   726                           ; 1 bytes @ 0x0
   727                           
   728  0076                     TMR1_WriteTimer@timerVal:	
   729                           ; 1 bytes @ 0x0
   730                           
   731                           
   732                           ; 2 bytes @ 0x0
   733  0076                     	ds	2
   734  0078                     ?_TMR1_SetInterruptHandler:	
   735  0078                     ??_PIN_MANAGER_Initialize:	
   736                           ; 1 bytes @ 0x2
   737                           
   738  0078                     ??_OSCILLATOR_Initialize:	
   739                           ; 1 bytes @ 0x2
   740                           
   741  0078                     ??_WDT_Initialize:	
   742                           ; 1 bytes @ 0x2
   743                           
   744  0078                     ??_TMR1_WriteTimer:	
   745                           ; 1 bytes @ 0x2
   746                           
   747  0078                     ??_TMR1_ISR:	
   748                           ; 1 bytes @ 0x2
   749                           
   750  0078                     ??_APP_LED_Initialize:	
   751                           ; 1 bytes @ 0x2
   752                           
   753  0078                     ??_APP_LED_Tasks:	
   754                           ; 1 bytes @ 0x2
   755                           
   756  0078                     ??_APP_LED_Tasks2:	
   757                           ; 1 bytes @ 0x2
   758                           
   759  0078                     ??_INTERRUPT_InterruptManager:	
   760                           ; 1 bytes @ 0x2
   761                           
   762  0078                     TMR1_SetInterruptHandler@InterruptHandler:	
   763                           ; 1 bytes @ 0x2
   764                           
   765                           
   766                           ; 2 bytes @ 0x2
   767  0078                     	ds	2
   768  007A                     ??_TMR1_SetInterruptHandler:	
   769  007A                     ??_SYSTEM_Initialize:	
   770                           ; 1 bytes @ 0x4
   771                           
   772  007A                     ??_TMR1_Initialize:	
   773                           ; 1 bytes @ 0x4
   774                           
   775  007A                     ??_main:	
   776                           ; 1 bytes @ 0x4
   777                           
   778                           
   779                           	psect	maintext
   780  00E2                     __pmaintext:	
   781                           ; 1 bytes @ 0x4
   782 ;;
   783 ;;Main: autosize = 0, tempsize = 0, incstack = 0, save=0
   784 ;;
   785 ;; *************** function _main *****************
   786 ;; Defined at:
   787 ;;		line 50 in file "main.c"
   788 ;; Parameters:    Size  Location     Type
   789 ;;		None
   790 ;; Auto vars:     Size  Location     Type
   791 ;;		None
   792 ;; Return value:  Size  Location     Type
   793 ;;                  1    wreg      void 
   794 ;; Registers used:
   795 ;;		wreg, fsr0l, fsr0h, status,2, status,0, pclath, cstack
   796 ;; Tracked objects:
   797 ;;		On entry : B1F/0
   798 ;;		On exit  : 0/0
   799 ;;		Unchanged: 0/0
   800 ;; Data sizes:     COMMON   BANK0   BANK1   BANK2   BANK3   BANK4   BANK5   BANK6   BANK7   BANK8   BANK9  BANK10  BANK1
      +1  BANK12
   801 ;;      Params:         0       0       0       0       0       0       0       0       0       0       0       0       
      +0       0
   802 ;;      Locals:         0       0       0       0       0       0       0       0       0       0       0       0       
      +0       0
   803 ;;      Temps:          0       0       0       0       0       0       0       0       0       0       0       0       
      +0       0
   804 ;;      Totals:         0       0       0       0       0       0       0       0       0       0       0       0       
      +0       0
   805 ;;Total ram usage:        0 bytes
   806 ;; Hardware stack levels required when called:    7
   807 ;; This function calls:
   808 ;;		_APP_LED_Initialize
   809 ;;		_APP_LED_Tasks
   810 ;;		_APP_LED_Tasks2
   811 ;;		_SYSTEM_Initialize
   812 ;; This function is called by:
   813 ;;		Startup code after reset
   814 ;; This function uses a non-reentrant model
   815 ;;
   816                           
   817                           
   818                           ;psect for function _main
   819  00E2                     _main:	
   820  00E2                     l946:	
   821                           ;incstack = 0
   822                           ; Regs used in _main: [wreg-fsr0h+status,2+status,0+pclath+cstack]
   823                           
   824                           
   825                           ;main.c: 53:     SYSTEM_Initialize();
   826  00E2  3181  2104  3180   	fcall	_SYSTEM_Initialize
   827  00E5                     l948:	
   828                           
   829                           ;main.c: 54:     APP_LED_Initialize();
   830  00E5  3181  211E  3180   	fcall	_APP_LED_Initialize
   831  00E8                     l950:	
   832                           
   833                           ;main.c: 60:     (INTCONbits.GIE = 1);
   834  00E8  178B               	bsf	11,7	;volatile
   835  00E9                     l952:	
   836                           
   837                           ;main.c: 63:     (INTCONbits.PEIE = 1);
   838  00E9  170B               	bsf	11,6	;volatile
   839  00EA                     l954:	
   840                           
   841                           ;main.c: 72:     {;main.c: 74:         APP_LED_Tasks();
   842  00EA  3180  2060  3180   	fcall	_APP_LED_Tasks
   843  00ED                     l956:	
   844                           
   845                           ;main.c: 75:         APP_LED_Tasks2();
   846  00ED  3180  2025  3180   	fcall	_APP_LED_Tasks2
   847  00F0  28EA               	goto	l954
   848  00F1  3180  2819         	ljmp	start
   849  00F3                     __end_of_main:	
   850                           
   851                           	psect	text1
   852  0104                     __ptext1:	
   853 ;; *************** function _SYSTEM_Initialize *****************
   854 ;; Defined at:
   855 ;;		line 50 in file "mcc_generated_files/mcc.c"
   856 ;; Parameters:    Size  Location     Type
   857 ;;		None
   858 ;; Auto vars:     Size  Location     Type
   859 ;;		None
   860 ;; Return value:  Size  Location     Type
   861 ;;                  1    wreg      void 
   862 ;; Registers used:
   863 ;;		wreg, status,2, status,0, pclath, cstack
   864 ;; Tracked objects:
   865 ;;		On entry : 0/0
   866 ;;		On exit  : 0/0
   867 ;;		Unchanged: 0/0
   868 ;; Data sizes:     COMMON   BANK0   BANK1   BANK2   BANK3   BANK4   BANK5   BANK6   BANK7   BANK8   BANK9  BANK10  BANK1
      +1  BANK12
   869 ;;      Params:         0       0       0       0       0       0       0       0       0       0       0       0       
      +0       0
   870 ;;      Locals:         0       0       0       0       0       0       0       0       0       0       0       0       
      +0       0
   871 ;;      Temps:          0       0       0       0       0       0       0       0       0       0       0       0       
      +0       0
   872 ;;      Totals:         0       0       0       0       0       0       0       0       0       0       0       0       
      +0       0
   873 ;;Total ram usage:        0 bytes
   874 ;; Hardware stack levels used:    1
   875 ;; Hardware stack levels required when called:    6
   876 ;; This function calls:
   877 ;;		_OSCILLATOR_Initialize
   878 ;;		_PIN_MANAGER_Initialize
   879 ;;		_TMR1_Initialize
   880 ;;		_WDT_Initialize
   881 ;; This function is called by:
   882 ;;		_main
   883 ;; This function uses a non-reentrant model
   884 ;;
   885                           
   886                           
   887                           ;psect for function _SYSTEM_Initialize
   888  0104                     _SYSTEM_Initialize:	
   889  0104                     l942:	
   890                           ;incstack = 0
   891                           ; Regs used in _SYSTEM_Initialize: [wreg+status,2+status,0+pclath+cstack]
   892                           
   893                           
   894                           ;mcc_generated_files/mcc.c: 53:     PIN_MANAGER_Initialize();
   895  0104  3180  209B  3181   	fcall	_PIN_MANAGER_Initialize
   896                           
   897                           ;mcc_generated_files/mcc.c: 54:     OSCILLATOR_Initialize();
   898  0107  3181  212B  3181   	fcall	_OSCILLATOR_Initialize
   899                           
   900                           ;mcc_generated_files/mcc.c: 55:     WDT_Initialize();
   901  010A  3181  2131  3181   	fcall	_WDT_Initialize
   902                           
   903                           ;mcc_generated_files/mcc.c: 56:     TMR1_Initialize();
   904  010D  3180  20B5  3181   	fcall	_TMR1_Initialize
   905  0110                     l148:	
   906  0110  0008               	return
   907  0111                     __end_of_SYSTEM_Initialize:	
   908                           
   909                           	psect	text2
   910  0131                     __ptext2:	
   911 ;; *************** function _WDT_Initialize *****************
   912 ;; Defined at:
   913 ;;		line 67 in file "mcc_generated_files/mcc.c"
   914 ;; Parameters:    Size  Location     Type
   915 ;;		None
   916 ;; Auto vars:     Size  Location     Type
   917 ;;		None
   918 ;; Return value:  Size  Location     Type
   919 ;;                  1    wreg      void 
   920 ;; Registers used:
   921 ;;		wreg
   922 ;; Tracked objects:
   923 ;;		On entry : 0/0
   924 ;;		On exit  : 0/0
   925 ;;		Unchanged: 0/0
   926 ;; Data sizes:     COMMON   BANK0   BANK1   BANK2   BANK3   BANK4   BANK5   BANK6   BANK7   BANK8   BANK9  BANK10  BANK1
      +1  BANK12
   927 ;;      Params:         0       0       0       0       0       0       0       0       0       0       0       0       
      +0       0
   928 ;;      Locals:         0       0       0       0       0       0       0       0       0       0       0       0       
      +0       0
   929 ;;      Temps:          0       0       0       0       0       0       0       0       0       0       0       0       
      +0       0
   930 ;;      Totals:         0       0       0       0       0       0       0       0       0       0       0       0       
      +0       0
   931 ;;Total ram usage:        0 bytes
   932 ;; Hardware stack levels used:    1
   933 ;; Hardware stack levels required when called:    4
   934 ;; This function calls:
   935 ;;		Nothing
   936 ;; This function is called by:
   937 ;;		_SYSTEM_Initialize
   938 ;; This function uses a non-reentrant model
   939 ;;
   940                           
   941                           
   942                           ;psect for function _WDT_Initialize
   943  0131                     _WDT_Initialize:	
   944  0131                     l770:	
   945                           ;incstack = 0
   946                           ; Regs used in _WDT_Initialize: [wreg]
   947                           
   948                           
   949                           ;mcc_generated_files/mcc.c: 70:     WDTCON = 0x16;
   950  0131  3016               	movlw	22
   951  0132  0021               	movlb	1	; select bank1
   952  0133  0097               	movwf	23	;volatile
   953  0134                     l154:	
   954  0134  0008               	return
   955  0135                     __end_of_WDT_Initialize:	
   956                           
   957                           	psect	text3
   958  00B5                     __ptext3:	
   959 ;; *************** function _TMR1_Initialize *****************
   960 ;; Defined at:
   961 ;;		line 65 in file "mcc_generated_files/tmr1.c"
   962 ;; Parameters:    Size  Location     Type
   963 ;;		None
   964 ;; Auto vars:     Size  Location     Type
   965 ;;		None
   966 ;; Return value:  Size  Location     Type
   967 ;;                  1    wreg      void 
   968 ;; Registers used:
   969 ;;		wreg, status,2, status,0, pclath, cstack
   970 ;; Tracked objects:
   971 ;;		On entry : 0/0
   972 ;;		On exit  : 0/0
   973 ;;		Unchanged: 0/0
   974 ;; Data sizes:     COMMON   BANK0   BANK1   BANK2   BANK3   BANK4   BANK5   BANK6   BANK7   BANK8   BANK9  BANK10  BANK1
      +1  BANK12
   975 ;;      Params:         0       0       0       0       0       0       0       0       0       0       0       0       
      +0       0
   976 ;;      Locals:         0       0       0       0       0       0       0       0       0       0       0       0       
      +0       0
   977 ;;      Temps:          0       0       0       0       0       0       0       0       0       0       0       0       
      +0       0
   978 ;;      Totals:         0       0       0       0       0       0       0       0       0       0       0       0       
      +0       0
   979 ;;Total ram usage:        0 bytes
   980 ;; Hardware stack levels used:    1
   981 ;; Hardware stack levels required when called:    5
   982 ;; This function calls:
   983 ;;		_TMR1_SetInterruptHandler
   984 ;; This function is called by:
   985 ;;		_SYSTEM_Initialize
   986 ;; This function uses a non-reentrant model
   987 ;;
   988                           
   989                           
   990                           ;psect for function _TMR1_Initialize
   991  00B5                     _TMR1_Initialize:	
   992  00B5                     l852:	
   993                           ;incstack = 0
   994                           ; Regs used in _TMR1_Initialize: [wreg+status,2+status,0+pclath+cstack]
   995                           
   996                           
   997                           ;mcc_generated_files/tmr1.c: 70:     T1GCON = 0x00;
   998  00B5  0020               	movlb	0	; select bank0
   999  00B6  0199               	clrf	25	;volatile
  1000  00B7                     l854:	
  1001                           
  1002                           ;mcc_generated_files/tmr1.c: 73:     TMR1H = 0xF0;
  1003  00B7  30F0               	movlw	240
  1004  00B8  0097               	movwf	23	;volatile
  1005  00B9                     l856:	
  1006                           
  1007                           ;mcc_generated_files/tmr1.c: 76:     TMR1L = 0x60;
  1008  00B9  3060               	movlw	96
  1009  00BA  0096               	movwf	22	;volatile
  1010  00BB                     l858:	
  1011                           
  1012                           ;mcc_generated_files/tmr1.c: 79:     PIR1bits.TMR1IF = 0;
  1013  00BB  1011               	bcf	17,0	;volatile
  1014  00BC                     l860:	
  1015                           
  1016                           ;mcc_generated_files/tmr1.c: 82:     timer1ReloadVal=(uint16_t)((TMR1H << 8) | TMR1L);
  1017  00BC  0817               	movf	23,w	;volatile
  1018  00BD  00FB               	movwf	_timer1ReloadVal+1	;volatile
  1019  00BE  0816               	movf	22,w	;volatile
  1020  00BF  00FA               	movwf	_timer1ReloadVal	;volatile
  1021  00C0                     l862:	
  1022                           
  1023                           ;mcc_generated_files/tmr1.c: 85:     PIE1bits.TMR1IE = 1;
  1024  00C0  0021               	movlb	1	; select bank1
  1025  00C1  1411               	bsf	17,0	;volatile
  1026  00C2                     l864:	
  1027                           
  1028                           ;mcc_generated_files/tmr1.c: 88:     TMR1_SetInterruptHandler(TMR1_DefaultInterruptHandl
      +                          er);
  1029  00C2  3035               	movlw	low _TMR1_DefaultInterruptHandler
  1030  00C3  00F8               	movwf	TMR1_SetInterruptHandler@InterruptHandler
  1031  00C4  3001               	movlw	high _TMR1_DefaultInterruptHandler
  1032  00C5  00F9               	movwf	TMR1_SetInterruptHandler@InterruptHandler+1
  1033  00C6  3181  2125  3180   	fcall	_TMR1_SetInterruptHandler
  1034  00C9                     l866:	
  1035                           
  1036                           ;mcc_generated_files/tmr1.c: 91:     T1CON = 0x01;
  1037  00C9  3001               	movlw	1
  1038  00CA  0020               	movlb	0	; select bank0
  1039  00CB  0098               	movwf	24	;volatile
  1040  00CC                     l33:	
  1041  00CC  0008               	return
  1042  00CD                     __end_of_TMR1_Initialize:	
  1043                           
  1044                           	psect	text4
  1045  0125                     __ptext4:	
  1046 ;; *************** function _TMR1_SetInterruptHandler *****************
  1047 ;; Defined at:
  1048 ;;		line 182 in file "mcc_generated_files/tmr1.c"
  1049 ;; Parameters:    Size  Location     Type
  1050 ;;  InterruptHan    2    2[COMMON] PTR FTN()void 
  1051 ;;		 -> TMR1_DefaultInterruptHandler(1), 
  1052 ;; Auto vars:     Size  Location     Type
  1053 ;;		None
  1054 ;; Return value:  Size  Location     Type
  1055 ;;                  1    wreg      void 
  1056 ;; Registers used:
  1057 ;;		wreg
  1058 ;; Tracked objects:
  1059 ;;		On entry : 0/0
  1060 ;;		On exit  : 0/0
  1061 ;;		Unchanged: 0/0
  1062 ;; Data sizes:     COMMON   BANK0   BANK1   BANK2   BANK3   BANK4   BANK5   BANK6   BANK7   BANK8   BANK9  BANK10  BANK1
      +1  BANK12
  1063 ;;      Params:         2       0       0       0       0       0       0       0       0       0       0       0       
      +0       0
  1064 ;;      Locals:         0       0       0       0       0       0       0       0       0       0       0       0       
      +0       0
  1065 ;;      Temps:          0       0       0       0       0       0       0       0       0       0       0       0       
      +0       0
  1066 ;;      Totals:         2       0       0       0       0       0       0       0       0       0       0       0       
      +0       0
  1067 ;;Total ram usage:        2 bytes
  1068 ;; Hardware stack levels used:    1
  1069 ;; Hardware stack levels required when called:    4
  1070 ;; This function calls:
  1071 ;;		Nothing
  1072 ;; This function is called by:
  1073 ;;		_TMR1_Initialize
  1074 ;; This function uses a non-reentrant model
  1075 ;;
  1076                           
  1077                           
  1078                           ;psect for function _TMR1_SetInterruptHandler
  1079  0125                     _TMR1_SetInterruptHandler:	
  1080  0125                     l850:	
  1081                           ;incstack = 0
  1082                           ; Regs used in _TMR1_SetInterruptHandler: [wreg]
  1083                           
  1084                           
  1085                           ;mcc_generated_files/tmr1.c: 183:     TMR1_InterruptHandler = InterruptHandler;
  1086  0125  0879               	movf	TMR1_SetInterruptHandler@InterruptHandler+1,w
  1087  0126  0020               	movlb	0	; select bank0
  1088  0127  00A1               	movwf	_TMR1_InterruptHandler+1
  1089  0128  0878               	movf	TMR1_SetInterruptHandler@InterruptHandler,w
  1090  0129  00A0               	movwf	_TMR1_InterruptHandler
  1091  012A                     l66:	
  1092  012A  0008               	return
  1093  012B                     __end_of_TMR1_SetInterruptHandler:	
  1094                           
  1095                           	psect	text5
  1096  009B                     __ptext5:	
  1097 ;; *************** function _PIN_MANAGER_Initialize *****************
  1098 ;; Defined at:
  1099 ;;		line 55 in file "mcc_generated_files/pin_manager.c"
  1100 ;; Parameters:    Size  Location     Type
  1101 ;;		None
  1102 ;; Auto vars:     Size  Location     Type
  1103 ;;		None
  1104 ;; Return value:  Size  Location     Type
  1105 ;;                  1    wreg      void 
  1106 ;; Registers used:
  1107 ;;		wreg, status,2
  1108 ;; Tracked objects:
  1109 ;;		On entry : 0/0
  1110 ;;		On exit  : 0/0
  1111 ;;		Unchanged: 0/0
  1112 ;; Data sizes:     COMMON   BANK0   BANK1   BANK2   BANK3   BANK4   BANK5   BANK6   BANK7   BANK8   BANK9  BANK10  BANK1
      +1  BANK12
  1113 ;;      Params:         0       0       0       0       0       0       0       0       0       0       0       0       
      +0       0
  1114 ;;      Locals:         0       0       0       0       0       0       0       0       0       0       0       0       
      +0       0
  1115 ;;      Temps:          0       0       0       0       0       0       0       0       0       0       0       0       
      +0       0
  1116 ;;      Totals:         0       0       0       0       0       0       0       0       0       0       0       0       
      +0       0
  1117 ;;Total ram usage:        0 bytes
  1118 ;; Hardware stack levels used:    1
  1119 ;; Hardware stack levels required when called:    4
  1120 ;; This function calls:
  1121 ;;		Nothing
  1122 ;; This function is called by:
  1123 ;;		_SYSTEM_Initialize
  1124 ;; This function uses a non-reentrant model
  1125 ;;
  1126                           
  1127                           
  1128                           ;psect for function _PIN_MANAGER_Initialize
  1129  009B                     _PIN_MANAGER_Initialize:	
  1130  009B                     l750:	
  1131                           ;incstack = 0
  1132                           ; Regs used in _PIN_MANAGER_Initialize: [wreg+status,2]
  1133                           
  1134                           
  1135                           ;mcc_generated_files/pin_manager.c: 60:     LATA = 0x00;
  1136  009B  0022               	movlb	2	; select bank2
  1137  009C  018C               	clrf	12	;volatile
  1138                           
  1139                           ;mcc_generated_files/pin_manager.c: 61:     LATB = 0x00;
  1140  009D  018D               	clrf	13	;volatile
  1141                           
  1142                           ;mcc_generated_files/pin_manager.c: 62:     LATC = 0x00;
  1143  009E  018E               	clrf	14	;volatile
  1144  009F                     l752:	
  1145                           
  1146                           ;mcc_generated_files/pin_manager.c: 67:     TRISA = 0xFC;
  1147  009F  30FC               	movlw	252
  1148  00A0  0021               	movlb	1	; select bank1
  1149  00A1  008C               	movwf	12	;volatile
  1150  00A2                     l754:	
  1151                           
  1152                           ;mcc_generated_files/pin_manager.c: 68:     TRISB = 0xFF;
  1153  00A2  30FF               	movlw	255
  1154  00A3  008D               	movwf	13	;volatile
  1155  00A4                     l756:	
  1156                           
  1157                           ;mcc_generated_files/pin_manager.c: 69:     TRISC = 0xFF;
  1158  00A4  30FF               	movlw	255
  1159  00A5  008E               	movwf	14	;volatile
  1160  00A6                     l758:	
  1161                           
  1162                           ;mcc_generated_files/pin_manager.c: 74:     ANSELC = 0xFC;
  1163  00A6  30FC               	movlw	252
  1164  00A7  0023               	movlb	3	; select bank3
  1165  00A8  008E               	movwf	14	;volatile
  1166  00A9                     l760:	
  1167                           
  1168                           ;mcc_generated_files/pin_manager.c: 75:     ANSELB = 0x3F;
  1169  00A9  303F               	movlw	63
  1170  00AA  008D               	movwf	13	;volatile
  1171  00AB                     l762:	
  1172                           
  1173                           ;mcc_generated_files/pin_manager.c: 76:     ANSELA = 0x2C;
  1174  00AB  302C               	movlw	44
  1175  00AC  008C               	movwf	12	;volatile
  1176                           
  1177                           ;mcc_generated_files/pin_manager.c: 81:     WPUE = 0x00;
  1178  00AD  0024               	movlb	4	; select bank4
  1179  00AE  0190               	clrf	16	;volatile
  1180                           
  1181                           ;mcc_generated_files/pin_manager.c: 82:     WPUB = 0x00;
  1182  00AF  018D               	clrf	13	;volatile
  1183  00B0                     l764:	
  1184                           
  1185                           ;mcc_generated_files/pin_manager.c: 83:     OPTION_REGbits.nWPUEN = 1;
  1186  00B0  0021               	movlb	1	; select bank1
  1187  00B1  1795               	bsf	21,7	;volatile
  1188                           
  1189                           ;mcc_generated_files/pin_manager.c: 89:     APFCON = 0x00;
  1190  00B2  0022               	movlb	2	; select bank2
  1191  00B3  019D               	clrf	29	;volatile
  1192  00B4                     l183:	
  1193  00B4  0008               	return
  1194  00B5                     __end_of_PIN_MANAGER_Initialize:	
  1195                           
  1196                           	psect	text6
  1197  012B                     __ptext6:	
  1198 ;; *************** function _OSCILLATOR_Initialize *****************
  1199 ;; Defined at:
  1200 ;;		line 59 in file "mcc_generated_files/mcc.c"
  1201 ;; Parameters:    Size  Location     Type
  1202 ;;		None
  1203 ;; Auto vars:     Size  Location     Type
  1204 ;;		None
  1205 ;; Return value:  Size  Location     Type
  1206 ;;                  1    wreg      void 
  1207 ;; Registers used:
  1208 ;;		wreg, status,2
  1209 ;; Tracked objects:
  1210 ;;		On entry : 0/0
  1211 ;;		On exit  : 0/0
  1212 ;;		Unchanged: 0/0
  1213 ;; Data sizes:     COMMON   BANK0   BANK1   BANK2   BANK3   BANK4   BANK5   BANK6   BANK7   BANK8   BANK9  BANK10  BANK1
      +1  BANK12
  1214 ;;      Params:         0       0       0       0       0       0       0       0       0       0       0       0       
      +0       0
  1215 ;;      Locals:         0       0       0       0       0       0       0       0       0       0       0       0       
      +0       0
  1216 ;;      Temps:          0       0       0       0       0       0       0       0       0       0       0       0       
      +0       0
  1217 ;;      Totals:         0       0       0       0       0       0       0       0       0       0       0       0       
      +0       0
  1218 ;;Total ram usage:        0 bytes
  1219 ;; Hardware stack levels used:    1
  1220 ;; Hardware stack levels required when called:    4
  1221 ;; This function calls:
  1222 ;;		Nothing
  1223 ;; This function is called by:
  1224 ;;		_SYSTEM_Initialize
  1225 ;; This function uses a non-reentrant model
  1226 ;;
  1227                           
  1228                           
  1229                           ;psect for function _OSCILLATOR_Initialize
  1230  012B                     _OSCILLATOR_Initialize:	
  1231  012B                     l766:	
  1232                           ;incstack = 0
  1233                           ; Regs used in _OSCILLATOR_Initialize: [wreg+status,2]
  1234                           
  1235                           
  1236                           ;mcc_generated_files/mcc.c: 62:     OSCCON = 0x78;
  1237  012B  3078               	movlw	120
  1238  012C  0021               	movlb	1	; select bank1
  1239  012D  0099               	movwf	25	;volatile
  1240  012E                     l768:	
  1241                           
  1242                           ;mcc_generated_files/mcc.c: 64:     BORCON = 0x00;
  1243  012E  0022               	movlb	2	; select bank2
  1244  012F  0196               	clrf	22	;volatile
  1245  0130                     l151:	
  1246  0130  0008               	return
  1247  0131                     __end_of_OSCILLATOR_Initialize:	
  1248                           
  1249                           	psect	text7
  1250  0025                     __ptext7:	
  1251 ;; *************** function _APP_LED_Tasks2 *****************
  1252 ;; Defined at:
  1253 ;;		line 46 in file "./app.c"
  1254 ;; Parameters:    Size  Location     Type
  1255 ;;		None
  1256 ;; Auto vars:     Size  Location     Type
  1257 ;;		None
  1258 ;; Return value:  Size  Location     Type
  1259 ;;                  1    wreg      void 
  1260 ;; Registers used:
  1261 ;;		wreg, fsr0l, fsr0h, status,2, status,0
  1262 ;; Tracked objects:
  1263 ;;		On entry : 0/0
  1264 ;;		On exit  : 0/0
  1265 ;;		Unchanged: 0/0
  1266 ;; Data sizes:     COMMON   BANK0   BANK1   BANK2   BANK3   BANK4   BANK5   BANK6   BANK7   BANK8   BANK9  BANK10  BANK1
      +1  BANK12
  1267 ;;      Params:         0       0       0       0       0       0       0       0       0       0       0       0       
      +0       0
  1268 ;;      Locals:         0       0       0       0       0       0       0       0       0       0       0       0       
      +0       0
  1269 ;;      Temps:          2       0       0       0       0       0       0       0       0       0       0       0       
      +0       0
  1270 ;;      Totals:         2       0       0       0       0       0       0       0       0       0       0       0       
      +0       0
  1271 ;;Total ram usage:        2 bytes
  1272 ;; Hardware stack levels used:    1
  1273 ;; Hardware stack levels required when called:    4
  1274 ;; This function calls:
  1275 ;;		Nothing
  1276 ;; This function is called by:
  1277 ;;		_main
  1278 ;; This function uses a non-reentrant model
  1279 ;;
  1280                           
  1281                           
  1282                           ;psect for function _APP_LED_Tasks2
  1283  0025                     _APP_LED_Tasks2:	
  1284  0025                     l918:	
  1285                           ;incstack = 0
  1286                           ; Regs used in _APP_LED_Tasks2: [wreg-fsr0h+status,2+status,0]
  1287                           
  1288                           
  1289                           ;./app.c: 48:     switch(appledData2.state)
  1290  0025  284C               	goto	l934
  1291  0026                     l98:	
  1292                           ;./app.c: 49:     {;./app.c: 50:         case APP_LED_STATE_INIT :
  1293                           
  1294                           
  1295                           ;./app.c: 51:         {;./app.c: 52:             appledData2.state = APP_LED_STATE_WAIT;
  1296  0026  01F0               	clrf	_appledData2
  1297  0027  0AF0               	incf	_appledData2,f
  1298                           
  1299                           ;./app.c: 53:             break;
  1300  0028  285F               	goto	l106
  1301  0029                     l920:	
  1302                           
  1303                           ;./app.c: 56:         {;./app.c: 57:             if(appledData2.TimerCount >= 327/2)
  1304  0029  0872               	movf	_appledData2+2,w
  1305  002A  3A80               	xorlw	128
  1306  002B  00F8               	movwf	??_APP_LED_Tasks2
  1307  002C  3080               	movlw	128
  1308  002D  0278               	subwf	??_APP_LED_Tasks2,w
  1309  002E  1D03               	skipz
  1310  002F  2832               	goto	u175
  1311  0030  30A3               	movlw	163
  1312  0031  0271               	subwf	_appledData2+1,w
  1313  0032                     u175:	
  1314  0032  1C03               	skipc
  1315  0033  2835               	goto	u171
  1316  0034  2836               	goto	u170
  1317  0035                     u171:	
  1318  0035  285F               	goto	l106
  1319  0036                     u170:	
  1320  0036                     l922:	
  1321                           
  1322                           ;./app.c: 58:             {;./app.c: 59:                 appledData2.state = APP_LED_STA
      +                          TE_BLINK_LED;
  1323  0036  3002               	movlw	2
  1324  0037  00F8               	movwf	??_APP_LED_Tasks2
  1325  0038  0878               	movf	??_APP_LED_Tasks2,w
  1326  0039  00F0               	movwf	_appledData2
  1327  003A                     l924:	
  1328                           
  1329                           ;./app.c: 60:                 appledData2.TimerCount = 0;
  1330  003A  01F1               	clrf	_appledData2+1
  1331  003B  01F2               	clrf	_appledData2+2
  1332  003C  285F               	goto	l106
  1333  003D                     l926:	
  1334  003D  1003               	clrc
  1335  003E  0022               	movlb	2	; select bank2
  1336  003F  1C8C               	btfss	12,1	;volatile
  1337  0040  1403               	setc
  1338  0041  1803               	btfsc	3,0
  1339  0042  2844               	goto	u181
  1340  0043  2847               	goto	u180
  1341  0044                     u181:	
  1342  0044  0022               	movlb	2	; select bank2
  1343  0045  148C               	bsf	12,1	;volatile
  1344  0046  2849               	goto	u194
  1345  0047                     u180:	
  1346  0047  0022               	movlb	2	; select bank2
  1347  0048  108C               	bcf	12,1	;volatile
  1348  0049                     u194:	
  1349  0049  2826               	goto	l98
  1350  004A                     l930:	
  1351                           
  1352                           ;./app.c: 71:             appledData2.state = APP_LED_STATE_INIT;
  1353  004A  01F0               	clrf	_appledData2
  1354                           
  1355                           ;./app.c: 72:             break;
  1356  004B  285F               	goto	l106
  1357  004C                     l934:	
  1358  004C  0870               	movf	_appledData2,w
  1359  004D  00F8               	movwf	??_APP_LED_Tasks2
  1360  004E  01F9               	clrf	??_APP_LED_Tasks2+1
  1361                           
  1362                           ; Switch on 2 bytes has been partitioned into a top level switch of size 1, and 1 sub-sw
      +                          itches
  1363                           ; Switch size 1, requested type "simple"
  1364                           ; Number of cases is 1, Range of values is 0 to 0
  1365                           ; switch strategies available:
  1366                           ; Name         Instructions Cycles
  1367                           ; simple_byte            4     3 (average)
  1368                           ; direct_byte            8     6 (fixed)
  1369                           ; jumptable            260     6 (fixed)
  1370                           ;	Chosen strategy is simple_byte
  1371  004F  0879               	movf	??_APP_LED_Tasks2+1,w
  1372  0050  3A00               	xorlw	0	; case 0
  1373  0051  1903               	skipnz
  1374  0052  2854               	goto	l1026
  1375  0053  284A               	goto	l930
  1376  0054                     l1026:	
  1377                           
  1378                           ; Switch size 1, requested type "simple"
  1379                           ; Number of cases is 3, Range of values is 0 to 2
  1380                           ; switch strategies available:
  1381                           ; Name         Instructions Cycles
  1382                           ; simple_byte           10     6 (average)
  1383                           ; direct_byte           12     6 (fixed)
  1384                           ; jumptable            260     6 (fixed)
  1385                           ;	Chosen strategy is simple_byte
  1386  0054  0878               	movf	??_APP_LED_Tasks2,w
  1387  0055  3A00               	xorlw	0	; case 0
  1388  0056  1903               	skipnz
  1389  0057  2826               	goto	l98
  1390  0058  3A01               	xorlw	1	; case 1
  1391  0059  1903               	skipnz
  1392  005A  2829               	goto	l920
  1393  005B  3A03               	xorlw	3	; case 2
  1394  005C  1903               	skipnz
  1395  005D  283D               	goto	l926
  1396  005E  284A               	goto	l930
  1397  005F                     l106:	
  1398  005F  0008               	return
  1399  0060                     __end_of_APP_LED_Tasks2:	
  1400                           
  1401                           	psect	text8
  1402  0060                     __ptext8:	
  1403 ;; *************** function _APP_LED_Tasks *****************
  1404 ;; Defined at:
  1405 ;;		line 15 in file "./app.c"
  1406 ;; Parameters:    Size  Location     Type
  1407 ;;		None
  1408 ;; Auto vars:     Size  Location     Type
  1409 ;;		None
  1410 ;; Return value:  Size  Location     Type
  1411 ;;                  1    wreg      void 
  1412 ;; Registers used:
  1413 ;;		wreg, fsr0l, fsr0h, status,2, status,0
  1414 ;; Tracked objects:
  1415 ;;		On entry : 0/0
  1416 ;;		On exit  : 0/0
  1417 ;;		Unchanged: 0/0
  1418 ;; Data sizes:     COMMON   BANK0   BANK1   BANK2   BANK3   BANK4   BANK5   BANK6   BANK7   BANK8   BANK9  BANK10  BANK1
      +1  BANK12
  1419 ;;      Params:         0       0       0       0       0       0       0       0       0       0       0       0       
      +0       0
  1420 ;;      Locals:         0       0       0       0       0       0       0       0       0       0       0       0       
      +0       0
  1421 ;;      Temps:          2       0       0       0       0       0       0       0       0       0       0       0       
      +0       0
  1422 ;;      Totals:         2       0       0       0       0       0       0       0       0       0       0       0       
      +0       0
  1423 ;;Total ram usage:        2 bytes
  1424 ;; Hardware stack levels used:    1
  1425 ;; Hardware stack levels required when called:    4
  1426 ;; This function calls:
  1427 ;;		Nothing
  1428 ;; This function is called by:
  1429 ;;		_main
  1430 ;; This function uses a non-reentrant model
  1431 ;;
  1432                           
  1433                           
  1434                           ;psect for function _APP_LED_Tasks
  1435  0060                     _APP_LED_Tasks:	
  1436  0060                     l894:	
  1437                           ;incstack = 0
  1438                           ; Regs used in _APP_LED_Tasks: [wreg-fsr0h+status,2+status,0]
  1439                           
  1440                           
  1441                           ;./app.c: 17:     switch(appledData.state)
  1442  0060  2887               	goto	l910
  1443  0061                     l86:	
  1444                           ;./app.c: 18:     {;./app.c: 19:         case APP_LED_STATE_INIT :
  1445                           
  1446                           
  1447                           ;./app.c: 20:         {;./app.c: 21:             appledData.state = APP_LED_STATE_WAIT;
  1448  0061  01F3               	clrf	_appledData
  1449  0062  0AF3               	incf	_appledData,f
  1450                           
  1451                           ;./app.c: 22:             break;
  1452  0063  289A               	goto	l94
  1453  0064                     l896:	
  1454                           
  1455                           ;./app.c: 25:         {;./app.c: 26:             if(appledData.TimerCount >= 250)
  1456  0064  0875               	movf	_appledData+2,w
  1457  0065  3A80               	xorlw	128
  1458  0066  00F8               	movwf	??_APP_LED_Tasks
  1459  0067  3080               	movlw	128
  1460  0068  0278               	subwf	??_APP_LED_Tasks,w
  1461  0069  1D03               	skipz
  1462  006A  286D               	goto	u145
  1463  006B  30FA               	movlw	250
  1464  006C  0274               	subwf	_appledData+1,w
  1465  006D                     u145:	
  1466  006D  1C03               	skipc
  1467  006E  2870               	goto	u141
  1468  006F  2871               	goto	u140
  1469  0070                     u141:	
  1470  0070  289A               	goto	l94
  1471  0071                     u140:	
  1472  0071                     l898:	
  1473                           
  1474                           ;./app.c: 27:             {;./app.c: 28:                 appledData.state = APP_LED_STAT
      +                          E_BLINK_LED;
  1475  0071  3002               	movlw	2
  1476  0072  00F8               	movwf	??_APP_LED_Tasks
  1477  0073  0878               	movf	??_APP_LED_Tasks,w
  1478  0074  00F3               	movwf	_appledData
  1479  0075                     l900:	
  1480                           
  1481                           ;./app.c: 29:                 appledData.TimerCount = 0;
  1482  0075  01F4               	clrf	_appledData+1
  1483  0076  01F5               	clrf	_appledData+2
  1484  0077  289A               	goto	l94
  1485  0078                     l902:	
  1486  0078  1003               	clrc
  1487  0079  0022               	movlb	2	; select bank2
  1488  007A  1C0C               	btfss	12,0	;volatile
  1489  007B  1403               	setc
  1490  007C  1803               	btfsc	3,0
  1491  007D  287F               	goto	u151
  1492  007E  2882               	goto	u150
  1493  007F                     u151:	
  1494  007F  0022               	movlb	2	; select bank2
  1495  0080  140C               	bsf	12,0	;volatile
  1496  0081  2884               	goto	u164
  1497  0082                     u150:	
  1498  0082  0022               	movlb	2	; select bank2
  1499  0083  100C               	bcf	12,0	;volatile
  1500  0084                     u164:	
  1501  0084  2861               	goto	l86
  1502  0085                     l906:	
  1503                           
  1504                           ;./app.c: 40:             appledData.state = APP_LED_STATE_INIT;
  1505  0085  01F3               	clrf	_appledData
  1506                           
  1507                           ;./app.c: 41:             break;
  1508  0086  289A               	goto	l94
  1509  0087                     l910:	
  1510  0087  0873               	movf	_appledData,w
  1511  0088  00F8               	movwf	??_APP_LED_Tasks
  1512  0089  01F9               	clrf	??_APP_LED_Tasks+1
  1513                           
  1514                           ; Switch on 2 bytes has been partitioned into a top level switch of size 1, and 1 sub-sw
      +                          itches
  1515                           ; Switch size 1, requested type "simple"
  1516                           ; Number of cases is 1, Range of values is 0 to 0
  1517                           ; switch strategies available:
  1518                           ; Name         Instructions Cycles
  1519                           ; simple_byte            4     3 (average)
  1520                           ; direct_byte            8     6 (fixed)
  1521                           ; jumptable            260     6 (fixed)
  1522                           ;	Chosen strategy is simple_byte
  1523  008A  0879               	movf	??_APP_LED_Tasks+1,w
  1524  008B  3A00               	xorlw	0	; case 0
  1525  008C  1903               	skipnz
  1526  008D  288F               	goto	l1028
  1527  008E  2885               	goto	l906
  1528  008F                     l1028:	
  1529                           
  1530                           ; Switch size 1, requested type "simple"
  1531                           ; Number of cases is 3, Range of values is 0 to 2
  1532                           ; switch strategies available:
  1533                           ; Name         Instructions Cycles
  1534                           ; simple_byte           10     6 (average)
  1535                           ; direct_byte           12     6 (fixed)
  1536                           ; jumptable            260     6 (fixed)
  1537                           ;	Chosen strategy is simple_byte
  1538  008F  0878               	movf	??_APP_LED_Tasks,w
  1539  0090  3A00               	xorlw	0	; case 0
  1540  0091  1903               	skipnz
  1541  0092  2861               	goto	l86
  1542  0093  3A01               	xorlw	1	; case 1
  1543  0094  1903               	skipnz
  1544  0095  2864               	goto	l896
  1545  0096  3A03               	xorlw	3	; case 2
  1546  0097  1903               	skipnz
  1547  0098  2878               	goto	l902
  1548  0099  2885               	goto	l906
  1549  009A                     l94:	
  1550  009A  0008               	return
  1551  009B                     __end_of_APP_LED_Tasks:	
  1552                           
  1553                           	psect	text9
  1554  011E                     __ptext9:	
  1555 ;; *************** function _APP_LED_Initialize *****************
  1556 ;; Defined at:
  1557 ;;		line 7 in file "./app.c"
  1558 ;; Parameters:    Size  Location     Type
  1559 ;;		None
  1560 ;; Auto vars:     Size  Location     Type
  1561 ;;		None
  1562 ;; Return value:  Size  Location     Type
  1563 ;;                  1    wreg      void 
  1564 ;; Registers used:
  1565 ;;		status,2
  1566 ;; Tracked objects:
  1567 ;;		On entry : 0/0
  1568 ;;		On exit  : 0/0
  1569 ;;		Unchanged: 0/0
  1570 ;; Data sizes:     COMMON   BANK0   BANK1   BANK2   BANK3   BANK4   BANK5   BANK6   BANK7   BANK8   BANK9  BANK10  BANK1
      +1  BANK12
  1571 ;;      Params:         0       0       0       0       0       0       0       0       0       0       0       0       
      +0       0
  1572 ;;      Locals:         0       0       0       0       0       0       0       0       0       0       0       0       
      +0       0
  1573 ;;      Temps:          0       0       0       0       0       0       0       0       0       0       0       0       
      +0       0
  1574 ;;      Totals:         0       0       0       0       0       0       0       0       0       0       0       0       
      +0       0
  1575 ;;Total ram usage:        0 bytes
  1576 ;; Hardware stack levels used:    1
  1577 ;; Hardware stack levels required when called:    4
  1578 ;; This function calls:
  1579 ;;		Nothing
  1580 ;; This function is called by:
  1581 ;;		_main
  1582 ;; This function uses a non-reentrant model
  1583 ;;
  1584                           
  1585                           
  1586                           ;psect for function _APP_LED_Initialize
  1587  011E                     _APP_LED_Initialize:	
  1588  011E                     l892:	
  1589                           ;incstack = 0
  1590                           ; Regs used in _APP_LED_Initialize: [status,2]
  1591                           
  1592                           
  1593                           ;./app.c: 9:     appledData.state = APP_LED_STATE_INIT;
  1594  011E  01F3               	clrf	_appledData
  1595                           
  1596                           ;./app.c: 10:     appledData.TimerCount = 0;
  1597  011F  01F4               	clrf	_appledData+1
  1598  0120  01F5               	clrf	_appledData+2
  1599                           
  1600                           ;./app.c: 11:     appledData2.state = APP_LED_STATE_INIT;
  1601  0121  01F0               	clrf	_appledData2
  1602                           
  1603                           ;./app.c: 12:     appledData2.TimerCount = 0;
  1604  0122  01F1               	clrf	_appledData2+1
  1605  0123  01F2               	clrf	_appledData2+2
  1606  0124                     l82:	
  1607  0124  0008               	return
  1608  0125                     __end_of_APP_LED_Initialize:	
  1609                           
  1610                           	psect	intentry
  1611  0004                     __pintentry:	
  1612 ;; *************** function _INTERRUPT_InterruptManager *****************
  1613 ;; Defined at:
  1614 ;;		line 52 in file "mcc_generated_files/interrupt_manager.c"
  1615 ;; Parameters:    Size  Location     Type
  1616 ;;		None
  1617 ;; Auto vars:     Size  Location     Type
  1618 ;;		None
  1619 ;; Return value:  Size  Location     Type
  1620 ;;                  1    wreg      void 
  1621 ;; Registers used:
  1622 ;;		wreg, status,2, status,0, pclath, cstack
  1623 ;; Tracked objects:
  1624 ;;		On entry : 0/0
  1625 ;;		On exit  : 0/0
  1626 ;;		Unchanged: 0/0
  1627 ;; Data sizes:     COMMON   BANK0   BANK1   BANK2   BANK3   BANK4   BANK5   BANK6   BANK7   BANK8   BANK9  BANK10  BANK1
      +1  BANK12
  1628 ;;      Params:         0       0       0       0       0       0       0       0       0       0       0       0       
      +0       0
  1629 ;;      Locals:         0       0       0       0       0       0       0       0       0       0       0       0       
      +0       0
  1630 ;;      Temps:          0       0       0       0       0       0       0       0       0       0       0       0       
      +0       0
  1631 ;;      Totals:         0       0       0       0       0       0       0       0       0       0       0       0       
      +0       0
  1632 ;;Total ram usage:        0 bytes
  1633 ;; Hardware stack levels used:    1
  1634 ;; Hardware stack levels required when called:    3
  1635 ;; This function calls:
  1636 ;;		_TMR1_ISR
  1637 ;; This function is called by:
  1638 ;;		Interrupt level 1
  1639 ;; This function uses a non-reentrant model
  1640 ;;
  1641                           
  1642  0004                     _INTERRUPT_InterruptManager:	
  1643                           
  1644                           ;incstack = 0
  1645  0004  147E               	bsf	int$flags,0	;set compiler interrupt flag (level 1)
  1646                           
  1647                           ; Regs used in _INTERRUPT_InterruptManager: [wreg+status,2+status,0+pclath+cstack]
  1648  0005  3180               	pagesel	$
  1649  0006                     i1l958:	
  1650                           
  1651                           ;mcc_generated_files/interrupt_manager.c: 55:     if(INTCONbits.PEIE == 1)
  1652  0006  1F0B               	btfss	11,6	;volatile
  1653  0007  2809               	goto	u20_21
  1654  0008  280A               	goto	u20_20
  1655  0009                     u20_21:	
  1656  0009  2817               	goto	i1l131
  1657  000A                     u20_20:	
  1658  000A                     i1l960:	
  1659                           
  1660                           ;mcc_generated_files/interrupt_manager.c: 56:     {;mcc_generated_files/interrupt_manage
      +                          r.c: 57:         if(PIE1bits.TMR1IE == 1 && PIR1bits.TMR1IF == 1)
  1661  000A  0021               	movlb	1	; select bank1
  1662  000B  1C11               	btfss	17,0	;volatile
  1663  000C  280E               	goto	u21_21
  1664  000D  280F               	goto	u21_20
  1665  000E                     u21_21:	
  1666  000E  2817               	goto	i1l131
  1667  000F                     u21_20:	
  1668  000F                     i1l962:	
  1669  000F  0020               	movlb	0	; select bank0
  1670  0010  1C11               	btfss	17,0	;volatile
  1671  0011  2813               	goto	u22_21
  1672  0012  2814               	goto	u22_20
  1673  0013                     u22_21:	
  1674  0013  2817               	goto	i1l131
  1675  0014                     u22_20:	
  1676  0014                     i1l964:	
  1677                           
  1678                           ;mcc_generated_files/interrupt_manager.c: 58:         {;mcc_generated_files/interrupt_ma
      +                          nager.c: 59:             TMR1_ISR();
  1679  0014  3181  2111  3180   	fcall	_TMR1_ISR
  1680  0017                     i1l131:	
  1681                           ;mcc_generated_files/interrupt_manager.c: 60:         }
  1682                           
  1683  0017  107E               	bcf	int$flags,0	;clear compiler interrupt flag (level 1)
  1684  0018  0009               	retfie
  1685  0019                     __end_of_INTERRUPT_InterruptManager:	
  1686                           
  1687                           	psect	text11
  1688  0111                     __ptext11:	
  1689 ;; *************** function _TMR1_ISR *****************
  1690 ;; Defined at:
  1691 ;;		line 158 in file "mcc_generated_files/tmr1.c"
  1692 ;; Parameters:    Size  Location     Type
  1693 ;;		None
  1694 ;; Auto vars:     Size  Location     Type
  1695 ;;		None
  1696 ;; Return value:  Size  Location     Type
  1697 ;;                  1    wreg      void 
  1698 ;; Registers used:
  1699 ;;		wreg, status,2, status,0, pclath, cstack
  1700 ;; Tracked objects:
  1701 ;;		On entry : 0/0
  1702 ;;		On exit  : 0/0
  1703 ;;		Unchanged: 0/0
  1704 ;; Data sizes:     COMMON   BANK0   BANK1   BANK2   BANK3   BANK4   BANK5   BANK6   BANK7   BANK8   BANK9  BANK10  BANK1
      +1  BANK12
  1705 ;;      Params:         0       0       0       0       0       0       0       0       0       0       0       0       
      +0       0
  1706 ;;      Locals:         0       0       0       0       0       0       0       0       0       0       0       0       
      +0       0
  1707 ;;      Temps:          0       0       0       0       0       0       0       0       0       0       0       0       
      +0       0
  1708 ;;      Totals:         0       0       0       0       0       0       0       0       0       0       0       0       
      +0       0
  1709 ;;Total ram usage:        0 bytes
  1710 ;; Hardware stack levels used:    1
  1711 ;; Hardware stack levels required when called:    2
  1712 ;; This function calls:
  1713 ;;		_TMR1_CallBack
  1714 ;;		_TMR1_WriteTimer
  1715 ;; This function is called by:
  1716 ;;		_INTERRUPT_InterruptManager
  1717 ;; This function uses a non-reentrant model
  1718 ;;
  1719                           
  1720                           
  1721                           ;psect for function _TMR1_ISR
  1722  0111                     _TMR1_ISR:	
  1723  0111                     i1l888:	
  1724                           ;incstack = 0
  1725                           ; Regs used in _TMR1_ISR: [wreg+status,2+status,0+pclath+cstack]
  1726                           
  1727                           
  1728                           ;mcc_generated_files/tmr1.c: 162:     PIR1bits.TMR1IF = 0;
  1729  0111  0020               	movlb	0	; select bank0
  1730  0112  1011               	bcf	17,0	;volatile
  1731  0113                     i1l890:	
  1732                           
  1733                           ;mcc_generated_files/tmr1.c: 163:     TMR1_WriteTimer(timer1ReloadVal);
  1734  0113  087B               	movf	_timer1ReloadVal+1,w	;volatile
  1735  0114  00F7               	movwf	TMR1_WriteTimer@timerVal+1
  1736  0115  087A               	movf	_timer1ReloadVal,w	;volatile
  1737  0116  00F6               	movwf	TMR1_WriteTimer@timerVal
  1738  0117  3180  20F3  3181   	fcall	_TMR1_WriteTimer
  1739                           
  1740                           ;mcc_generated_files/tmr1.c: 167:     TMR1_CallBack();
  1741  011A  3180  20CD  3181   	fcall	_TMR1_CallBack
  1742  011D                     i1l59:	
  1743  011D  0008               	return
  1744  011E                     __end_of_TMR1_ISR:	
  1745                           
  1746                           	psect	text12
  1747  00F3                     __ptext12:	
  1748 ;; *************** function _TMR1_WriteTimer *****************
  1749 ;; Defined at:
  1750 ;;		line 121 in file "mcc_generated_files/tmr1.c"
  1751 ;; Parameters:    Size  Location     Type
  1752 ;;  timerVal        2    0[COMMON] unsigned short 
  1753 ;; Auto vars:     Size  Location     Type
  1754 ;;		None
  1755 ;; Return value:  Size  Location     Type
  1756 ;;                  1    wreg      void 
  1757 ;; Registers used:
  1758 ;;		wreg, status,2
  1759 ;; Tracked objects:
  1760 ;;		On entry : 0/0
  1761 ;;		On exit  : 0/0
  1762 ;;		Unchanged: 0/0
  1763 ;; Data sizes:     COMMON   BANK0   BANK1   BANK2   BANK3   BANK4   BANK5   BANK6   BANK7   BANK8   BANK9  BANK10  BANK1
      +1  BANK12
  1764 ;;      Params:         2       0       0       0       0       0       0       0       0       0       0       0       
      +0       0
  1765 ;;      Locals:         0       0       0       0       0       0       0       0       0       0       0       0       
      +0       0
  1766 ;;      Temps:          0       0       0       0       0       0       0       0       0       0       0       0       
      +0       0
  1767 ;;      Totals:         2       0       0       0       0       0       0       0       0       0       0       0       
      +0       0
  1768 ;;Total ram usage:        2 bytes
  1769 ;; Hardware stack levels used:    1
  1770 ;; This function calls:
  1771 ;;		Nothing
  1772 ;; This function is called by:
  1773 ;;		_TMR1_ISR
  1774 ;;		_TMR1_Reload
  1775 ;; This function uses a non-reentrant model
  1776 ;;
  1777                           
  1778                           
  1779                           ;psect for function _TMR1_WriteTimer
  1780  00F3                     _TMR1_WriteTimer:	
  1781  00F3                     i1l868:	
  1782                           ;incstack = 0
  1783                           ; Regs used in _TMR1_WriteTimer: [wreg+status,2]
  1784                           
  1785                           
  1786                           ;mcc_generated_files/tmr1.c: 121: void TMR1_WriteTimer(uint16_t timerVal);mcc_generated_
      +                          files/tmr1.c: 122: {;mcc_generated_files/tmr1.c: 123:     if (T1CONbits.nT1SYNC == 1)
  1787  00F3  0020               	movlb	0	; select bank0
  1788  00F4  1D18               	btfss	24,2	;volatile
  1789  00F5  28F7               	goto	u12_21
  1790  00F6  28F8               	goto	u12_20
  1791  00F7                     u12_21:	
  1792  00F7  28FF               	goto	i1l878
  1793  00F8                     u12_20:	
  1794  00F8                     i1l870:	
  1795                           
  1796                           ;mcc_generated_files/tmr1.c: 124:     {;mcc_generated_files/tmr1.c: 126:         T1CONbi
      +                          ts.TMR1ON = 0;
  1797  00F8  1018               	bcf	24,0	;volatile
  1798  00F9                     i1l872:	
  1799                           
  1800                           ;mcc_generated_files/tmr1.c: 129:         TMR1H = (timerVal >> 8);
  1801  00F9  0877               	movf	TMR1_WriteTimer@timerVal+1,w
  1802  00FA  0097               	movwf	23	;volatile
  1803  00FB                     i1l874:	
  1804                           
  1805                           ;mcc_generated_files/tmr1.c: 130:         TMR1L = timerVal;
  1806  00FB  0876               	movf	TMR1_WriteTimer@timerVal,w
  1807  00FC  0096               	movwf	22	;volatile
  1808  00FD                     i1l876:	
  1809                           
  1810                           ;mcc_generated_files/tmr1.c: 133:         T1CONbits.TMR1ON =1;
  1811  00FD  1418               	bsf	24,0	;volatile
  1812                           
  1813                           ;mcc_generated_files/tmr1.c: 134:     }
  1814  00FE  2903               	goto	i1l47
  1815  00FF                     i1l878:	
  1816                           
  1817                           ;mcc_generated_files/tmr1.c: 136:     {;mcc_generated_files/tmr1.c: 138:         TMR1H =
      +                           (timerVal >> 8);
  1818  00FF  0877               	movf	TMR1_WriteTimer@timerVal+1,w
  1819  0100  0097               	movwf	23	;volatile
  1820  0101                     i1l880:	
  1821                           
  1822                           ;mcc_generated_files/tmr1.c: 139:         TMR1L = timerVal;
  1823  0101  0876               	movf	TMR1_WriteTimer@timerVal,w
  1824  0102  0096               	movwf	22	;volatile
  1825  0103                     i1l47:	
  1826  0103  0008               	return
  1827  0104                     __end_of_TMR1_WriteTimer:	
  1828                           
  1829                           	psect	text13
  1830  00CD                     __ptext13:	
  1831 ;; *************** function _TMR1_CallBack *****************
  1832 ;; Defined at:
  1833 ;;		line 170 in file "mcc_generated_files/tmr1.c"
  1834 ;; Parameters:    Size  Location     Type
  1835 ;;		None
  1836 ;; Auto vars:     Size  Location     Type
  1837 ;;		None
  1838 ;; Return value:  Size  Location     Type
  1839 ;;                  1    wreg      void 
  1840 ;; Registers used:
  1841 ;;		wreg, status,2, status,0, pclath, cstack
  1842 ;; Tracked objects:
  1843 ;;		On entry : 0/0
  1844 ;;		On exit  : 0/0
  1845 ;;		Unchanged: 0/0
  1846 ;; Data sizes:     COMMON   BANK0   BANK1   BANK2   BANK3   BANK4   BANK5   BANK6   BANK7   BANK8   BANK9  BANK10  BANK1
      +1  BANK12
  1847 ;;      Params:         0       0       0       0       0       0       0       0       0       0       0       0       
      +0       0
  1848 ;;      Locals:         0       0       0       0       0       0       0       0       0       0       0       0       
      +0       0
  1849 ;;      Temps:          0       0       0       0       0       0       0       0       0       0       0       0       
      +0       0
  1850 ;;      Totals:         0       0       0       0       0       0       0       0       0       0       0       0       
      +0       0
  1851 ;;Total ram usage:        0 bytes
  1852 ;; Hardware stack levels used:    1
  1853 ;; Hardware stack levels required when called:    1
  1854 ;; This function calls:
  1855 ;;		Absolute function
  1856 ;;		_TMR1_DefaultInterruptHandler
  1857 ;; This function is called by:
  1858 ;;		_TMR1_ISR
  1859 ;; This function uses a non-reentrant model
  1860 ;;
  1861                           
  1862                           
  1863                           ;psect for function _TMR1_CallBack
  1864  00CD                     _TMR1_CallBack:	
  1865  00CD                     i1l882:	
  1866                           ;incstack = 0
  1867                           ; Regs used in _TMR1_CallBack: [wreg+status,2+status,0+pclath+cstack]
  1868                           
  1869                           
  1870                           ;mcc_generated_files/tmr1.c: 173:     appledData.TimerCount++;
  1871  00CD  3001               	movlw	1
  1872  00CE  07F4               	addwf	_appledData+1,f
  1873  00CF  3000               	movlw	0
  1874  00D0  3DF5               	addwfc	_appledData+2,f
  1875                           
  1876                           ;mcc_generated_files/tmr1.c: 174:     appledData2.TimerCount++;
  1877  00D1  3001               	movlw	1
  1878  00D2  07F1               	addwf	_appledData2+1,f
  1879  00D3  3000               	movlw	0
  1880  00D4  3DF2               	addwfc	_appledData2+2,f
  1881  00D5                     i1l884:	
  1882                           
  1883                           ;mcc_generated_files/tmr1.c: 176:     if(TMR1_InterruptHandler)
  1884  00D5  0020               	movlb	0	; select bank0
  1885  00D6  0820               	movf	_TMR1_InterruptHandler,w
  1886  00D7  0421               	iorwf	_TMR1_InterruptHandler+1,w
  1887  00D8  1903               	btfsc	3,2
  1888  00D9  28DB               	goto	u13_21
  1889  00DA  28DC               	goto	u13_20
  1890  00DB                     u13_21:	
  1891  00DB  28E1               	goto	i1l63
  1892  00DC                     u13_20:	
  1893  00DC                     i1l886:	
  1894                           
  1895                           ;mcc_generated_files/tmr1.c: 177:     {;mcc_generated_files/tmr1.c: 178:         TMR1_In
      +                          terruptHandler();
  1896  00DC  0821               	movf	_TMR1_InterruptHandler+1,w
  1897  00DD  008A               	movwf	10
  1898  00DE  0820               	movf	_TMR1_InterruptHandler,w
  1899  00DF  000A               	callw
  1900  00E0  3180               	pagesel	$
  1901  00E1                     i1l63:	
  1902  00E1  0008               	return
  1903  00E2                     __end_of_TMR1_CallBack:	
  1904                           
  1905                           	psect	text14
  1906  0135                     __ptext14:	
  1907 ;; *************** function _TMR1_DefaultInterruptHandler *****************
  1908 ;; Defined at:
  1909 ;;		line 186 in file "mcc_generated_files/tmr1.c"
  1910 ;; Parameters:    Size  Location     Type
  1911 ;;		None
  1912 ;; Auto vars:     Size  Location     Type
  1913 ;;		None
  1914 ;; Return value:  Size  Location     Type
  1915 ;;                  1    wreg      void 
  1916 ;; Registers used:
  1917 ;;		None
  1918 ;; Tracked objects:
  1919 ;;		On entry : 0/0
  1920 ;;		On exit  : 0/0
  1921 ;;		Unchanged: 0/0
  1922 ;; Data sizes:     COMMON   BANK0   BANK1   BANK2   BANK3   BANK4   BANK5   BANK6   BANK7   BANK8   BANK9  BANK10  BANK1
      +1  BANK12
  1923 ;;      Params:         0       0       0       0       0       0       0       0       0       0       0       0       
      +0       0
  1924 ;;      Locals:         0       0       0       0       0       0       0       0       0       0       0       0       
      +0       0
  1925 ;;      Temps:          0       0       0       0       0       0       0       0       0       0       0       0       
      +0       0
  1926 ;;      Totals:         0       0       0       0       0       0       0       0       0       0       0       0       
      +0       0
  1927 ;;Total ram usage:        0 bytes
  1928 ;; Hardware stack levels used:    1
  1929 ;; This function calls:
  1930 ;;		Nothing
  1931 ;; This function is called by:
  1932 ;;		_TMR1_Initialize
  1933 ;;		_TMR1_CallBack
  1934 ;; This function uses a non-reentrant model
  1935 ;;
  1936                           
  1937                           
  1938                           ;psect for function _TMR1_DefaultInterruptHandler
  1939  0135                     _TMR1_DefaultInterruptHandler:	
  1940  0135                     i1l69:	
  1941                           ;incstack = 0
  1942                           ; Regs used in _TMR1_DefaultInterruptHandler: []
  1943                           
  1944  0135  0008               	return
  1945  0136                     __end_of_TMR1_DefaultInterruptHandler:	
  1946  007E                     btemp	set	126	;btemp
  1947  007E                     int$flags	set	126
  1948  007E                     wtemp0	set	126


Data Sizes:
    Strings     0
    Constant    0
    Data        0
    BSS         6
    Persistent  36
    Stack       0

Auto Spaces:
    Space          Size  Autos    Used
    COMMON           14      4      12
    BANK0            80      0       2
    BANK1            80      0       0
    BANK2            80      0       0
    BANK3            80      0       0
    BANK4            80      0       0
    BANK5            80      0       0
    BANK6            80      0       0
    BANK7            80      0       0
    BANK8            80      0       0
    BANK9            80      0       0
    BANK10           80      0       0
    BANK11           80      0       0
    BANK12           48      0       0

Pointer List with Targets:

    TMR1_SetInterruptHandler@InterruptHandler	PTR FTN()void  size(2) Largest target is 1
		 -> TMR1_DefaultInterruptHandler(), 

    TMR1_InterruptHandler	PTR FTN()void  size(2) Largest target is 1
		 -> Absolute function(), TMR1_DefaultInterruptHandler(), 


Critical Paths under _main in COMMON

    _main->_APP_LED_Tasks
    _main->_APP_LED_Tasks2
    _TMR1_Initialize->_TMR1_SetInterruptHandler

Critical Paths under _INTERRUPT_InterruptManager in COMMON

    _TMR1_ISR->_TMR1_WriteTimer

Critical Paths under _main in BANK0

    None.

Critical Paths under _INTERRUPT_InterruptManager in BANK0

    None.

Critical Paths under _main in BANK1

    None.

Critical Paths under _INTERRUPT_InterruptManager in BANK1

    None.

Critical Paths under _main in BANK2

    None.

Critical Paths under _INTERRUPT_InterruptManager in BANK2

    None.

Critical Paths under _main in BANK3

    None.

Critical Paths under _INTERRUPT_InterruptManager in BANK3

    None.

Critical Paths under _main in BANK4

    None.

Critical Paths under _INTERRUPT_InterruptManager in BANK4

    None.

Critical Paths under _main in BANK5

    None.

Critical Paths under _INTERRUPT_InterruptManager in BANK5

    None.

Critical Paths under _main in BANK6

    None.

Critical Paths under _INTERRUPT_InterruptManager in BANK6

    None.

Critical Paths under _main in BANK7

    None.

Critical Paths under _INTERRUPT_InterruptManager in BANK7

    None.

Critical Paths under _main in BANK8

    None.

Critical Paths under _INTERRUPT_InterruptManager in BANK8

    None.

Critical Paths under _main in BANK9

    None.

Critical Paths under _INTERRUPT_InterruptManager in BANK9

    None.

Critical Paths under _main in BANK10

    None.

Critical Paths under _INTERRUPT_InterruptManager in BANK10

    None.

Critical Paths under _main in BANK11

    None.

Critical Paths under _INTERRUPT_InterruptManager in BANK11

    None.

Critical Paths under _main in BANK12

    None.

Critical Paths under _INTERRUPT_InterruptManager in BANK12

    None.

Call Graph Tables:

 ---------------------------------------------------------------------------------
 (Depth) Function   	        Calls       Base Space   Used Autos Params    Refs
 ---------------------------------------------------------------------------------
 (0) _main                                                 0     0      0      98
                 _APP_LED_Initialize
                      _APP_LED_Tasks
                     _APP_LED_Tasks2
                  _SYSTEM_Initialize
 ---------------------------------------------------------------------------------
 (1) _SYSTEM_Initialize                                    0     0      0      98
              _OSCILLATOR_Initialize
             _PIN_MANAGER_Initialize
                    _TMR1_Initialize
                     _WDT_Initialize
 ---------------------------------------------------------------------------------
 (2) _WDT_Initialize                                       0     0      0       0
 ---------------------------------------------------------------------------------
 (2) _TMR1_Initialize                                      0     0      0      98
           _TMR1_SetInterruptHandler
 ---------------------------------------------------------------------------------
 (3) _TMR1_SetInterruptHandler                             2     0      2      98
                                              2 COMMON     2     0      2
 ---------------------------------------------------------------------------------
 (2) _PIN_MANAGER_Initialize                               0     0      0       0
 ---------------------------------------------------------------------------------
 (2) _OSCILLATOR_Initialize                                0     0      0       0
 ---------------------------------------------------------------------------------
 (1) _APP_LED_Tasks2                                       2     2      0       0
                                              2 COMMON     2     2      0
 ---------------------------------------------------------------------------------
 (1) _APP_LED_Tasks                                        2     2      0       0
                                              2 COMMON     2     2      0
 ---------------------------------------------------------------------------------
 (1) _APP_LED_Initialize                                   0     0      0       0
 ---------------------------------------------------------------------------------
 Estimated maximum stack depth 3
 ---------------------------------------------------------------------------------
 (Depth) Function   	        Calls       Base Space   Used Autos Params    Refs
 ---------------------------------------------------------------------------------
 (4) _INTERRUPT_InterruptManager                           0     0      0     240
                           _TMR1_ISR
 ---------------------------------------------------------------------------------
 (5) _TMR1_ISR                                             0     0      0     240
                      _TMR1_CallBack
                    _TMR1_WriteTimer
 ---------------------------------------------------------------------------------
 (6) _TMR1_WriteTimer                                      2     0      2     240
                                              0 COMMON     2     0      2
 ---------------------------------------------------------------------------------
 (6) _TMR1_CallBack                                        0     0      0       0
                   Absolute function *
       _TMR1_DefaultInterruptHandler *
 ---------------------------------------------------------------------------------
 (7) _TMR1_DefaultInterruptHandler                         0     0      0       0
 ---------------------------------------------------------------------------------
 (7) Absolute function(Fake)                               0     0      0       0
 ---------------------------------------------------------------------------------
 Estimated maximum stack depth 7
 ---------------------------------------------------------------------------------

 Call Graph Graphs:

 _main (ROOT)
   _APP_LED_Initialize
   _APP_LED_Tasks
   _APP_LED_Tasks2
   _SYSTEM_Initialize
     _OSCILLATOR_Initialize
     _PIN_MANAGER_Initialize
     _TMR1_Initialize
       _TMR1_SetInterruptHandler
     _WDT_Initialize

 _INTERRUPT_InterruptManager (ROOT)
   _TMR1_ISR
     _TMR1_CallBack
       Absolute function(Fake) *
       _TMR1_DefaultInterruptHandler *
     _TMR1_WriteTimer

 Address spaces:
Name               Size   Autos  Total    Cost      Usage
BIGRAM             3F0      0       0       0        0.0%
NULL                 0      0       0       0        0.0%
CODE                 0      0       0       0        0.0%
BITCOMMON            E      0       0       1        0.0%
BITSFR0              0      0       0       1        0.0%
SFR0                 0      0       0       1        0.0%
COMMON               E      4       C       2       85.7%
BITSFR1              0      0       0       2        0.0%
SFR1                 0      0       0       2        0.0%
BITSFR2              0      0       0       3        0.0%
SFR2                 0      0       0       3        0.0%
STACK                0      0       0       3        0.0%
BITBANK0            50      0       0       4        0.0%
BITSFR3              0      0       0       4        0.0%
SFR3                 0      0       0       4        0.0%
BANK0               50      0       2       5        2.5%
BITSFR4              0      0       0       5        0.0%
SFR4                 0      0       0       5        0.0%
BITBANK1            50      0       0       6        0.0%
BITSFR5              0      0       0       6        0.0%
SFR5                 0      0       0       6        0.0%
BANK1               50      0       0       7        0.0%
BITSFR6              0      0       0       7        0.0%
SFR6                 0      0       0       7        0.0%
BITBANK2            50      0       0       8        0.0%
BITSFR7              0      0       0       8        0.0%
SFR7                 0      0       0       8        0.0%
BANK2               50      0       0       9        0.0%
BITSFR8              0      0       0       9        0.0%
SFR8                 0      0       0       9        0.0%
BITBANK3            50      0       0      10        0.0%
BITSFR9              0      0       0      10        0.0%
SFR9                 0      0       0      10        0.0%
BANK3               50      0       0      11        0.0%
BITSFR10             0      0       0      11        0.0%
SFR10                0      0       0      11        0.0%
BITBANK4            50      0       0      12        0.0%
BITSFR11             0      0       0      12        0.0%
SFR11                0      0       0      12        0.0%
BANK4               50      0       0      13        0.0%
BITSFR12             0      0       0      13        0.0%
SFR12                0      0       0      13        0.0%
BITBANK5            50      0       0      14        0.0%
BITSFR13             0      0       0      14        0.0%
SFR13                0      0       0      14        0.0%
BANK5               50      0       0      15        0.0%
BITSFR14             0      0       0      15        0.0%
SFR14                0      0       0      15        0.0%
BITBANK6            50      0       0      16        0.0%
BITSFR15             0      0       0      16        0.0%
SFR15                0      0       0      16        0.0%
BANK6               50      0       0      17        0.0%
BITSFR16             0      0       0      17        0.0%
SFR16                0      0       0      17        0.0%
BITBANK7            50      0       0      18        0.0%
BITSFR17             0      0       0      18        0.0%
SFR17                0      0       0      18        0.0%
BANK7               50      0       0      19        0.0%
BITSFR18             0      0       0      19        0.0%
SFR18                0      0       0      19        0.0%
BITSFR19             0      0       0      20        0.0%
SFR19                0      0       0      20        0.0%
ABS                  0      0       E      20        0.0%
BITBANK8            50      0       0      21        0.0%
BITSFR20             0      0       0      21        0.0%
SFR20                0      0       0      21        0.0%
BANK8               50      0       0      22        0.0%
BITSFR21             0      0       0      22        0.0%
SFR21                0      0       0      22        0.0%
BITBANK9            50      0       0      23        0.0%
BITSFR22             0      0       0      23        0.0%
SFR22                0      0       0      23        0.0%
BANK9               50      0       0      24        0.0%
BITSFR23             0      0       0      24        0.0%
SFR23                0      0       0      24        0.0%
BITBANK10           50      0       0      25        0.0%
BITSFR24             0      0       0      25        0.0%
SFR24                0      0       0      25        0.0%
BANK10              50      0       0      26        0.0%
BITSFR25             0      0       0      26        0.0%
SFR25                0      0       0      26        0.0%
BITBANK11           50      0       0      27        0.0%
BITSFR26             0      0       0      27        0.0%
SFR26                0      0       0      27        0.0%
BANK11              50      0       0      28        0.0%
BITSFR27             0      0       0      28        0.0%
SFR27                0      0       0      28        0.0%
BITBANK12           30      0       0      29        0.0%
BITSFR28             0      0       0      29        0.0%
SFR28                0      0       0      29        0.0%
BANK12              30      0       0      30        0.0%
BITSFR29             0      0       0      30        0.0%
SFR29                0      0       0      30        0.0%
BITSFR30             0      0       0      31        0.0%
SFR30                0      0       0      31        0.0%
DATA                 0      0       E      31        0.0%
BITSFR31             0      0       0      32        0.0%
SFR31                0      0       0      32        0.0%


Microchip Technology PIC Macro Assembler V2.10 build 88905656 
Symbol Table                                                                                   Thu Feb  6 18:21:59 2020

                             __CFG_CP$OFF 0000                                        l33 00CC  
                                      l82 0124                                        l66 012A  
                                      l94 009A                                        l86 0061  
                                      l98 0026                               __CFG_LVP$ON 0000  
                                     l106 005F                                       l151 0130  
                                     l154 0134                                       l148 0110  
                                     l183 00B4                                       l900 0075  
                                     l902 0078                                       l910 0087  
                                     l750 009B                                       l920 0029  
                                     l760 00A9                                       l752 009F  
                                     l906 0085                                       l930 004A  
                                     l922 0036                                       l762 00AB  
                                     l754 00A2                                       l850 0125  
                                     l770 0131                                       l924 003A  
                                     l764 00B0                                       l756 00A4  
                                     l860 00BC                                       l852 00B5  
                                     l926 003D                                       l934 004C  
                                     l918 0025                                       l766 012B  
                                     l758 00A6                                       l862 00C0  
                                     l854 00B7                                       l942 0104  
                                     l950 00E8                                       l768 012E  
                                     l864 00C2                                       l856 00B9  
                                     l952 00E9                                       l866 00C9  
                                     l858 00BB                                       l954 00EA  
                                     l946 00E2                                       l892 011E  
                                     l956 00ED                                       l948 00E5  
                                     l894 0060                                       l896 0064  
                                     l898 0071                                       u140 0071  
                                     u141 0070                                       u150 0082  
                                     u151 007F                                       u145 006D  
                                     u170 0036                                       u171 0035  
                                     u164 0084                                       u180 0047  
                                     u181 0044                                       u175 0032  
                                     u194 0049                           _timer1ReloadVal 007A  
                            __CFG_BORV$LO 0000                              __CFG_IESO$ON 0000  
                                    l1026 0054                                      l1028 008F  
                                    _LATA 010C                                      _LATB 010D  
                                    _LATC 010E               __size_of_APP_LED_Initialize 0007  
                                    i1l63 00E1                                      i1l47 0103  
                                    i1l59 011D                                      i1l69 0135  
                                    _WPUB 020D                                      _WPUE 0210  
                            __CFG_WRT$OFF 0000                             __CFG_FCMEN$ON 0000  
                                    _main 00E2                                      btemp 007E  
                           __CFG_BOREN$ON 0000                                      start 0019  
              ??_TMR1_SetInterruptHandler 007A                             __CFG_MCLRE$ON 0000  
          __size_of_OSCILLATOR_Initialize 0006             __end_of_OSCILLATOR_Initialize 0131  
                                   ?_main 0076                             __CFG_WDTE$OFF 0000  
                                   _T1CON 0018                                     i1l131 0017  
                                   i1l870 00F8                                     i1l880 0101  
                                   i1l872 00F9                                     i1l960 000A  
                                   i1l882 00CD                                     i1l874 00FB  
                                   i1l890 0113                                     i1l962 000F  
                                   i1l884 00D5                                     i1l876 00FD  
                                   i1l868 00F3                                     i1l964 0014  
                                   i1l886 00DC                                     i1l878 00FF  
                                   i1l958 0006                                     i1l888 0111  
                                   u12_20 00F8                                     u20_20 000A  
                                   u12_21 00F7                                     u20_21 0009  
                                   u13_20 00DC                                     u21_20 000F  
                                   u13_21 00DB                                     u21_21 000E  
                                   u22_20 0014                                     u22_21 0013  
                                   _TMR1H 0017                                     _TMR1L 0016  
                                   _TRISA 008C                                     _TRISB 008D  
                                   _TRISC 008E                          __end_of_TMR1_ISR 011E  
                          _WDT_Initialize 0131                   __end_of_TMR1_Initialize 00CD  
                                   pclath 000A                                     status 0003  
                                   wtemp0 007E                           _TMR1_WriteTimer 00F3  
                         __initialization 001B                              __end_of_main 00F3  
                          __CFG_LPBOR$OFF 0000               ?_INTERRUPT_InterruptManager 0076  
                                  ??_main 007A                    __end_of_WDT_Initialize 0135  
                                  _APFCON 011D                                    _ANSELA 018C  
                                  _ANSELB 018D                                    _ANSELC 018E  
                                  _BORCON 0116                                    _T1GCON 0019  
                 TMR1_WriteTimer@timerVal 0076                                    _OSCCON 0099  
                                  _WDTCON 0097                            __CFG_PWRTE$OFF 0000  
    __end_of_TMR1_DefaultInterruptHandler 0136     __size_of_TMR1_DefaultInterruptHandler 0001  
            _TMR1_DefaultInterruptHandler 0135                            __CFG_STVREN$ON 0000  
                         ?_WDT_Initialize 0076  TMR1_SetInterruptHandler@InterruptHandler 0078  
                 __end_of_TMR1_WriteTimer 0104                     __end_of_TMR1_CallBack 00E2  
                        ?_TMR1_Initialize 0076                         _SYSTEM_Initialize 0104  
                 __end_of__initialization 0021                        ?_SYSTEM_Initialize 0076  
                          __pcstackCOMMON 0076                       ??_SYSTEM_Initialize 007A  
                               ?_TMR1_ISR 0076             ?_TMR1_DefaultInterruptHandler 0076  
                          _OPTION_REGbits 0095                     __end_of_APP_LED_Tasks 009B  
               __end_of_SYSTEM_Initialize 0111                           __CFG_VCAPEN$OFF 0000  
                              __pnvCOMMON 007A                                __pmaintext 00E2  
                              ??_TMR1_ISR 0078                                __pintentry 0004  
                 __size_of_APP_LED_Tasks2 003B                                _appledData 0073  
              __end_of_APP_LED_Initialize 0125                          ?_TMR1_WriteTimer 0076  
                                 __ptext1 0104                                   __ptext2 0131  
                                 __ptext3 00B5                                   __ptext4 0125  
                                 __ptext5 009B                                   __ptext6 012B  
                                 __ptext7 0025                                   __ptext8 0060  
                                 __ptext9 011E            ??_TMR1_DefaultInterruptHandler 0076  
                               _T1CONbits 0018                     _OSCILLATOR_Initialize 012B  
       __size_of_TMR1_SetInterruptHandler 0006                  ??_PIN_MANAGER_Initialize 0078  
               ?_TMR1_SetInterruptHandler 0078                __size_of_SYSTEM_Initialize 000D  
                    end_of_initialization 0021                          ??_WDT_Initialize 0078  
                        __CFG_FOSC$INTOSC 0000                            _APP_LED_Tasks2 0025  
                       __size_of_TMR1_ISR 000D                    ?_OSCILLATOR_Initialize 0076  
                     start_initialization 001B           __size_of_PIN_MANAGER_Initialize 001A  
                __size_of_TMR1_Initialize 0018                    __end_of_APP_LED_Tasks2 0060  
                  __size_of_TMR1_CallBack 0015                               __pbssCOMMON 0070  
                               ___latbits 0003                                 __pnvBANK0 0020  
                      _APP_LED_Initialize 011E                    _PIN_MANAGER_Initialize 009B  
                         ?_APP_LED_Tasks2 0076          __end_of_TMR1_SetInterruptHandler 012B  
                  __size_of_APP_LED_Tasks 003B                       ?_APP_LED_Initialize 0076  
            ??_INTERRUPT_InterruptManager 0078                      ??_APP_LED_Initialize 0078  
                             _appledData2 0070                             _TMR1_CallBack 00CD  
                                _LATAbits 010C                                  _PIE1bits 0091  
                __size_of_TMR1_WriteTimer 0011       __size_of_INTERRUPT_InterruptManager 0015  
                                _PIR1bits 0011                                  _TMR1_ISR 0111  
                       ??_TMR1_Initialize 007A                             _APP_LED_Tasks 0060  
                          ?_TMR1_CallBack 0076                   ??_OSCILLATOR_Initialize 0078  
                _TMR1_SetInterruptHandler 0125                     _TMR1_InterruptHandler 0020  
                          ?_APP_LED_Tasks 0076                                  __ptext11 0111  
                                __ptext12 00F3                                  __ptext13 00CD  
                              _T1GCONbits 0019                                  __ptext14 0135  
                           __size_of_main 0011                                  int$flags 007E  
      __end_of_INTERRUPT_InterruptManager 0019                _INTERRUPT_InterruptManager 0004  
                       ??_TMR1_WriteTimer 0078                                _INTCONbits 000B  
                         ??_TMR1_CallBack 0076                   __size_of_WDT_Initialize 0004  
                                intlevel1 0000                   ?_PIN_MANAGER_Initialize 0076  
                        ??_APP_LED_Tasks2 0078                         __CFG_CLKOUTEN$OFF 0000  
                         ??_APP_LED_Tasks 0078            __end_of_PIN_MANAGER_Initialize 00B5  
                         _TMR1_Initialize 00B5  
