:020000040000FA
:04000000803119280A
:100008007E1480310B1F09280A2817282100111C8B
:100018000E280F2817282000111C13281428172829
:100028008131112180317E10090080311B28F001B7
:10003800F101F201F301F401F5017E102000803195
:10004800E2284C28F001F00A5F287208803AF8008C
:1000580080307802031D3228A3307102031C352832
:1000680036285F280230F8007808F000F101F20124
:100078005F28031022008C1C031403184428472807
:1000880022008C14492822008C102628F0015F28B1
:100098007008F800F9017908003A031954284A2829
:1000A8007808003A03192628013A03192928033A3F
:1000B80003193D284A2808008728F301F30A9A28DB
:1000C8007508803AF80080307802031D6D28FA30F0
:1000D8007402031C702871289A280230F8007808E6
:1000E800F300F401F5019A28031022000C1C0314F4
:1000F80003187F28822822000C14842822000C1060
:100108006128F3019A287308F800F9017908003A80
:1001180003198F2885287808003A03196128013ABD
:1001280003196428033A031978288528080022004F
:100138008C018D018E01FC3021008C00FF308D0078
:10014800FF308E00FC3023008E003F308D002C30B5
:100158008C00240090018D012100951722009D013B
:10016800080020009901F0309700603096001110C7
:100178001708FB001608FA00210011143530F800A2
:100188000130F900813125218031013020009800AB
:1001980008000130F4070030F53D0130F107003068
:1001A800F23D2000200821040319DB28DC28E1287F
:1001B80021088A0020080A008031080081310421C2
:1001C800803181311E2180318B170B1780316020DF
:1001D8008031803125208031EA288031192820009B
:1001E800181DF728F828FF281810770897007608B0
:1001F80096001814032977089700760896000800D7
:1002080080319B20813181312B2181318131312114
:1002180081318031B52081310800200011107B0820
:10022800F7007A08F6008031F32081318031CD2043
:1002380081310800F301F401F501F001F101F20147
:10024800080079082000A1007808A000080078308C
:10025800210099002200960108001630210097001D
:040268000800080082
:020000040001F9
:04000E00E4FFFFFF0D
:00000001FF
