

Microchip MPLAB XC8 Assembler V2.10 build 88905656 
                                                                                               Thu Feb 20 11:48:48 2020

Microchip MPLAB XC8 C Compiler v2.10 (Free license) build 20190730164152 Og1 
     1                           	processor	16F1518
     2                           	opt	pw 120
     3                           	opt	flic
     4                           	psect	nvCOMMON,global,class=COMMON,space=1,delta=1
     5                           	psect	nvBANK0,global,class=BANK0,space=1,delta=1
     6                           	psect	cinit,global,class=CODE,merge=1,delta=2
     7                           	psect	bssBANK0,global,class=BANK0,space=1,delta=1
     8                           	psect	cstackCOMMON,global,class=COMMON,space=1,delta=1
     9                           	psect	cstackBANK0,global,class=BANK0,space=1,delta=1
    10                           	psect	maintext,global,class=CODE,merge=1,split=1,delta=2
    11                           	psect	text1,local,class=CODE,merge=1,delta=2
    12                           	psect	text2,local,class=CODE,merge=1,delta=2
    13                           	psect	text3,local,class=CODE,merge=1,delta=2
    14                           	psect	text4,local,class=CODE,merge=1,delta=2
    15                           	psect	text5,local,class=CODE,merge=1,delta=2
    16                           	psect	text6,local,class=CODE,merge=1,delta=2
    17                           	psect	text7,local,class=CODE,merge=1,delta=2
    18                           	psect	text8,local,class=CODE,merge=1,delta=2
    19                           	psect	intentry,global,class=CODE,delta=2
    20                           	psect	text10,local,class=CODE,merge=1,delta=2
    21                           	psect	text11,local,class=CODE,merge=1,delta=2
    22                           	psect	text12,local,class=CODE,merge=1,delta=2
    23                           	psect	text13,local,class=CODE,merge=1,delta=2
    24                           	dabs	1,0x7E,2
    25  0000                     
    26                           ; Version 2.10
    27                           ; Generated 31/07/2019 GMT
    28                           ; 
    29                           ; Copyright © 2019, Microchip Technology Inc. and its subsidiaries ("Microchip")
    30                           ; All rights reserved.
    31                           ; 
    32                           ; This software is developed by Microchip Technology Inc. and its subsidiaries ("Microch
      +                          ip").
    33                           ; 
    34                           ; Redistribution and use in source and binary forms, with or without modification, are
    35                           ; permitted provided that the following conditions are met:
    36                           ; 
    37                           ;     1. Redistributions of source code must retain the above copyright notice, this lis
      +                          t of
    38                           ;        conditions and the following disclaimer.
    39                           ; 
    40                           ;     2. Redistributions in binary form must reproduce the above copyright notice, this 
      +                          list
    41                           ;        of conditions and the following disclaimer in the documentation and/or other
    42                           ;        materials provided with the distribution.
    43                           ; 
    44                           ;     3. Microchip's name may not be used to endorse or promote products derived from th
      +                          is
    45                           ;        software without specific prior written permission.
    46                           ; 
    47                           ; THIS SOFTWARE IS PROVIDED BY MICROCHIP "AS IS" AND ANY EXPRESS OR IMPLIED WARRANTIES,
    48                           ; INCLUDING, BUT NOT LIMITED TO, THE IMPLIED WARRANTIES OF MERCHANTABILITY AND FITNESS F
      +                          OR
    49                           ; PURPOSE ARE DISCLAIMED.  IN NO EVENT SHALL MICROCHIP BE LIABLE FOR ANY DIRECT, INDIREC
      +                          T,
    50                           ; INCIDENTAL, SPECIAL, EXEMPLARY, OR CONSEQUENTIAL DAMAGES (INCLUDING BUT NOT LIMITED TO
    51                           ; PROCUREMENT OF SUBSTITUTE GOODS OR SERVICES; LOSS OF USE, DATA OR PROFITS; OR BUSINESS
    52                           ; INTERRUPTION) HOWSOEVER CAUSED AND ON ANY THEORY OF LIABILITY, WHETHER IN CONTRACT, ST
      +                          RICT
    53                           ; LIABILITY, OR TORT (INCLUDING NEGLIGENCE OR OTHERWISE) ARISING IN ANY WAY OUT OF THE U
      +                          SE OF
    54                           ; THIS SOFTWARE, EVEN IF ADVISED OF THE POSSIBILITY OF SUCH DAMAGE.
    55                           ; 
    56                           ; 
    57                           ; Code-generator required, PIC16F1518 Definitions
    58                           ; 
    59                           ; SFR Addresses
    60  0000                     	;# 
    61  0001                     	;# 
    62  0002                     	;# 
    63  0003                     	;# 
    64  0004                     	;# 
    65  0005                     	;# 
    66  0006                     	;# 
    67  0007                     	;# 
    68  0008                     	;# 
    69  0009                     	;# 
    70  000A                     	;# 
    71  000B                     	;# 
    72  000C                     	;# 
    73  000D                     	;# 
    74  000E                     	;# 
    75  0010                     	;# 
    76  0011                     	;# 
    77  0012                     	;# 
    78  0015                     	;# 
    79  0016                     	;# 
    80  0016                     	;# 
    81  0017                     	;# 
    82  0018                     	;# 
    83  0019                     	;# 
    84  001A                     	;# 
    85  001B                     	;# 
    86  001C                     	;# 
    87  008C                     	;# 
    88  008D                     	;# 
    89  008E                     	;# 
    90  0090                     	;# 
    91  0091                     	;# 
    92  0092                     	;# 
    93  0095                     	;# 
    94  0096                     	;# 
    95  0097                     	;# 
    96  0099                     	;# 
    97  009A                     	;# 
    98  009B                     	;# 
    99  009B                     	;# 
   100  009C                     	;# 
   101  009D                     	;# 
   102  009E                     	;# 
   103  010C                     	;# 
   104  010D                     	;# 
   105  010E                     	;# 
   106  0116                     	;# 
   107  0117                     	;# 
   108  011D                     	;# 
   109  018C                     	;# 
   110  018D                     	;# 
   111  018E                     	;# 
   112  0191                     	;# 
   113  0191                     	;# 
   114  0192                     	;# 
   115  0193                     	;# 
   116  0193                     	;# 
   117  0194                     	;# 
   118  0195                     	;# 
   119  0196                     	;# 
   120  0197                     	;# 
   121  0199                     	;# 
   122  019A                     	;# 
   123  019B                     	;# 
   124  019B                     	;# 
   125  019B                     	;# 
   126  019B                     	;# 
   127  019C                     	;# 
   128  019C                     	;# 
   129  019D                     	;# 
   130  019E                     	;# 
   131  019F                     	;# 
   132  020D                     	;# 
   133  0210                     	;# 
   134  0211                     	;# 
   135  0211                     	;# 
   136  0212                     	;# 
   137  0212                     	;# 
   138  0213                     	;# 
   139  0213                     	;# 
   140  0214                     	;# 
   141  0214                     	;# 
   142  0215                     	;# 
   143  0215                     	;# 
   144  0215                     	;# 
   145  0216                     	;# 
   146  0216                     	;# 
   147  0217                     	;# 
   148  0217                     	;# 
   149  0291                     	;# 
   150  0291                     	;# 
   151  0292                     	;# 
   152  0293                     	;# 
   153  0298                     	;# 
   154  0298                     	;# 
   155  0299                     	;# 
   156  029A                     	;# 
   157  0394                     	;# 
   158  0395                     	;# 
   159  0396                     	;# 
   160  0FE4                     	;# 
   161  0FE5                     	;# 
   162  0FE6                     	;# 
   163  0FE7                     	;# 
   164  0FE8                     	;# 
   165  0FE9                     	;# 
   166  0FEA                     	;# 
   167  0FEB                     	;# 
   168  0FED                     	;# 
   169  0FEE                     	;# 
   170  0FEF                     	;# 
   171  0000                     	;# 
   172  0001                     	;# 
   173  0002                     	;# 
   174  0003                     	;# 
   175  0004                     	;# 
   176  0005                     	;# 
   177  0006                     	;# 
   178  0007                     	;# 
   179  0008                     	;# 
   180  0009                     	;# 
   181  000A                     	;# 
   182  000B                     	;# 
   183  000C                     	;# 
   184  000D                     	;# 
   185  000E                     	;# 
   186  0010                     	;# 
   187  0011                     	;# 
   188  0012                     	;# 
   189  0015                     	;# 
   190  0016                     	;# 
   191  0016                     	;# 
   192  0017                     	;# 
   193  0018                     	;# 
   194  0019                     	;# 
   195  001A                     	;# 
   196  001B                     	;# 
   197  001C                     	;# 
   198  008C                     	;# 
   199  008D                     	;# 
   200  008E                     	;# 
   201  0090                     	;# 
   202  0091                     	;# 
   203  0092                     	;# 
   204  0095                     	;# 
   205  0096                     	;# 
   206  0097                     	;# 
   207  0099                     	;# 
   208  009A                     	;# 
   209  009B                     	;# 
   210  009B                     	;# 
   211  009C                     	;# 
   212  009D                     	;# 
   213  009E                     	;# 
   214  010C                     	;# 
   215  010D                     	;# 
   216  010E                     	;# 
   217  0116                     	;# 
   218  0117                     	;# 
   219  011D                     	;# 
   220  018C                     	;# 
   221  018D                     	;# 
   222  018E                     	;# 
   223  0191                     	;# 
   224  0191                     	;# 
   225  0192                     	;# 
   226  0193                     	;# 
   227  0193                     	;# 
   228  0194                     	;# 
   229  0195                     	;# 
   230  0196                     	;# 
   231  0197                     	;# 
   232  0199                     	;# 
   233  019A                     	;# 
   234  019B                     	;# 
   235  019B                     	;# 
   236  019B                     	;# 
   237  019B                     	;# 
   238  019C                     	;# 
   239  019C                     	;# 
   240  019D                     	;# 
   241  019E                     	;# 
   242  019F                     	;# 
   243  020D                     	;# 
   244  0210                     	;# 
   245  0211                     	;# 
   246  0211                     	;# 
   247  0212                     	;# 
   248  0212                     	;# 
   249  0213                     	;# 
   250  0213                     	;# 
   251  0214                     	;# 
   252  0214                     	;# 
   253  0215                     	;# 
   254  0215                     	;# 
   255  0215                     	;# 
   256  0216                     	;# 
   257  0216                     	;# 
   258  0217                     	;# 
   259  0217                     	;# 
   260  0291                     	;# 
   261  0291                     	;# 
   262  0292                     	;# 
   263  0293                     	;# 
   264  0298                     	;# 
   265  0298                     	;# 
   266  0299                     	;# 
   267  029A                     	;# 
   268  0394                     	;# 
   269  0395                     	;# 
   270  0396                     	;# 
   271  0FE4                     	;# 
   272  0FE5                     	;# 
   273  0FE6                     	;# 
   274  0FE7                     	;# 
   275  0FE8                     	;# 
   276  0FE9                     	;# 
   277  0FEA                     	;# 
   278  0FEB                     	;# 
   279  0FED                     	;# 
   280  0FEE                     	;# 
   281  0FEF                     	;# 
   282  0000                     	;# 
   283  0001                     	;# 
   284  0002                     	;# 
   285  0003                     	;# 
   286  0004                     	;# 
   287  0005                     	;# 
   288  0006                     	;# 
   289  0007                     	;# 
   290  0008                     	;# 
   291  0009                     	;# 
   292  000A                     	;# 
   293  000B                     	;# 
   294  000C                     	;# 
   295  000D                     	;# 
   296  000E                     	;# 
   297  0010                     	;# 
   298  0011                     	;# 
   299  0012                     	;# 
   300  0015                     	;# 
   301  0016                     	;# 
   302  0016                     	;# 
   303  0017                     	;# 
   304  0018                     	;# 
   305  0019                     	;# 
   306  001A                     	;# 
   307  001B                     	;# 
   308  001C                     	;# 
   309  008C                     	;# 
   310  008D                     	;# 
   311  008E                     	;# 
   312  0090                     	;# 
   313  0091                     	;# 
   314  0092                     	;# 
   315  0095                     	;# 
   316  0096                     	;# 
   317  0097                     	;# 
   318  0099                     	;# 
   319  009A                     	;# 
   320  009B                     	;# 
   321  009B                     	;# 
   322  009C                     	;# 
   323  009D                     	;# 
   324  009E                     	;# 
   325  010C                     	;# 
   326  010D                     	;# 
   327  010E                     	;# 
   328  0116                     	;# 
   329  0117                     	;# 
   330  011D                     	;# 
   331  018C                     	;# 
   332  018D                     	;# 
   333  018E                     	;# 
   334  0191                     	;# 
   335  0191                     	;# 
   336  0192                     	;# 
   337  0193                     	;# 
   338  0193                     	;# 
   339  0194                     	;# 
   340  0195                     	;# 
   341  0196                     	;# 
   342  0197                     	;# 
   343  0199                     	;# 
   344  019A                     	;# 
   345  019B                     	;# 
   346  019B                     	;# 
   347  019B                     	;# 
   348  019B                     	;# 
   349  019C                     	;# 
   350  019C                     	;# 
   351  019D                     	;# 
   352  019E                     	;# 
   353  019F                     	;# 
   354  020D                     	;# 
   355  0210                     	;# 
   356  0211                     	;# 
   357  0211                     	;# 
   358  0212                     	;# 
   359  0212                     	;# 
   360  0213                     	;# 
   361  0213                     	;# 
   362  0214                     	;# 
   363  0214                     	;# 
   364  0215                     	;# 
   365  0215                     	;# 
   366  0215                     	;# 
   367  0216                     	;# 
   368  0216                     	;# 
   369  0217                     	;# 
   370  0217                     	;# 
   371  0291                     	;# 
   372  0291                     	;# 
   373  0292                     	;# 
   374  0293                     	;# 
   375  0298                     	;# 
   376  0298                     	;# 
   377  0299                     	;# 
   378  029A                     	;# 
   379  0394                     	;# 
   380  0395                     	;# 
   381  0396                     	;# 
   382  0FE4                     	;# 
   383  0FE5                     	;# 
   384  0FE6                     	;# 
   385  0FE7                     	;# 
   386  0FE8                     	;# 
   387  0FE9                     	;# 
   388  0FEA                     	;# 
   389  0FEB                     	;# 
   390  0FED                     	;# 
   391  0FEE                     	;# 
   392  0FEF                     	;# 
   393  0000                     	;# 
   394  0001                     	;# 
   395  0002                     	;# 
   396  0003                     	;# 
   397  0004                     	;# 
   398  0005                     	;# 
   399  0006                     	;# 
   400  0007                     	;# 
   401  0008                     	;# 
   402  0009                     	;# 
   403  000A                     	;# 
   404  000B                     	;# 
   405  000C                     	;# 
   406  000D                     	;# 
   407  000E                     	;# 
   408  0010                     	;# 
   409  0011                     	;# 
   410  0012                     	;# 
   411  0015                     	;# 
   412  0016                     	;# 
   413  0016                     	;# 
   414  0017                     	;# 
   415  0018                     	;# 
   416  0019                     	;# 
   417  001A                     	;# 
   418  001B                     	;# 
   419  001C                     	;# 
   420  008C                     	;# 
   421  008D                     	;# 
   422  008E                     	;# 
   423  0090                     	;# 
   424  0091                     	;# 
   425  0092                     	;# 
   426  0095                     	;# 
   427  0096                     	;# 
   428  0097                     	;# 
   429  0099                     	;# 
   430  009A                     	;# 
   431  009B                     	;# 
   432  009B                     	;# 
   433  009C                     	;# 
   434  009D                     	;# 
   435  009E                     	;# 
   436  010C                     	;# 
   437  010D                     	;# 
   438  010E                     	;# 
   439  0116                     	;# 
   440  0117                     	;# 
   441  011D                     	;# 
   442  018C                     	;# 
   443  018D                     	;# 
   444  018E                     	;# 
   445  0191                     	;# 
   446  0191                     	;# 
   447  0192                     	;# 
   448  0193                     	;# 
   449  0193                     	;# 
   450  0194                     	;# 
   451  0195                     	;# 
   452  0196                     	;# 
   453  0197                     	;# 
   454  0199                     	;# 
   455  019A                     	;# 
   456  019B                     	;# 
   457  019B                     	;# 
   458  019B                     	;# 
   459  019B                     	;# 
   460  019C                     	;# 
   461  019C                     	;# 
   462  019D                     	;# 
   463  019E                     	;# 
   464  019F                     	;# 
   465  020D                     	;# 
   466  0210                     	;# 
   467  0211                     	;# 
   468  0211                     	;# 
   469  0212                     	;# 
   470  0212                     	;# 
   471  0213                     	;# 
   472  0213                     	;# 
   473  0214                     	;# 
   474  0214                     	;# 
   475  0215                     	;# 
   476  0215                     	;# 
   477  0215                     	;# 
   478  0216                     	;# 
   479  0216                     	;# 
   480  0217                     	;# 
   481  0217                     	;# 
   482  0291                     	;# 
   483  0291                     	;# 
   484  0292                     	;# 
   485  0293                     	;# 
   486  0298                     	;# 
   487  0298                     	;# 
   488  0299                     	;# 
   489  029A                     	;# 
   490  0394                     	;# 
   491  0395                     	;# 
   492  0396                     	;# 
   493  0FE4                     	;# 
   494  0FE5                     	;# 
   495  0FE6                     	;# 
   496  0FE7                     	;# 
   497  0FE8                     	;# 
   498  0FE9                     	;# 
   499  0FEA                     	;# 
   500  0FEB                     	;# 
   501  0FED                     	;# 
   502  0FEE                     	;# 
   503  0FEF                     	;# 
   504  0000                     	;# 
   505  0001                     	;# 
   506  0002                     	;# 
   507  0003                     	;# 
   508  0004                     	;# 
   509  0005                     	;# 
   510  0006                     	;# 
   511  0007                     	;# 
   512  0008                     	;# 
   513  0009                     	;# 
   514  000A                     	;# 
   515  000B                     	;# 
   516  000C                     	;# 
   517  000D                     	;# 
   518  000E                     	;# 
   519  0010                     	;# 
   520  0011                     	;# 
   521  0012                     	;# 
   522  0015                     	;# 
   523  0016                     	;# 
   524  0016                     	;# 
   525  0017                     	;# 
   526  0018                     	;# 
   527  0019                     	;# 
   528  001A                     	;# 
   529  001B                     	;# 
   530  001C                     	;# 
   531  008C                     	;# 
   532  008D                     	;# 
   533  008E                     	;# 
   534  0090                     	;# 
   535  0091                     	;# 
   536  0092                     	;# 
   537  0095                     	;# 
   538  0096                     	;# 
   539  0097                     	;# 
   540  0099                     	;# 
   541  009A                     	;# 
   542  009B                     	;# 
   543  009B                     	;# 
   544  009C                     	;# 
   545  009D                     	;# 
   546  009E                     	;# 
   547  010C                     	;# 
   548  010D                     	;# 
   549  010E                     	;# 
   550  0116                     	;# 
   551  0117                     	;# 
   552  011D                     	;# 
   553  018C                     	;# 
   554  018D                     	;# 
   555  018E                     	;# 
   556  0191                     	;# 
   557  0191                     	;# 
   558  0192                     	;# 
   559  0193                     	;# 
   560  0193                     	;# 
   561  0194                     	;# 
   562  0195                     	;# 
   563  0196                     	;# 
   564  0197                     	;# 
   565  0199                     	;# 
   566  019A                     	;# 
   567  019B                     	;# 
   568  019B                     	;# 
   569  019B                     	;# 
   570  019B                     	;# 
   571  019C                     	;# 
   572  019C                     	;# 
   573  019D                     	;# 
   574  019E                     	;# 
   575  019F                     	;# 
   576  020D                     	;# 
   577  0210                     	;# 
   578  0211                     	;# 
   579  0211                     	;# 
   580  0212                     	;# 
   581  0212                     	;# 
   582  0213                     	;# 
   583  0213                     	;# 
   584  0214                     	;# 
   585  0214                     	;# 
   586  0215                     	;# 
   587  0215                     	;# 
   588  0215                     	;# 
   589  0216                     	;# 
   590  0216                     	;# 
   591  0217                     	;# 
   592  0217                     	;# 
   593  0291                     	;# 
   594  0291                     	;# 
   595  0292                     	;# 
   596  0293                     	;# 
   597  0298                     	;# 
   598  0298                     	;# 
   599  0299                     	;# 
   600  029A                     	;# 
   601  0394                     	;# 
   602  0395                     	;# 
   603  0396                     	;# 
   604  0FE4                     	;# 
   605  0FE5                     	;# 
   606  0FE6                     	;# 
   607  0FE7                     	;# 
   608  0FE8                     	;# 
   609  0FE9                     	;# 
   610  0FEA                     	;# 
   611  0FEB                     	;# 
   612  0FED                     	;# 
   613  0FEE                     	;# 
   614  0FEF                     	;# 
   615                           
   616                           	psect	nvCOMMON
   617  0079                     __pnvCOMMON:	
   618  0079                     _timer1ReloadVal:	
   619  0079                     	ds	2
   620                           
   621                           	psect	nvBANK0
   622  002A                     __pnvBANK0:	
   623  002A                     _TMR1_InterruptHandler:	
   624  002A                     	ds	2
   625  000B                     _INTCONbits	set	11
   626  0019                     _T1GCONbits	set	25
   627  0018                     _T1CONbits	set	24
   628  0018                     _T1CON	set	24
   629  0011                     _PIR1bits	set	17
   630  0016                     _TMR1L	set	22
   631  0017                     _TMR1H	set	23
   632  0019                     _T1GCON	set	25
   633  0095                     _OPTION_REGbits	set	149
   634  008E                     _TRISC	set	142
   635  008D                     _TRISB	set	141
   636  008C                     _TRISA	set	140
   637  0097                     _WDTCON	set	151
   638  0099                     _OSCCON	set	153
   639  0091                     _PIE1bits	set	145
   640  010C                     _LATAbits	set	268
   641  011D                     _APFCON	set	285
   642  010E                     _LATC	set	270
   643  010D                     _LATB	set	269
   644  010C                     _LATA	set	268
   645  0116                     _BORCON	set	278
   646  018C                     _ANSELA	set	396
   647  018D                     _ANSELB	set	397
   648  018E                     _ANSELC	set	398
   649  020D                     _WPUB	set	525
   650  0210                     _WPUE	set	528
   651                           
   652                           ; #config settings
   653  0000                     
   654                           	psect	cinit
   655  001B                     start_initialization:	
   656  001B                     __initialization:	
   657                           
   658                           ; Clear objects allocated to BANK0
   659  001B  0020               	movlb	0	; select bank0
   660  001C  01A0               	clrf	__pbssBANK0& (0+127)
   661  001D  01A1               	clrf	(__pbssBANK0+1)& (0+127)
   662  001E  01A2               	clrf	(__pbssBANK0+2)& (0+127)
   663  001F  01A3               	clrf	(__pbssBANK0+3)& (0+127)
   664  0020  01A4               	clrf	(__pbssBANK0+4)& (0+127)
   665  0021  01A5               	clrf	(__pbssBANK0+5)& (0+127)
   666  0022  01A6               	clrf	(__pbssBANK0+6)& (0+127)
   667  0023  01A7               	clrf	(__pbssBANK0+7)& (0+127)
   668  0024  01A8               	clrf	(__pbssBANK0+8)& (0+127)
   669  0025  01A9               	clrf	(__pbssBANK0+9)& (0+127)
   670  0026                     end_of_initialization:	
   671                           ;End of C runtime variable initialization code
   672                           
   673  0026                     __end_of__initialization:	
   674  0026  107E               	bcf	int$flags,0	;clear compiler interrupt flag (level 1)
   675  0027  0020               	movlb	0
   676  0028  3180  2868         	ljmp	_main	;jump to C main() function
   677                           
   678                           	psect	bssBANK0
   679  0020                     __pbssBANK0:	
   680  0020                     _appledData2:	
   681  0020                     	ds	5
   682  0025                     _appledData1:	
   683  0025                     	ds	5
   684                           
   685                           	psect	cstackCOMMON
   686  0070                     __pcstackCOMMON:	
   687  0070                     ?_TMR1_DefaultInterruptHandler:	
   688  0070                     ??_TMR1_DefaultInterruptHandler:	
   689                           ; 1 bytes @ 0x0
   690                           
   691  0070                     ?_TMR1_CallBack:	
   692                           ; 1 bytes @ 0x0
   693                           
   694  0070                     ??_TMR1_CallBack:	
   695                           ; 1 bytes @ 0x0
   696                           
   697  0070                     ?_PIN_MANAGER_Initialize:	
   698                           ; 1 bytes @ 0x0
   699                           
   700  0070                     ?_OSCILLATOR_Initialize:	
   701                           ; 1 bytes @ 0x0
   702                           
   703  0070                     ?_WDT_Initialize:	
   704                           ; 1 bytes @ 0x0
   705                           
   706  0070                     ?_TMR1_Initialize:	
   707                           ; 1 bytes @ 0x0
   708                           
   709  0070                     ?_TMR1_WriteTimer:	
   710                           ; 1 bytes @ 0x0
   711                           
   712  0070                     ?_TMR1_ISR:	
   713                           ; 1 bytes @ 0x0
   714                           
   715  0070                     ?_INTERRUPT_InterruptManager:	
   716                           ; 1 bytes @ 0x0
   717                           
   718  0070                     ?_SYSTEM_Initialize:	
   719                           ; 1 bytes @ 0x0
   720                           
   721  0070                     ?_APP_LED_Initialize:	
   722                           ; 1 bytes @ 0x0
   723                           
   724  0070                     ?_main:	
   725                           ; 1 bytes @ 0x0
   726                           
   727  0070                     TMR1_WriteTimer@timerVal:	
   728                           ; 1 bytes @ 0x0
   729                           
   730                           
   731                           ; 2 bytes @ 0x0
   732  0070                     	ds	2
   733  0072                     ?_TMR1_SetInterruptHandler:	
   734  0072                     ??_PIN_MANAGER_Initialize:	
   735                           ; 1 bytes @ 0x2
   736                           
   737  0072                     ??_OSCILLATOR_Initialize:	
   738                           ; 1 bytes @ 0x2
   739                           
   740  0072                     ??_WDT_Initialize:	
   741                           ; 1 bytes @ 0x2
   742                           
   743  0072                     ??_TMR1_WriteTimer:	
   744                           ; 1 bytes @ 0x2
   745                           
   746  0072                     ??_TMR1_ISR:	
   747                           ; 1 bytes @ 0x2
   748                           
   749  0072                     ??_INTERRUPT_InterruptManager:	
   750                           ; 1 bytes @ 0x2
   751                           
   752  0072                     ??_APP_LED_Initialize:	
   753                           ; 1 bytes @ 0x2
   754                           
   755  0072                     ?_APP_LED_Tasks:	
   756                           ; 1 bytes @ 0x2
   757                           
   758  0072                     TMR1_SetInterruptHandler@InterruptHandler:	
   759                           ; 1 bytes @ 0x2
   760                           
   761  0072                     APP_LED_Tasks@appledData:	
   762                           ; 2 bytes @ 0x2
   763                           
   764                           
   765                           ; 5 bytes @ 0x2
   766  0072                     	ds	2
   767  0074                     ??_TMR1_SetInterruptHandler:	
   768  0074                     ??_TMR1_Initialize:	
   769                           ; 1 bytes @ 0x4
   770                           
   771  0074                     ??_SYSTEM_Initialize:	
   772                           ; 1 bytes @ 0x4
   773                           
   774                           
   775                           ; 1 bytes @ 0x4
   776  0074                     	ds	3
   777  0077                     APP_LED_Tasks@maxTime:	
   778                           
   779                           ; 2 bytes @ 0x7
   780  0077                     	ds	2
   781  0079                     ??_main:	
   782                           
   783                           	psect	cstackBANK0
   784  002C                     __pcstackBANK0:	
   785                           ; 1 bytes @ 0x9
   786                           
   787  002C                     ??_APP_LED_Tasks:	
   788                           
   789                           ; 1 bytes @ 0x0
   790  002C                     	ds	2
   791                           
   792                           	psect	maintext
   793  0068                     __pmaintext:	
   794 ;;
   795 ;;Main: autosize = 0, tempsize = 0, incstack = 0, save=0
   796 ;;
   797 ;; *************** function _main *****************
   798 ;; Defined at:
   799 ;;		line 50 in file "main.c"
   800 ;; Parameters:    Size  Location     Type
   801 ;;		None
   802 ;; Auto vars:     Size  Location     Type
   803 ;;  time            2    0        int 
   804 ;; Return value:  Size  Location     Type
   805 ;;                  1    wreg      void 
   806 ;; Registers used:
   807 ;;		wreg, fsr0l, fsr0h, fsr1l, fsr1h, status,2, status,0, pclath, cstack
   808 ;; Tracked objects:
   809 ;;		On entry : B1F/0
   810 ;;		On exit  : 0/0
   811 ;;		Unchanged: 0/0
   812 ;; Data sizes:     COMMON   BANK0   BANK1   BANK2   BANK3   BANK4   BANK5   BANK6   BANK7   BANK8   BANK9  BANK10  BANK1
      +1  BANK12
   813 ;;      Params:         0       0       0       0       0       0       0       0       0       0       0       0       
      +0       0
   814 ;;      Locals:         0       2       0       0       0       0       0       0       0       0       0       0       
      +0       0
   815 ;;      Temps:          0       0       0       0       0       0       0       0       0       0       0       0       
      +0       0
   816 ;;      Totals:         0       2       0       0       0       0       0       0       0       0       0       0       
      +0       0
   817 ;;Total ram usage:        2 bytes
   818 ;; Hardware stack levels required when called:    7
   819 ;; This function calls:
   820 ;;		_APP_LED_Initialize
   821 ;;		_APP_LED_Tasks
   822 ;;		_SYSTEM_Initialize
   823 ;; This function is called by:
   824 ;;		Startup code after reset
   825 ;; This function uses a non-reentrant model
   826 ;;
   827                           
   828                           
   829                           ;psect for function _main
   830  0068                     _main:	
   831  0068                     l1050:	
   832                           ;incstack = 0
   833                           ; Regs used in _main: [wreg-fsr1h+status,2+status,0+pclath+cstack]
   834                           
   835                           
   836                           ;main.c: 53:     SYSTEM_Initialize();
   837  0068  3180  20F4  3180   	fcall	_SYSTEM_Initialize
   838                           
   839                           ;main.c: 54:     APP_LED_Initialize();
   840  006B  3180  20E4  3180   	fcall	_APP_LED_Initialize
   841  006E                     l1052:	
   842  006E                     l1054:	
   843                           
   844                           ;main.c: 61:     (INTCONbits.GIE = 1);
   845  006E  178B               	bsf	11,7	;volatile
   846  006F                     l1056:	
   847                           
   848                           ;main.c: 64:     (INTCONbits.PEIE = 1);
   849  006F  170B               	bsf	11,6	;volatile
   850  0070                     l1058:	
   851                           
   852                           ;main.c: 73:     {;main.c: 75:         APP_LED_Tasks(appledData1, 250);
   853  0070  3025               	movlw	low _appledData1
   854  0071  0086               	movwf	6
   855  0072  3000               	movlw	high _appledData1
   856  0073  0087               	movwf	7
   857  0074  3072               	movlw	low APP_LED_Tasks@appledData
   858  0075  0084               	movwf	4
   859  0076  3000               	movlw	high APP_LED_Tasks@appledData
   860  0077  0085               	movwf	5
   861  0078  3F40               	moviw [0]fsr1
   862  0079  3F80               	movwi [0]fsr0
   863  007A  3F41               	moviw [1]fsr1
   864  007B  3F81               	movwi [1]fsr0
   865  007C  3F42               	moviw [2]fsr1
   866  007D  3F82               	movwi [2]fsr0
   867  007E  3F43               	moviw [3]fsr1
   868  007F  3F83               	movwi [3]fsr0
   869  0080  3F44               	moviw [4]fsr1
   870  0081  3F84               	movwi [4]fsr0
   871  0082  30FA               	movlw	250
   872  0083  00F7               	movwf	APP_LED_Tasks@maxTime
   873  0084  3000               	movlw	0
   874  0085  00F8               	movwf	APP_LED_Tasks@maxTime+1
   875  0086  3180  202A  3180   	fcall	_APP_LED_Tasks
   876  0089  2870               	goto	l1058
   877  008A  3180  2819         	ljmp	start
   878  008C                     __end_of_main:	
   879                           
   880                           	psect	text1
   881  00F4                     __ptext1:	
   882 ;; *************** function _SYSTEM_Initialize *****************
   883 ;; Defined at:
   884 ;;		line 50 in file "mcc_generated_files/mcc.c"
   885 ;; Parameters:    Size  Location     Type
   886 ;;		None
   887 ;; Auto vars:     Size  Location     Type
   888 ;;		None
   889 ;; Return value:  Size  Location     Type
   890 ;;                  1    wreg      void 
   891 ;; Registers used:
   892 ;;		wreg, status,2, status,0, pclath, cstack
   893 ;; Tracked objects:
   894 ;;		On entry : 0/0
   895 ;;		On exit  : 0/0
   896 ;;		Unchanged: 0/0
   897 ;; Data sizes:     COMMON   BANK0   BANK1   BANK2   BANK3   BANK4   BANK5   BANK6   BANK7   BANK8   BANK9  BANK10  BANK1
      +1  BANK12
   898 ;;      Params:         0       0       0       0       0       0       0       0       0       0       0       0       
      +0       0
   899 ;;      Locals:         0       0       0       0       0       0       0       0       0       0       0       0       
      +0       0
   900 ;;      Temps:          0       0       0       0       0       0       0       0       0       0       0       0       
      +0       0
   901 ;;      Totals:         0       0       0       0       0       0       0       0       0       0       0       0       
      +0       0
   902 ;;Total ram usage:        0 bytes
   903 ;; Hardware stack levels used:    1
   904 ;; Hardware stack levels required when called:    6
   905 ;; This function calls:
   906 ;;		_OSCILLATOR_Initialize
   907 ;;		_PIN_MANAGER_Initialize
   908 ;;		_TMR1_Initialize
   909 ;;		_WDT_Initialize
   910 ;; This function is called by:
   911 ;;		_main
   912 ;; This function uses a non-reentrant model
   913 ;;
   914                           
   915                           
   916                           ;psect for function _SYSTEM_Initialize
   917  00F4                     _SYSTEM_Initialize:	
   918  00F4                     l936:	
   919                           ;incstack = 0
   920                           ; Regs used in _SYSTEM_Initialize: [wreg+status,2+status,0+pclath+cstack]
   921                           
   922                           
   923                           ;mcc_generated_files/mcc.c: 53:     PIN_MANAGER_Initialize();
   924  00F4  3180  208C  3180   	fcall	_PIN_MANAGER_Initialize
   925                           
   926                           ;mcc_generated_files/mcc.c: 54:     OSCILLATOR_Initialize();
   927  00F7  3181  2114  3180   	fcall	_OSCILLATOR_Initialize
   928                           
   929                           ;mcc_generated_files/mcc.c: 55:     WDT_Initialize();
   930  00FA  3181  211A  3180   	fcall	_WDT_Initialize
   931                           
   932                           ;mcc_generated_files/mcc.c: 56:     TMR1_Initialize();
   933  00FD  3180  20A6  3180   	fcall	_TMR1_Initialize
   934  0100                     l103:	
   935  0100  0008               	return
   936  0101                     __end_of_SYSTEM_Initialize:	
   937                           
   938                           	psect	text2
   939  011A                     __ptext2:	
   940 ;; *************** function _WDT_Initialize *****************
   941 ;; Defined at:
   942 ;;		line 67 in file "mcc_generated_files/mcc.c"
   943 ;; Parameters:    Size  Location     Type
   944 ;;		None
   945 ;; Auto vars:     Size  Location     Type
   946 ;;		None
   947 ;; Return value:  Size  Location     Type
   948 ;;                  1    wreg      void 
   949 ;; Registers used:
   950 ;;		wreg
   951 ;; Tracked objects:
   952 ;;		On entry : 0/0
   953 ;;		On exit  : 0/0
   954 ;;		Unchanged: 0/0
   955 ;; Data sizes:     COMMON   BANK0   BANK1   BANK2   BANK3   BANK4   BANK5   BANK6   BANK7   BANK8   BANK9  BANK10  BANK1
      +1  BANK12
   956 ;;      Params:         0       0       0       0       0       0       0       0       0       0       0       0       
      +0       0
   957 ;;      Locals:         0       0       0       0       0       0       0       0       0       0       0       0       
      +0       0
   958 ;;      Temps:          0       0       0       0       0       0       0       0       0       0       0       0       
      +0       0
   959 ;;      Totals:         0       0       0       0       0       0       0       0       0       0       0       0       
      +0       0
   960 ;;Total ram usage:        0 bytes
   961 ;; Hardware stack levels used:    1
   962 ;; Hardware stack levels required when called:    4
   963 ;; This function calls:
   964 ;;		Nothing
   965 ;; This function is called by:
   966 ;;		_SYSTEM_Initialize
   967 ;; This function uses a non-reentrant model
   968 ;;
   969                           
   970                           
   971                           ;psect for function _WDT_Initialize
   972  011A                     _WDT_Initialize:	
   973  011A                     l930:	
   974                           ;incstack = 0
   975                           ; Regs used in _WDT_Initialize: [wreg]
   976                           
   977                           
   978                           ;mcc_generated_files/mcc.c: 70:     WDTCON = 0x16;
   979  011A  3016               	movlw	22
   980  011B  0021               	movlb	1	; select bank1
   981  011C  0097               	movwf	23	;volatile
   982  011D                     l109:	
   983  011D  0008               	return
   984  011E                     __end_of_WDT_Initialize:	
   985                           
   986                           	psect	text3
   987  00A6                     __ptext3:	
   988 ;; *************** function _TMR1_Initialize *****************
   989 ;; Defined at:
   990 ;;		line 65 in file "mcc_generated_files/tmr1.c"
   991 ;; Parameters:    Size  Location     Type
   992 ;;		None
   993 ;; Auto vars:     Size  Location     Type
   994 ;;		None
   995 ;; Return value:  Size  Location     Type
   996 ;;                  1    wreg      void 
   997 ;; Registers used:
   998 ;;		wreg, status,2, status,0, pclath, cstack
   999 ;; Tracked objects:
  1000 ;;		On entry : 0/0
  1001 ;;		On exit  : 0/0
  1002 ;;		Unchanged: 0/0
  1003 ;; Data sizes:     COMMON   BANK0   BANK1   BANK2   BANK3   BANK4   BANK5   BANK6   BANK7   BANK8   BANK9  BANK10  BANK1
      +1  BANK12
  1004 ;;      Params:         0       0       0       0       0       0       0       0       0       0       0       0       
      +0       0
  1005 ;;      Locals:         0       0       0       0       0       0       0       0       0       0       0       0       
      +0       0
  1006 ;;      Temps:          0       0       0       0       0       0       0       0       0       0       0       0       
      +0       0
  1007 ;;      Totals:         0       0       0       0       0       0       0       0       0       0       0       0       
      +0       0
  1008 ;;Total ram usage:        0 bytes
  1009 ;; Hardware stack levels used:    1
  1010 ;; Hardware stack levels required when called:    5
  1011 ;; This function calls:
  1012 ;;		_TMR1_SetInterruptHandler
  1013 ;; This function is called by:
  1014 ;;		_SYSTEM_Initialize
  1015 ;; This function uses a non-reentrant model
  1016 ;;
  1017                           
  1018                           
  1019                           ;psect for function _TMR1_Initialize
  1020  00A6                     _TMR1_Initialize:	
  1021  00A6                     l874:	
  1022                           ;incstack = 0
  1023                           ; Regs used in _TMR1_Initialize: [wreg+status,2+status,0+pclath+cstack]
  1024                           
  1025                           
  1026                           ;mcc_generated_files/tmr1.c: 70:     T1GCON = 0x00;
  1027  00A6  0020               	movlb	0	; select bank0
  1028  00A7  0199               	clrf	25	;volatile
  1029  00A8                     l876:	
  1030                           
  1031                           ;mcc_generated_files/tmr1.c: 73:     TMR1H = 0xF0;
  1032  00A8  30F0               	movlw	240
  1033  00A9  0097               	movwf	23	;volatile
  1034  00AA                     l878:	
  1035                           
  1036                           ;mcc_generated_files/tmr1.c: 76:     TMR1L = 0x60;
  1037  00AA  3060               	movlw	96
  1038  00AB  0096               	movwf	22	;volatile
  1039  00AC                     l880:	
  1040                           
  1041                           ;mcc_generated_files/tmr1.c: 79:     PIR1bits.TMR1IF = 0;
  1042  00AC  1011               	bcf	17,0	;volatile
  1043  00AD                     l882:	
  1044                           
  1045                           ;mcc_generated_files/tmr1.c: 82:     timer1ReloadVal=(uint16_t)((TMR1H << 8) | TMR1L);
  1046  00AD  0817               	movf	23,w	;volatile
  1047  00AE  00FA               	movwf	_timer1ReloadVal+1	;volatile
  1048  00AF  0816               	movf	22,w	;volatile
  1049  00B0  00F9               	movwf	_timer1ReloadVal	;volatile
  1050  00B1                     l884:	
  1051                           
  1052                           ;mcc_generated_files/tmr1.c: 85:     PIE1bits.TMR1IE = 1;
  1053  00B1  0021               	movlb	1	; select bank1
  1054  00B2  1411               	bsf	17,0	;volatile
  1055  00B3                     l886:	
  1056                           
  1057                           ;mcc_generated_files/tmr1.c: 88:     TMR1_SetInterruptHandler(TMR1_DefaultInterruptHandl
      +                          er);
  1058  00B3  301E               	movlw	low _TMR1_DefaultInterruptHandler
  1059  00B4  00F2               	movwf	TMR1_SetInterruptHandler@InterruptHandler
  1060  00B5  3001               	movlw	high _TMR1_DefaultInterruptHandler
  1061  00B6  00F3               	movwf	TMR1_SetInterruptHandler@InterruptHandler+1
  1062  00B7  3181  210E  3180   	fcall	_TMR1_SetInterruptHandler
  1063  00BA                     l888:	
  1064                           
  1065                           ;mcc_generated_files/tmr1.c: 91:     T1CON = 0x01;
  1066  00BA  3001               	movlw	1
  1067  00BB  0020               	movlb	0	; select bank0
  1068  00BC  0098               	movwf	24	;volatile
  1069  00BD                     l33:	
  1070  00BD  0008               	return
  1071  00BE                     __end_of_TMR1_Initialize:	
  1072                           
  1073                           	psect	text4
  1074  010E                     __ptext4:	
  1075 ;; *************** function _TMR1_SetInterruptHandler *****************
  1076 ;; Defined at:
  1077 ;;		line 182 in file "mcc_generated_files/tmr1.c"
  1078 ;; Parameters:    Size  Location     Type
  1079 ;;  InterruptHan    2    2[COMMON] PTR FTN()void 
  1080 ;;		 -> TMR1_DefaultInterruptHandler(1), 
  1081 ;; Auto vars:     Size  Location     Type
  1082 ;;		None
  1083 ;; Return value:  Size  Location     Type
  1084 ;;                  1    wreg      void 
  1085 ;; Registers used:
  1086 ;;		wreg
  1087 ;; Tracked objects:
  1088 ;;		On entry : 0/0
  1089 ;;		On exit  : 0/0
  1090 ;;		Unchanged: 0/0
  1091 ;; Data sizes:     COMMON   BANK0   BANK1   BANK2   BANK3   BANK4   BANK5   BANK6   BANK7   BANK8   BANK9  BANK10  BANK1
      +1  BANK12
  1092 ;;      Params:         2       0       0       0       0       0       0       0       0       0       0       0       
      +0       0
  1093 ;;      Locals:         0       0       0       0       0       0       0       0       0       0       0       0       
      +0       0
  1094 ;;      Temps:          0       0       0       0       0       0       0       0       0       0       0       0       
      +0       0
  1095 ;;      Totals:         2       0       0       0       0       0       0       0       0       0       0       0       
      +0       0
  1096 ;;Total ram usage:        2 bytes
  1097 ;; Hardware stack levels used:    1
  1098 ;; Hardware stack levels required when called:    4
  1099 ;; This function calls:
  1100 ;;		Nothing
  1101 ;; This function is called by:
  1102 ;;		_TMR1_Initialize
  1103 ;; This function uses a non-reentrant model
  1104 ;;
  1105                           
  1106                           
  1107                           ;psect for function _TMR1_SetInterruptHandler
  1108  010E                     _TMR1_SetInterruptHandler:	
  1109  010E                     l872:	
  1110                           ;incstack = 0
  1111                           ; Regs used in _TMR1_SetInterruptHandler: [wreg]
  1112                           
  1113                           
  1114                           ;mcc_generated_files/tmr1.c: 183:     TMR1_InterruptHandler = InterruptHandler;
  1115  010E  0873               	movf	TMR1_SetInterruptHandler@InterruptHandler+1,w
  1116  010F  0020               	movlb	0	; select bank0
  1117  0110  00AB               	movwf	_TMR1_InterruptHandler+1
  1118  0111  0872               	movf	TMR1_SetInterruptHandler@InterruptHandler,w
  1119  0112  00AA               	movwf	_TMR1_InterruptHandler
  1120  0113                     l66:	
  1121  0113  0008               	return
  1122  0114                     __end_of_TMR1_SetInterruptHandler:	
  1123                           
  1124                           	psect	text5
  1125  008C                     __ptext5:	
  1126 ;; *************** function _PIN_MANAGER_Initialize *****************
  1127 ;; Defined at:
  1128 ;;		line 55 in file "mcc_generated_files/pin_manager.c"
  1129 ;; Parameters:    Size  Location     Type
  1130 ;;		None
  1131 ;; Auto vars:     Size  Location     Type
  1132 ;;		None
  1133 ;; Return value:  Size  Location     Type
  1134 ;;                  1    wreg      void 
  1135 ;; Registers used:
  1136 ;;		wreg, status,2
  1137 ;; Tracked objects:
  1138 ;;		On entry : 0/0
  1139 ;;		On exit  : 0/0
  1140 ;;		Unchanged: 0/0
  1141 ;; Data sizes:     COMMON   BANK0   BANK1   BANK2   BANK3   BANK4   BANK5   BANK6   BANK7   BANK8   BANK9  BANK10  BANK1
      +1  BANK12
  1142 ;;      Params:         0       0       0       0       0       0       0       0       0       0       0       0       
      +0       0
  1143 ;;      Locals:         0       0       0       0       0       0       0       0       0       0       0       0       
      +0       0
  1144 ;;      Temps:          0       0       0       0       0       0       0       0       0       0       0       0       
      +0       0
  1145 ;;      Totals:         0       0       0       0       0       0       0       0       0       0       0       0       
      +0       0
  1146 ;;Total ram usage:        0 bytes
  1147 ;; Hardware stack levels used:    1
  1148 ;; Hardware stack levels required when called:    4
  1149 ;; This function calls:
  1150 ;;		Nothing
  1151 ;; This function is called by:
  1152 ;;		_SYSTEM_Initialize
  1153 ;; This function uses a non-reentrant model
  1154 ;;
  1155                           
  1156                           
  1157                           ;psect for function _PIN_MANAGER_Initialize
  1158  008C                     _PIN_MANAGER_Initialize:	
  1159  008C                     l910:	
  1160                           ;incstack = 0
  1161                           ; Regs used in _PIN_MANAGER_Initialize: [wreg+status,2]
  1162                           
  1163                           
  1164                           ;mcc_generated_files/pin_manager.c: 60:     LATA = 0x00;
  1165  008C  0022               	movlb	2	; select bank2
  1166  008D  018C               	clrf	12	;volatile
  1167                           
  1168                           ;mcc_generated_files/pin_manager.c: 61:     LATB = 0x00;
  1169  008E  018D               	clrf	13	;volatile
  1170                           
  1171                           ;mcc_generated_files/pin_manager.c: 62:     LATC = 0x00;
  1172  008F  018E               	clrf	14	;volatile
  1173  0090                     l912:	
  1174                           
  1175                           ;mcc_generated_files/pin_manager.c: 67:     TRISA = 0xFC;
  1176  0090  30FC               	movlw	252
  1177  0091  0021               	movlb	1	; select bank1
  1178  0092  008C               	movwf	12	;volatile
  1179  0093                     l914:	
  1180                           
  1181                           ;mcc_generated_files/pin_manager.c: 68:     TRISB = 0xFF;
  1182  0093  30FF               	movlw	255
  1183  0094  008D               	movwf	13	;volatile
  1184  0095                     l916:	
  1185                           
  1186                           ;mcc_generated_files/pin_manager.c: 69:     TRISC = 0xFF;
  1187  0095  30FF               	movlw	255
  1188  0096  008E               	movwf	14	;volatile
  1189  0097                     l918:	
  1190                           
  1191                           ;mcc_generated_files/pin_manager.c: 74:     ANSELC = 0xFC;
  1192  0097  30FC               	movlw	252
  1193  0098  0023               	movlb	3	; select bank3
  1194  0099  008E               	movwf	14	;volatile
  1195  009A                     l920:	
  1196                           
  1197                           ;mcc_generated_files/pin_manager.c: 75:     ANSELB = 0x3F;
  1198  009A  303F               	movlw	63
  1199  009B  008D               	movwf	13	;volatile
  1200  009C                     l922:	
  1201                           
  1202                           ;mcc_generated_files/pin_manager.c: 76:     ANSELA = 0x2C;
  1203  009C  302C               	movlw	44
  1204  009D  008C               	movwf	12	;volatile
  1205                           
  1206                           ;mcc_generated_files/pin_manager.c: 81:     WPUE = 0x00;
  1207  009E  0024               	movlb	4	; select bank4
  1208  009F  0190               	clrf	16	;volatile
  1209                           
  1210                           ;mcc_generated_files/pin_manager.c: 82:     WPUB = 0x00;
  1211  00A0  018D               	clrf	13	;volatile
  1212  00A1                     l924:	
  1213                           
  1214                           ;mcc_generated_files/pin_manager.c: 83:     OPTION_REGbits.nWPUEN = 1;
  1215  00A1  0021               	movlb	1	; select bank1
  1216  00A2  1795               	bsf	21,7	;volatile
  1217                           
  1218                           ;mcc_generated_files/pin_manager.c: 89:     APFCON = 0x00;
  1219  00A3  0022               	movlb	2	; select bank2
  1220  00A4  019D               	clrf	29	;volatile
  1221  00A5                     l138:	
  1222  00A5  0008               	return
  1223  00A6                     __end_of_PIN_MANAGER_Initialize:	
  1224                           
  1225                           	psect	text6
  1226  0114                     __ptext6:	
  1227 ;; *************** function _OSCILLATOR_Initialize *****************
  1228 ;; Defined at:
  1229 ;;		line 59 in file "mcc_generated_files/mcc.c"
  1230 ;; Parameters:    Size  Location     Type
  1231 ;;		None
  1232 ;; Auto vars:     Size  Location     Type
  1233 ;;		None
  1234 ;; Return value:  Size  Location     Type
  1235 ;;                  1    wreg      void 
  1236 ;; Registers used:
  1237 ;;		wreg, status,2
  1238 ;; Tracked objects:
  1239 ;;		On entry : 0/0
  1240 ;;		On exit  : 0/0
  1241 ;;		Unchanged: 0/0
  1242 ;; Data sizes:     COMMON   BANK0   BANK1   BANK2   BANK3   BANK4   BANK5   BANK6   BANK7   BANK8   BANK9  BANK10  BANK1
      +1  BANK12
  1243 ;;      Params:         0       0       0       0       0       0       0       0       0       0       0       0       
      +0       0
  1244 ;;      Locals:         0       0       0       0       0       0       0       0       0       0       0       0       
      +0       0
  1245 ;;      Temps:          0       0       0       0       0       0       0       0       0       0       0       0       
      +0       0
  1246 ;;      Totals:         0       0       0       0       0       0       0       0       0       0       0       0       
      +0       0
  1247 ;;Total ram usage:        0 bytes
  1248 ;; Hardware stack levels used:    1
  1249 ;; Hardware stack levels required when called:    4
  1250 ;; This function calls:
  1251 ;;		Nothing
  1252 ;; This function is called by:
  1253 ;;		_SYSTEM_Initialize
  1254 ;; This function uses a non-reentrant model
  1255 ;;
  1256                           
  1257                           
  1258                           ;psect for function _OSCILLATOR_Initialize
  1259  0114                     _OSCILLATOR_Initialize:	
  1260  0114                     l926:	
  1261                           ;incstack = 0
  1262                           ; Regs used in _OSCILLATOR_Initialize: [wreg+status,2]
  1263                           
  1264                           
  1265                           ;mcc_generated_files/mcc.c: 62:     OSCCON = 0x78;
  1266  0114  3078               	movlw	120
  1267  0115  0021               	movlb	1	; select bank1
  1268  0116  0099               	movwf	25	;volatile
  1269  0117                     l928:	
  1270                           
  1271                           ;mcc_generated_files/mcc.c: 64:     BORCON = 0x00;
  1272  0117  0022               	movlb	2	; select bank2
  1273  0118  0196               	clrf	22	;volatile
  1274  0119                     l106:	
  1275  0119  0008               	return
  1276  011A                     __end_of_OSCILLATOR_Initialize:	
  1277                           
  1278                           	psect	text7
  1279  002A                     __ptext7:	
  1280 ;; *************** function _APP_LED_Tasks *****************
  1281 ;; Defined at:
  1282 ;;		line 17 in file "./app.c"
  1283 ;; Parameters:    Size  Location     Type
  1284 ;;  appledData      5    2[COMMON] struct .
  1285 ;;  maxTime         2    7[COMMON] int 
  1286 ;; Auto vars:     Size  Location     Type
  1287 ;;		None
  1288 ;; Return value:  Size  Location     Type
  1289 ;;                  1    wreg      void 
  1290 ;; Registers used:
  1291 ;;		wreg, fsr0l, fsr0h, status,2, status,0
  1292 ;; Tracked objects:
  1293 ;;		On entry : 0/0
  1294 ;;		On exit  : 0/0
  1295 ;;		Unchanged: 0/0
  1296 ;; Data sizes:     COMMON   BANK0   BANK1   BANK2   BANK3   BANK4   BANK5   BANK6   BANK7   BANK8   BANK9  BANK10  BANK1
      +1  BANK12
  1297 ;;      Params:         7       0       0       0       0       0       0       0       0       0       0       0       
      +0       0
  1298 ;;      Locals:         0       0       0       0       0       0       0       0       0       0       0       0       
      +0       0
  1299 ;;      Temps:          0       2       0       0       0       0       0       0       0       0       0       0       
      +0       0
  1300 ;;      Totals:         7       2       0       0       0       0       0       0       0       0       0       0       
      +0       0
  1301 ;;Total ram usage:        9 bytes
  1302 ;; Hardware stack levels used:    1
  1303 ;; Hardware stack levels required when called:    4
  1304 ;; This function calls:
  1305 ;;		Nothing
  1306 ;; This function is called by:
  1307 ;;		_main
  1308 ;; This function uses a non-reentrant model
  1309 ;;
  1310                           
  1311                           
  1312                           ;psect for function _APP_LED_Tasks
  1313  002A                     _APP_LED_Tasks:	
  1314  002A                     l1024:	
  1315                           ;incstack = 0
  1316                           ; Regs used in _APP_LED_Tasks: [wreg-fsr0h+status,2+status,0]
  1317                           
  1318                           
  1319                           ;./app.c: 17: void APP_LED_Tasks(APP_LED_DATA appledData, int maxTime);./app.c: 18: {;./
      +                          app.c: 19:     switch(appledData.state)
  1320  002A  2853               	goto	l1042
  1321  002B                     l158:	
  1322                           ;./app.c: 20:     {;./app.c: 21:         case APP_LED_STATE_INIT :
  1323                           
  1324                           
  1325                           ;./app.c: 22:         {;./app.c: 23:             appledData.state = APP_LED_STATE_WAIT;
  1326  002B  01F2               	clrf	APP_LED_Tasks@appledData
  1327  002C  0AF2               	incf	APP_LED_Tasks@appledData,f
  1328                           
  1329                           ;./app.c: 24:             break;
  1330  002D  2867               	goto	l168
  1331  002E                     l1026:	
  1332                           
  1333                           ;./app.c: 27:         {;./app.c: 28:             if(appledData.TimerCount >= maxTime)
  1334  002E  0874               	movf	APP_LED_Tasks@appledData+2,w
  1335  002F  3A80               	xorlw	128
  1336  0030  00AC               	movwf	??_APP_LED_Tasks
  1337  0031  0878               	movf	APP_LED_Tasks@maxTime+1,w
  1338  0032  3A80               	xorlw	128
  1339  0033  022C               	subwf	??_APP_LED_Tasks,w
  1340  0034  1D03               	skipz
  1341  0035  2838               	goto	u175
  1342  0036  0877               	movf	APP_LED_Tasks@maxTime,w
  1343  0037  0273               	subwf	APP_LED_Tasks@appledData+1,w
  1344  0038                     u175:	
  1345  0038  1C03               	skipc
  1346  0039  283B               	goto	u171
  1347  003A  283C               	goto	u170
  1348  003B                     u171:	
  1349  003B  2867               	goto	l168
  1350  003C                     u170:	
  1351  003C                     l1028:	
  1352                           
  1353                           ;./app.c: 29:             {;./app.c: 30:                 appledData.state = APP_LED_STAT
      +                          E_BLINK_LED;
  1354  003C  3002               	movlw	2
  1355  003D  0020               	movlb	0	; select bank0
  1356  003E  00AC               	movwf	??_APP_LED_Tasks
  1357  003F  082C               	movf	??_APP_LED_Tasks,w
  1358  0040  00F2               	movwf	APP_LED_Tasks@appledData
  1359  0041                     l1030:	
  1360                           
  1361                           ;./app.c: 31:                 appledData.TimerCount = 0;
  1362  0041  01F3               	clrf	APP_LED_Tasks@appledData+1
  1363  0042  01F4               	clrf	APP_LED_Tasks@appledData+2
  1364  0043  2867               	goto	l168
  1365  0044                     l1032:	
  1366  0044  1003               	clrc
  1367  0045  0022               	movlb	2	; select bank2
  1368  0046  1C0C               	btfss	12,0	;volatile
  1369  0047  1403               	setc
  1370  0048  1803               	btfsc	3,0
  1371  0049  284B               	goto	u181
  1372  004A  284E               	goto	u180
  1373  004B                     u181:	
  1374  004B  0022               	movlb	2	; select bank2
  1375  004C  140C               	bsf	12,0	;volatile
  1376  004D  2850               	goto	u194
  1377  004E                     u180:	
  1378  004E  0022               	movlb	2	; select bank2
  1379  004F  100C               	bcf	12,0	;volatile
  1380  0050                     u194:	
  1381  0050  282B               	goto	l158
  1382  0051                     l1038:	
  1383                           
  1384                           ;./app.c: 48:             appledData.state = APP_LED_STATE_INIT;
  1385  0051  01F2               	clrf	APP_LED_Tasks@appledData
  1386                           
  1387                           ;./app.c: 49:             break;
  1388  0052  2867               	goto	l168
  1389  0053                     l1042:	
  1390  0053  0872               	movf	APP_LED_Tasks@appledData,w
  1391  0054  0020               	movlb	0	; select bank0
  1392  0055  00AC               	movwf	??_APP_LED_Tasks
  1393  0056  01AD               	clrf	??_APP_LED_Tasks+1
  1394                           
  1395                           ; Switch on 2 bytes has been partitioned into a top level switch of size 1, and 1 sub-sw
      +                          itches
  1396                           ; Switch size 1, requested type "simple"
  1397                           ; Number of cases is 1, Range of values is 0 to 0
  1398                           ; switch strategies available:
  1399                           ; Name         Instructions Cycles
  1400                           ; simple_byte            4     3 (average)
  1401                           ; direct_byte            8     6 (fixed)
  1402                           ; jumptable            260     6 (fixed)
  1403                           ;	Chosen strategy is simple_byte
  1404  0057  082D               	movf	??_APP_LED_Tasks+1,w
  1405  0058  3A00               	xorlw	0	; case 0
  1406  0059  1903               	skipnz
  1407  005A  285C               	goto	l1090
  1408  005B  2851               	goto	l1038
  1409  005C                     l1090:	
  1410                           
  1411                           ; Switch size 1, requested type "simple"
  1412                           ; Number of cases is 3, Range of values is 0 to 2
  1413                           ; switch strategies available:
  1414                           ; Name         Instructions Cycles
  1415                           ; simple_byte           10     6 (average)
  1416                           ; direct_byte           12     6 (fixed)
  1417                           ; jumptable            260     6 (fixed)
  1418                           ;	Chosen strategy is simple_byte
  1419  005C  082C               	movf	??_APP_LED_Tasks,w
  1420  005D  3A00               	xorlw	0	; case 0
  1421  005E  1903               	skipnz
  1422  005F  282B               	goto	l158
  1423  0060  3A01               	xorlw	1	; case 1
  1424  0061  1903               	skipnz
  1425  0062  282E               	goto	l1026
  1426  0063  3A03               	xorlw	3	; case 2
  1427  0064  1903               	skipnz
  1428  0065  2844               	goto	l1032
  1429  0066  2851               	goto	l1038
  1430  0067                     l168:	
  1431  0067  0008               	return
  1432  0068                     __end_of_APP_LED_Tasks:	
  1433                           
  1434                           	psect	text8
  1435  00E4                     __ptext8:	
  1436 ;; *************** function _APP_LED_Initialize *****************
  1437 ;; Defined at:
  1438 ;;		line 7 in file "./app.c"
  1439 ;; Parameters:    Size  Location     Type
  1440 ;;		None
  1441 ;; Auto vars:     Size  Location     Type
  1442 ;;		None
  1443 ;; Return value:  Size  Location     Type
  1444 ;;                  1    wreg      void 
  1445 ;; Registers used:
  1446 ;;		wreg, status,2
  1447 ;; Tracked objects:
  1448 ;;		On entry : 0/0
  1449 ;;		On exit  : 0/0
  1450 ;;		Unchanged: 0/0
  1451 ;; Data sizes:     COMMON   BANK0   BANK1   BANK2   BANK3   BANK4   BANK5   BANK6   BANK7   BANK8   BANK9  BANK10  BANK1
      +1  BANK12
  1452 ;;      Params:         0       0       0       0       0       0       0       0       0       0       0       0       
      +0       0
  1453 ;;      Locals:         0       0       0       0       0       0       0       0       0       0       0       0       
      +0       0
  1454 ;;      Temps:          0       0       0       0       0       0       0       0       0       0       0       0       
      +0       0
  1455 ;;      Totals:         0       0       0       0       0       0       0       0       0       0       0       0       
      +0       0
  1456 ;;Total ram usage:        0 bytes
  1457 ;; Hardware stack levels used:    1
  1458 ;; Hardware stack levels required when called:    4
  1459 ;; This function calls:
  1460 ;;		Nothing
  1461 ;; This function is called by:
  1462 ;;		_main
  1463 ;; This function uses a non-reentrant model
  1464 ;;
  1465                           
  1466                           
  1467                           ;psect for function _APP_LED_Initialize
  1468  00E4                     _APP_LED_Initialize:	
  1469  00E4                     l938:	
  1470                           ;incstack = 0
  1471                           ; Regs used in _APP_LED_Initialize: [wreg+status,2]
  1472                           
  1473                           
  1474                           ;./app.c: 9:     appledData1.state = APP_LED_STATE_INIT;
  1475  00E4  0020               	movlb	0	; select bank0
  1476  00E5  01A5               	clrf	_appledData1
  1477                           
  1478                           ;./app.c: 10:     appledData1.TimerCount = 0;
  1479  00E6  01A6               	clrf	_appledData1+1
  1480  00E7  01A7               	clrf	_appledData1+2
  1481  00E8                     l940:	
  1482                           
  1483                           ;./app.c: 11:     appledData1.id = 1;
  1484  00E8  3001               	movlw	1
  1485  00E9  00A8               	movwf	_appledData1+3
  1486  00EA  3000               	movlw	0
  1487  00EB  00A9               	movwf	_appledData1+4
  1488  00EC                     l942:	
  1489                           
  1490                           ;./app.c: 12:     appledData2.state = APP_LED_STATE_INIT;
  1491  00EC  01A0               	clrf	_appledData2
  1492  00ED                     l944:	
  1493                           
  1494                           ;./app.c: 13:     appledData2.TimerCount = 0;
  1495  00ED  01A1               	clrf	_appledData2+1
  1496  00EE  01A2               	clrf	_appledData2+2
  1497  00EF                     l946:	
  1498                           
  1499                           ;./app.c: 14:     appledData2.id = 2;
  1500  00EF  3002               	movlw	2
  1501  00F0  00A3               	movwf	_appledData2+3
  1502  00F1  3000               	movlw	0
  1503  00F2  00A4               	movwf	_appledData2+4
  1504  00F3                     l154:	
  1505  00F3  0008               	return
  1506  00F4                     __end_of_APP_LED_Initialize:	
  1507                           
  1508                           	psect	intentry
  1509  0004                     __pintentry:	
  1510 ;; *************** function _INTERRUPT_InterruptManager *****************
  1511 ;; Defined at:
  1512 ;;		line 52 in file "mcc_generated_files/interrupt_manager.c"
  1513 ;; Parameters:    Size  Location     Type
  1514 ;;		None
  1515 ;; Auto vars:     Size  Location     Type
  1516 ;;		None
  1517 ;; Return value:  Size  Location     Type
  1518 ;;                  1    wreg      void 
  1519 ;; Registers used:
  1520 ;;		wreg, status,2, status,0, pclath, cstack
  1521 ;; Tracked objects:
  1522 ;;		On entry : 0/0
  1523 ;;		On exit  : 0/0
  1524 ;;		Unchanged: 0/0
  1525 ;; Data sizes:     COMMON   BANK0   BANK1   BANK2   BANK3   BANK4   BANK5   BANK6   BANK7   BANK8   BANK9  BANK10  BANK1
      +1  BANK12
  1526 ;;      Params:         0       0       0       0       0       0       0       0       0       0       0       0       
      +0       0
  1527 ;;      Locals:         0       0       0       0       0       0       0       0       0       0       0       0       
      +0       0
  1528 ;;      Temps:          0       0       0       0       0       0       0       0       0       0       0       0       
      +0       0
  1529 ;;      Totals:         0       0       0       0       0       0       0       0       0       0       0       0       
      +0       0
  1530 ;;Total ram usage:        0 bytes
  1531 ;; Hardware stack levels used:    1
  1532 ;; Hardware stack levels required when called:    3
  1533 ;; This function calls:
  1534 ;;		_TMR1_ISR
  1535 ;; This function is called by:
  1536 ;;		Interrupt level 1
  1537 ;; This function uses a non-reentrant model
  1538 ;;
  1539                           
  1540  0004                     _INTERRUPT_InterruptManager:	
  1541                           
  1542                           ;incstack = 0
  1543  0004  147E               	bsf	int$flags,0	;set compiler interrupt flag (level 1)
  1544                           
  1545                           ; Regs used in _INTERRUPT_InterruptManager: [wreg+status,2+status,0+pclath+cstack]
  1546  0005  3180               	pagesel	$
  1547  0006                     i1l976:	
  1548                           
  1549                           ;mcc_generated_files/interrupt_manager.c: 55:     if(INTCONbits.PEIE == 1)
  1550  0006  1F0B               	btfss	11,6	;volatile
  1551  0007  2809               	goto	u14_21
  1552  0008  280A               	goto	u14_20
  1553  0009                     u14_21:	
  1554  0009  2817               	goto	i1l86
  1555  000A                     u14_20:	
  1556  000A                     i1l978:	
  1557                           
  1558                           ;mcc_generated_files/interrupt_manager.c: 56:     {;mcc_generated_files/interrupt_manage
      +                          r.c: 57:         if(PIE1bits.TMR1IE == 1 && PIR1bits.TMR1IF == 1)
  1559  000A  0021               	movlb	1	; select bank1
  1560  000B  1C11               	btfss	17,0	;volatile
  1561  000C  280E               	goto	u15_21
  1562  000D  280F               	goto	u15_20
  1563  000E                     u15_21:	
  1564  000E  2817               	goto	i1l86
  1565  000F                     u15_20:	
  1566  000F                     i1l980:	
  1567  000F  0020               	movlb	0	; select bank0
  1568  0010  1C11               	btfss	17,0	;volatile
  1569  0011  2813               	goto	u16_21
  1570  0012  2814               	goto	u16_20
  1571  0013                     u16_21:	
  1572  0013  2817               	goto	i1l86
  1573  0014                     u16_20:	
  1574  0014                     i1l982:	
  1575                           
  1576                           ;mcc_generated_files/interrupt_manager.c: 58:         {;mcc_generated_files/interrupt_ma
      +                          nager.c: 59:             TMR1_ISR();
  1577  0014  3181  2101  3180   	fcall	_TMR1_ISR
  1578  0017                     i1l86:	
  1579                           ;mcc_generated_files/interrupt_manager.c: 60:         }
  1580                           
  1581  0017  107E               	bcf	int$flags,0	;clear compiler interrupt flag (level 1)
  1582  0018  0009               	retfie
  1583  0019                     __end_of_INTERRUPT_InterruptManager:	
  1584                           
  1585                           	psect	text10
  1586  0101                     __ptext10:	
  1587 ;; *************** function _TMR1_ISR *****************
  1588 ;; Defined at:
  1589 ;;		line 158 in file "mcc_generated_files/tmr1.c"
  1590 ;; Parameters:    Size  Location     Type
  1591 ;;		None
  1592 ;; Auto vars:     Size  Location     Type
  1593 ;;		None
  1594 ;; Return value:  Size  Location     Type
  1595 ;;                  1    wreg      void 
  1596 ;; Registers used:
  1597 ;;		wreg, status,2, status,0, pclath, cstack
  1598 ;; Tracked objects:
  1599 ;;		On entry : 0/0
  1600 ;;		On exit  : 0/0
  1601 ;;		Unchanged: 0/0
  1602 ;; Data sizes:     COMMON   BANK0   BANK1   BANK2   BANK3   BANK4   BANK5   BANK6   BANK7   BANK8   BANK9  BANK10  BANK1
      +1  BANK12
  1603 ;;      Params:         0       0       0       0       0       0       0       0       0       0       0       0       
      +0       0
  1604 ;;      Locals:         0       0       0       0       0       0       0       0       0       0       0       0       
      +0       0
  1605 ;;      Temps:          0       0       0       0       0       0       0       0       0       0       0       0       
      +0       0
  1606 ;;      Totals:         0       0       0       0       0       0       0       0       0       0       0       0       
      +0       0
  1607 ;;Total ram usage:        0 bytes
  1608 ;; Hardware stack levels used:    1
  1609 ;; Hardware stack levels required when called:    2
  1610 ;; This function calls:
  1611 ;;		_TMR1_CallBack
  1612 ;;		_TMR1_WriteTimer
  1613 ;; This function is called by:
  1614 ;;		_INTERRUPT_InterruptManager
  1615 ;; This function uses a non-reentrant model
  1616 ;;
  1617                           
  1618                           
  1619                           ;psect for function _TMR1_ISR
  1620  0101                     _TMR1_ISR:	
  1621  0101                     i1l932:	
  1622                           ;incstack = 0
  1623                           ; Regs used in _TMR1_ISR: [wreg+status,2+status,0+pclath+cstack]
  1624                           
  1625                           
  1626                           ;mcc_generated_files/tmr1.c: 162:     PIR1bits.TMR1IF = 0;
  1627  0101  0020               	movlb	0	; select bank0
  1628  0102  1011               	bcf	17,0	;volatile
  1629  0103                     i1l934:	
  1630                           
  1631                           ;mcc_generated_files/tmr1.c: 163:     TMR1_WriteTimer(timer1ReloadVal);
  1632  0103  087A               	movf	_timer1ReloadVal+1,w	;volatile
  1633  0104  00F1               	movwf	TMR1_WriteTimer@timerVal+1
  1634  0105  0879               	movf	_timer1ReloadVal,w	;volatile
  1635  0106  00F0               	movwf	TMR1_WriteTimer@timerVal
  1636  0107  3180  20D3  3181   	fcall	_TMR1_WriteTimer
  1637                           
  1638                           ;mcc_generated_files/tmr1.c: 167:     TMR1_CallBack();
  1639  010A  3180  20BE  3181   	fcall	_TMR1_CallBack
  1640  010D                     i1l59:	
  1641  010D  0008               	return
  1642  010E                     __end_of_TMR1_ISR:	
  1643                           
  1644                           	psect	text11
  1645  00D3                     __ptext11:	
  1646 ;; *************** function _TMR1_WriteTimer *****************
  1647 ;; Defined at:
  1648 ;;		line 121 in file "mcc_generated_files/tmr1.c"
  1649 ;; Parameters:    Size  Location     Type
  1650 ;;  timerVal        2    0[COMMON] unsigned short 
  1651 ;; Auto vars:     Size  Location     Type
  1652 ;;		None
  1653 ;; Return value:  Size  Location     Type
  1654 ;;                  1    wreg      void 
  1655 ;; Registers used:
  1656 ;;		wreg, status,2
  1657 ;; Tracked objects:
  1658 ;;		On entry : 0/0
  1659 ;;		On exit  : 0/0
  1660 ;;		Unchanged: 0/0
  1661 ;; Data sizes:     COMMON   BANK0   BANK1   BANK2   BANK3   BANK4   BANK5   BANK6   BANK7   BANK8   BANK9  BANK10  BANK1
      +1  BANK12
  1662 ;;      Params:         2       0       0       0       0       0       0       0       0       0       0       0       
      +0       0
  1663 ;;      Locals:         0       0       0       0       0       0       0       0       0       0       0       0       
      +0       0
  1664 ;;      Temps:          0       0       0       0       0       0       0       0       0       0       0       0       
      +0       0
  1665 ;;      Totals:         2       0       0       0       0       0       0       0       0       0       0       0       
      +0       0
  1666 ;;Total ram usage:        2 bytes
  1667 ;; Hardware stack levels used:    1
  1668 ;; This function calls:
  1669 ;;		Nothing
  1670 ;; This function is called by:
  1671 ;;		_TMR1_ISR
  1672 ;;		_TMR1_Reload
  1673 ;; This function uses a non-reentrant model
  1674 ;;
  1675                           
  1676                           
  1677                           ;psect for function _TMR1_WriteTimer
  1678  00D3                     _TMR1_WriteTimer:	
  1679  00D3                     i1l890:	
  1680                           ;incstack = 0
  1681                           ; Regs used in _TMR1_WriteTimer: [wreg+status,2]
  1682                           
  1683                           
  1684                           ;mcc_generated_files/tmr1.c: 121: void TMR1_WriteTimer(uint16_t timerVal);mcc_generated_
      +                          files/tmr1.c: 122: {;mcc_generated_files/tmr1.c: 123:     if (T1CONbits.nT1SYNC == 1)
  1685  00D3  0020               	movlb	0	; select bank0
  1686  00D4  1D18               	btfss	24,2	;volatile
  1687  00D5  28D7               	goto	u9_21
  1688  00D6  28D8               	goto	u9_20
  1689  00D7                     u9_21:	
  1690  00D7  28DF               	goto	i1l900
  1691  00D8                     u9_20:	
  1692  00D8                     i1l892:	
  1693                           
  1694                           ;mcc_generated_files/tmr1.c: 124:     {;mcc_generated_files/tmr1.c: 126:         T1CONbi
      +                          ts.TMR1ON = 0;
  1695  00D8  1018               	bcf	24,0	;volatile
  1696  00D9                     i1l894:	
  1697                           
  1698                           ;mcc_generated_files/tmr1.c: 129:         TMR1H = (timerVal >> 8);
  1699  00D9  0871               	movf	TMR1_WriteTimer@timerVal+1,w
  1700  00DA  0097               	movwf	23	;volatile
  1701  00DB                     i1l896:	
  1702                           
  1703                           ;mcc_generated_files/tmr1.c: 130:         TMR1L = timerVal;
  1704  00DB  0870               	movf	TMR1_WriteTimer@timerVal,w
  1705  00DC  0096               	movwf	22	;volatile
  1706  00DD                     i1l898:	
  1707                           
  1708                           ;mcc_generated_files/tmr1.c: 133:         T1CONbits.TMR1ON =1;
  1709  00DD  1418               	bsf	24,0	;volatile
  1710                           
  1711                           ;mcc_generated_files/tmr1.c: 134:     }
  1712  00DE  28E3               	goto	i1l47
  1713  00DF                     i1l900:	
  1714                           
  1715                           ;mcc_generated_files/tmr1.c: 136:     {;mcc_generated_files/tmr1.c: 138:         TMR1H =
      +                           (timerVal >> 8);
  1716  00DF  0871               	movf	TMR1_WriteTimer@timerVal+1,w
  1717  00E0  0097               	movwf	23	;volatile
  1718  00E1                     i1l902:	
  1719                           
  1720                           ;mcc_generated_files/tmr1.c: 139:         TMR1L = timerVal;
  1721  00E1  0870               	movf	TMR1_WriteTimer@timerVal,w
  1722  00E2  0096               	movwf	22	;volatile
  1723  00E3                     i1l47:	
  1724  00E3  0008               	return
  1725  00E4                     __end_of_TMR1_WriteTimer:	
  1726                           
  1727                           	psect	text12
  1728  00BE                     __ptext12:	
  1729 ;; *************** function _TMR1_CallBack *****************
  1730 ;; Defined at:
  1731 ;;		line 170 in file "mcc_generated_files/tmr1.c"
  1732 ;; Parameters:    Size  Location     Type
  1733 ;;		None
  1734 ;; Auto vars:     Size  Location     Type
  1735 ;;		None
  1736 ;; Return value:  Size  Location     Type
  1737 ;;                  1    wreg      void 
  1738 ;; Registers used:
  1739 ;;		wreg, status,2, status,0, pclath, cstack
  1740 ;; Tracked objects:
  1741 ;;		On entry : 0/0
  1742 ;;		On exit  : 0/0
  1743 ;;		Unchanged: 0/0
  1744 ;; Data sizes:     COMMON   BANK0   BANK1   BANK2   BANK3   BANK4   BANK5   BANK6   BANK7   BANK8   BANK9  BANK10  BANK1
      +1  BANK12
  1745 ;;      Params:         0       0       0       0       0       0       0       0       0       0       0       0       
      +0       0
  1746 ;;      Locals:         0       0       0       0       0       0       0       0       0       0       0       0       
      +0       0
  1747 ;;      Temps:          0       0       0       0       0       0       0       0       0       0       0       0       
      +0       0
  1748 ;;      Totals:         0       0       0       0       0       0       0       0       0       0       0       0       
      +0       0
  1749 ;;Total ram usage:        0 bytes
  1750 ;; Hardware stack levels used:    1
  1751 ;; Hardware stack levels required when called:    1
  1752 ;; This function calls:
  1753 ;;		Absolute function
  1754 ;;		_TMR1_DefaultInterruptHandler
  1755 ;; This function is called by:
  1756 ;;		_TMR1_ISR
  1757 ;; This function uses a non-reentrant model
  1758 ;;
  1759                           
  1760                           
  1761                           ;psect for function _TMR1_CallBack
  1762  00BE                     _TMR1_CallBack:	
  1763  00BE                     i1l904:	
  1764                           ;incstack = 0
  1765                           ; Regs used in _TMR1_CallBack: [wreg+status,2+status,0+pclath+cstack]
  1766                           
  1767                           
  1768                           ;mcc_generated_files/tmr1.c: 173:     appledData1.TimerCount++;
  1769  00BE  3001               	movlw	1
  1770  00BF  0020               	movlb	0	; select bank0
  1771  00C0  07A6               	addwf	_appledData1+1,f
  1772  00C1  3000               	movlw	0
  1773  00C2  3DA7               	addwfc	_appledData1+2,f
  1774                           
  1775                           ;mcc_generated_files/tmr1.c: 174:     appledData2.TimerCount++;
  1776  00C3  3001               	movlw	1
  1777  00C4  07A1               	addwf	_appledData2+1,f
  1778  00C5  3000               	movlw	0
  1779  00C6  3DA2               	addwfc	_appledData2+2,f
  1780  00C7                     i1l906:	
  1781                           
  1782                           ;mcc_generated_files/tmr1.c: 176:     if(TMR1_InterruptHandler)
  1783  00C7  082A               	movf	_TMR1_InterruptHandler,w
  1784  00C8  042B               	iorwf	_TMR1_InterruptHandler+1,w
  1785  00C9  1903               	btfsc	3,2
  1786  00CA  28CC               	goto	u10_21
  1787  00CB  28CD               	goto	u10_20
  1788  00CC                     u10_21:	
  1789  00CC  28D2               	goto	i1l63
  1790  00CD                     u10_20:	
  1791  00CD                     i1l908:	
  1792                           
  1793                           ;mcc_generated_files/tmr1.c: 177:     {;mcc_generated_files/tmr1.c: 178:         TMR1_In
      +                          terruptHandler();
  1794  00CD  082B               	movf	_TMR1_InterruptHandler+1,w
  1795  00CE  008A               	movwf	10
  1796  00CF  082A               	movf	_TMR1_InterruptHandler,w
  1797  00D0  000A               	callw
  1798  00D1  3180               	pagesel	$
  1799  00D2                     i1l63:	
  1800  00D2  0008               	return
  1801  00D3                     __end_of_TMR1_CallBack:	
  1802                           
  1803                           	psect	text13
  1804  011E                     __ptext13:	
  1805 ;; *************** function _TMR1_DefaultInterruptHandler *****************
  1806 ;; Defined at:
  1807 ;;		line 186 in file "mcc_generated_files/tmr1.c"
  1808 ;; Parameters:    Size  Location     Type
  1809 ;;		None
  1810 ;; Auto vars:     Size  Location     Type
  1811 ;;		None
  1812 ;; Return value:  Size  Location     Type
  1813 ;;                  1    wreg      void 
  1814 ;; Registers used:
  1815 ;;		None
  1816 ;; Tracked objects:
  1817 ;;		On entry : 0/0
  1818 ;;		On exit  : 0/0
  1819 ;;		Unchanged: 0/0
  1820 ;; Data sizes:     COMMON   BANK0   BANK1   BANK2   BANK3   BANK4   BANK5   BANK6   BANK7   BANK8   BANK9  BANK10  BANK1
      +1  BANK12
  1821 ;;      Params:         0       0       0       0       0       0       0       0       0       0       0       0       
      +0       0
  1822 ;;      Locals:         0       0       0       0       0       0       0       0       0       0       0       0       
      +0       0
  1823 ;;      Temps:          0       0       0       0       0       0       0       0       0       0       0       0       
      +0       0
  1824 ;;      Totals:         0       0       0       0       0       0       0       0       0       0       0       0       
      +0       0
  1825 ;;Total ram usage:        0 bytes
  1826 ;; Hardware stack levels used:    1
  1827 ;; This function calls:
  1828 ;;		Nothing
  1829 ;; This function is called by:
  1830 ;;		_TMR1_Initialize
  1831 ;;		_TMR1_CallBack
  1832 ;; This function uses a non-reentrant model
  1833 ;;
  1834                           
  1835                           
  1836                           ;psect for function _TMR1_DefaultInterruptHandler
  1837  011E                     _TMR1_DefaultInterruptHandler:	
  1838  011E                     i1l69:	
  1839                           ;incstack = 0
  1840                           ; Regs used in _TMR1_DefaultInterruptHandler: []
  1841                           
  1842  011E  0008               	return
  1843  011F                     __end_of_TMR1_DefaultInterruptHandler:	
  1844  007E                     btemp	set	126	;btemp
  1845  007E                     int$flags	set	126
  1846  007E                     wtemp0	set	126


Data Sizes:
    Strings     0
    Constant    0
    Data        0
    BSS         10
    Persistent  36
    Stack       0

Auto Spaces:
    Space          Size  Autos    Used
    COMMON           14      9      11
    BANK0            80      4      16
    BANK1            80      0       0
    BANK2            80      0       0
    BANK3            80      0       0
    BANK4            80      0       0
    BANK5            80      0       0
    BANK6            80      0       0
    BANK7            80      0       0
    BANK8            80      0       0
    BANK9            80      0       0
    BANK10           80      0       0
    BANK11           80      0       0
    BANK12           48      0       0

Pointer List with Targets:

    TMR1_SetInterruptHandler@InterruptHandler	PTR FTN()void  size(2) Largest target is 1
		 -> TMR1_DefaultInterruptHandler(), 

    TMR1_InterruptHandler	PTR FTN()void  size(2) Largest target is 1
		 -> Absolute function(), TMR1_DefaultInterruptHandler(), 


Critical Paths under _main in COMMON

    _main->_APP_LED_Tasks
    _TMR1_Initialize->_TMR1_SetInterruptHandler

Critical Paths under _INTERRUPT_InterruptManager in COMMON

    _TMR1_ISR->_TMR1_WriteTimer

Critical Paths under _main in BANK0

    _main->_APP_LED_Tasks

Critical Paths under _INTERRUPT_InterruptManager in BANK0

    None.

Critical Paths under _main in BANK1

    None.

Critical Paths under _INTERRUPT_InterruptManager in BANK1

    None.

Critical Paths under _main in BANK2

    None.

Critical Paths under _INTERRUPT_InterruptManager in BANK2

    None.

Critical Paths under _main in BANK3

    None.

Critical Paths under _INTERRUPT_InterruptManager in BANK3

    None.

Critical Paths under _main in BANK4

    None.

Critical Paths under _INTERRUPT_InterruptManager in BANK4

    None.

Critical Paths under _main in BANK5

    None.

Critical Paths under _INTERRUPT_InterruptManager in BANK5

    None.

Critical Paths under _main in BANK6

    None.

Critical Paths under _INTERRUPT_InterruptManager in BANK6

    None.

Critical Paths under _main in BANK7

    None.

Critical Paths under _INTERRUPT_InterruptManager in BANK7

    None.

Critical Paths under _main in BANK8

    None.

Critical Paths under _INTERRUPT_InterruptManager in BANK8

    None.

Critical Paths under _main in BANK9

    None.

Critical Paths under _INTERRUPT_InterruptManager in BANK9

    None.

Critical Paths under _main in BANK10

    None.

Critical Paths under _INTERRUPT_InterruptManager in BANK10

    None.

Critical Paths under _main in BANK11

    None.

Critical Paths under _INTERRUPT_InterruptManager in BANK11

    None.

Critical Paths under _main in BANK12

    None.

Critical Paths under _INTERRUPT_InterruptManager in BANK12

    None.

Call Graph Tables:

 ---------------------------------------------------------------------------------
 (Depth) Function   	        Calls       Base Space   Used Autos Params    Refs
 ---------------------------------------------------------------------------------
 (0) _main                                                 2     2      0     460
                                              2 BANK0      2     2      0
                 _APP_LED_Initialize
                      _APP_LED_Tasks
                  _SYSTEM_Initialize
 ---------------------------------------------------------------------------------
 (1) _SYSTEM_Initialize                                    0     0      0      98
              _OSCILLATOR_Initialize
             _PIN_MANAGER_Initialize
                    _TMR1_Initialize
                     _WDT_Initialize
 ---------------------------------------------------------------------------------
 (2) _WDT_Initialize                                       0     0      0       0
 ---------------------------------------------------------------------------------
 (2) _TMR1_Initialize                                      0     0      0      98
           _TMR1_SetInterruptHandler
 ---------------------------------------------------------------------------------
 (3) _TMR1_SetInterruptHandler                             2     0      2      98
                                              2 COMMON     2     0      2
 ---------------------------------------------------------------------------------
 (2) _PIN_MANAGER_Initialize                               0     0      0       0
 ---------------------------------------------------------------------------------
 (2) _OSCILLATOR_Initialize                                0     0      0       0
 ---------------------------------------------------------------------------------
 (1) _APP_LED_Tasks                                        9     2      7     359
                                              2 COMMON     7     0      7
                                              0 BANK0      2     2      0
 ---------------------------------------------------------------------------------
 (1) _APP_LED_Initialize                                   0     0      0       0
 ---------------------------------------------------------------------------------
 Estimated maximum stack depth 3
 ---------------------------------------------------------------------------------
 (Depth) Function   	        Calls       Base Space   Used Autos Params    Refs
 ---------------------------------------------------------------------------------
 (4) _INTERRUPT_InterruptManager                           0     0      0     240
                           _TMR1_ISR
 ---------------------------------------------------------------------------------
 (5) _TMR1_ISR                                             0     0      0     240
                      _TMR1_CallBack
                    _TMR1_WriteTimer
 ---------------------------------------------------------------------------------
 (6) _TMR1_WriteTimer                                      2     0      2     240
                                              0 COMMON     2     0      2
 ---------------------------------------------------------------------------------
 (6) _TMR1_CallBack                                        0     0      0       0
                   Absolute function *
       _TMR1_DefaultInterruptHandler *
 ---------------------------------------------------------------------------------
 (7) _TMR1_DefaultInterruptHandler                         0     0      0       0
 ---------------------------------------------------------------------------------
 (7) Absolute function(Fake)                               0     0      0       0
 ---------------------------------------------------------------------------------
 Estimated maximum stack depth 7
 ---------------------------------------------------------------------------------

 Call Graph Graphs:

 _main (ROOT)
   _APP_LED_Initialize
   _APP_LED_Tasks
   _SYSTEM_Initialize
     _OSCILLATOR_Initialize
     _PIN_MANAGER_Initialize
     _TMR1_Initialize
       _TMR1_SetInterruptHandler
     _WDT_Initialize

 _INTERRUPT_InterruptManager (ROOT)
   _TMR1_ISR
     _TMR1_CallBack
       Absolute function(Fake) *
       _TMR1_DefaultInterruptHandler *
     _TMR1_WriteTimer

 Address spaces:
Name               Size   Autos  Total    Cost      Usage
BIGRAM             3F0      0       0       0        0.0%
NULL                 0      0       0       0        0.0%
CODE                 0      0       0       0        0.0%
BITCOMMON            E      0       0       1        0.0%
BITSFR0              0      0       0       1        0.0%
SFR0                 0      0       0       1        0.0%
COMMON               E      9       B       2       78.6%
BITSFR1              0      0       0       2        0.0%
SFR1                 0      0       0       2        0.0%
BITSFR2              0      0       0       3        0.0%
SFR2                 0      0       0       3        0.0%
STACK                0      0       0       3        0.0%
BITBANK0            50      0       0       4        0.0%
BITSFR3              0      0       0       4        0.0%
SFR3                 0      0       0       4        0.0%
BANK0               50      4      10       5       20.0%
BITSFR4              0      0       0       5        0.0%
SFR4                 0      0       0       5        0.0%
BITBANK1            50      0       0       6        0.0%
BITSFR5              0      0       0       6        0.0%
SFR5                 0      0       0       6        0.0%
BANK1               50      0       0       7        0.0%
BITSFR6              0      0       0       7        0.0%
SFR6                 0      0       0       7        0.0%
BITBANK2            50      0       0       8        0.0%
BITSFR7              0      0       0       8        0.0%
SFR7                 0      0       0       8        0.0%
BANK2               50      0       0       9        0.0%
BITSFR8              0      0       0       9        0.0%
SFR8                 0      0       0       9        0.0%
BITBANK3            50      0       0      10        0.0%
BITSFR9              0      0       0      10        0.0%
SFR9                 0      0       0      10        0.0%
BANK3               50      0       0      11        0.0%
BITSFR10             0      0       0      11        0.0%
SFR10                0      0       0      11        0.0%
BITBANK4            50      0       0      12        0.0%
BITSFR11             0      0       0      12        0.0%
SFR11                0      0       0      12        0.0%
BANK4               50      0       0      13        0.0%
BITSFR12             0      0       0      13        0.0%
SFR12                0      0       0      13        0.0%
BITBANK5            50      0       0      14        0.0%
BITSFR13             0      0       0      14        0.0%
SFR13                0      0       0      14        0.0%
BANK5               50      0       0      15        0.0%
BITSFR14             0      0       0      15        0.0%
SFR14                0      0       0      15        0.0%
BITBANK6            50      0       0      16        0.0%
BITSFR15             0      0       0      16        0.0%
SFR15                0      0       0      16        0.0%
BANK6               50      0       0      17        0.0%
BITSFR16             0      0       0      17        0.0%
SFR16                0      0       0      17        0.0%
BITBANK7            50      0       0      18        0.0%
BITSFR17             0      0       0      18        0.0%
SFR17                0      0       0      18        0.0%
BANK7               50      0       0      19        0.0%
BITSFR18             0      0       0      19        0.0%
SFR18                0      0       0      19        0.0%
BITSFR19             0      0       0      20        0.0%
SFR19                0      0       0      20        0.0%
ABS                  0      0      1B      20        0.0%
BITBANK8            50      0       0      21        0.0%
BITSFR20             0      0       0      21        0.0%
SFR20                0      0       0      21        0.0%
BANK8               50      0       0      22        0.0%
BITSFR21             0      0       0      22        0.0%
SFR21                0      0       0      22        0.0%
BITBANK9            50      0       0      23        0.0%
BITSFR22             0      0       0      23        0.0%
SFR22                0      0       0      23        0.0%
BANK9               50      0       0      24        0.0%
BITSFR23             0      0       0      24        0.0%
SFR23                0      0       0      24        0.0%
BITBANK10           50      0       0      25        0.0%
BITSFR24             0      0       0      25        0.0%
SFR24                0      0       0      25        0.0%
BANK10              50      0       0      26        0.0%
BITSFR25             0      0       0      26        0.0%
SFR25                0      0       0      26        0.0%
BITBANK11           50      0       0      27        0.0%
BITSFR26             0      0       0      27        0.0%
SFR26                0      0       0      27        0.0%
BANK11              50      0       0      28        0.0%
BITSFR27             0      0       0      28        0.0%
SFR27                0      0       0      28        0.0%
BITBANK12           30      0       0      29        0.0%
BITSFR28             0      0       0      29        0.0%
SFR28                0      0       0      29        0.0%
BANK12              30      0       0      30        0.0%
BITSFR29             0      0       0      30        0.0%
SFR29                0      0       0      30        0.0%
BITSFR30             0      0       0      31        0.0%
SFR30                0      0       0      31        0.0%
DATA                 0      0      1B      31        0.0%
BITSFR31             0      0       0      32        0.0%
SFR31                0      0       0      32        0.0%


Microchip Technology PIC Macro Assembler V2.10 build 88905656 
Symbol Table                                                                                   Thu Feb 20 11:48:48 2020

                             __CFG_CP$OFF 0000                                        l33 00BD  
                                      l66 0113                               __CFG_LVP$ON 0000  
                                     l103 0100                                       l106 0119  
                                     l109 011D                                       l154 00F3  
                                     l138 00A5                                       l158 002B  
                                     l168 0067                                       l910 008C  
                                     l920 009A                                       l912 0090  
                                     l922 009C                                       l914 0093  
                                     l930 011A                                       l940 00E8  
                                     l924 00A1                                       l916 0095  
                                     l942 00EC                                       l926 0114  
                                     l918 0097                                       l944 00ED  
                                     l928 0117                                       l872 010E  
                                     l880 00AC                                       l936 00F4  
                                     l946 00EF                                       l938 00E4  
                                     l882 00AD                                       l874 00A6  
                                     l884 00B1                                       l876 00A8  
                                     l886 00B3                                       l878 00AA  
                                     l888 00BA                                       u170 003C  
                                     u171 003B                                       u180 004E  
                                     u181 004B                                       u175 0038  
                                     u194 0050                           _timer1ReloadVal 0079  
                            __CFG_BORV$LO 0000                              __CFG_IESO$ON 0000  
                                    l1030 0041                                      l1032 0044  
                                    l1024 002A                                      l1026 002E  
                                    l1042 0053                                      l1050 0068  
                                    l1028 003C                                      l1052 006E  
                                    l1038 0051                                      l1054 006E  
                                    l1056 006F                                      l1090 005C  
                                    l1058 0070                                      _LATA 010C  
                                    _LATB 010D                                      _LATC 010E  
             __size_of_APP_LED_Initialize 0010                                      i1l63 00D2  
                                    i1l47 00E3                                      i1l59 010D  
                                    i1l69 011E                                      i1l86 0017  
                                    _WPUB 020D                                      _WPUE 0210  
                                    u9_20 00D8                                      u9_21 00D7  
                            __CFG_WRT$OFF 0000                             __CFG_FCMEN$ON 0000  
                                    _main 0068                                      fsr0h 0005  
                                    fsr1h 0007                                      fsr0l 0004  
                                    fsr1l 0006                                      btemp 007E  
                           __CFG_BOREN$ON 0000                                      start 0019  
              ??_TMR1_SetInterruptHandler 0074                             __CFG_MCLRE$ON 0000  
          __size_of_OSCILLATOR_Initialize 0006             __end_of_OSCILLATOR_Initialize 011A  
                                   ?_main 0070                             __CFG_WDTE$OFF 0000  
                                   _T1CON 0018                                     i1l900 00DF  
                                   i1l902 00E1                                     i1l904 00BE  
                                   i1l906 00C7                                     i1l908 00CD  
                                   i1l932 0101                                     i1l934 0103  
                                   i1l890 00D3                                     i1l892 00D8  
                                   i1l980 000F                                     i1l894 00D9  
                                   i1l982 0014                                     i1l896 00DB  
                                   i1l976 0006                                     i1l898 00DD  
                                   i1l978 000A                                     u10_20 00CD  
                                   u10_21 00CC                                     u14_20 000A  
                                   u14_21 0009                                     u15_20 000F  
                                   u15_21 000E                                     u16_20 0014  
                                   u16_21 0013                                     _TMR1H 0017  
                                   _TMR1L 0016                                     _TRISA 008C  
                                   _TRISB 008D                                     _TRISC 008E  
                        __end_of_TMR1_ISR 010E                            _WDT_Initialize 011A  
                 __end_of_TMR1_Initialize 00BE                                     pclath 000A  
                                   status 0003                                     wtemp0 007E  
                         _TMR1_WriteTimer 00D3                           __initialization 001B  
                            __end_of_main 008C                            __CFG_LPBOR$OFF 0000  
             ?_INTERRUPT_InterruptManager 0070                                    ??_main 0079  
                  __end_of_WDT_Initialize 011E                                    _APFCON 011D  
                                  _ANSELA 018C                                    _ANSELB 018D  
                                  _ANSELC 018E                                    _BORCON 0116  
                                  _T1GCON 0019                   TMR1_WriteTimer@timerVal 0070  
                                  _OSCCON 0099                                    _WDTCON 0097  
                          __CFG_PWRTE$OFF 0000      __end_of_TMR1_DefaultInterruptHandler 011F  
   __size_of_TMR1_DefaultInterruptHandler 0001              _TMR1_DefaultInterruptHandler 011E  
                          __CFG_STVREN$ON 0000                           ?_WDT_Initialize 0070  
                    APP_LED_Tasks@maxTime 0077  TMR1_SetInterruptHandler@InterruptHandler 0072  
                 __end_of_TMR1_WriteTimer 00E4                     __end_of_TMR1_CallBack 00D3  
                        ?_TMR1_Initialize 0070                         _SYSTEM_Initialize 00F4  
                 __end_of__initialization 0026                        ?_SYSTEM_Initialize 0070  
                          __pcstackCOMMON 0070                       ??_SYSTEM_Initialize 0074  
                               ?_TMR1_ISR 0070             ?_TMR1_DefaultInterruptHandler 0070  
                          _OPTION_REGbits 0095                     __end_of_APP_LED_Tasks 0068  
               __end_of_SYSTEM_Initialize 0101                                __pbssBANK0 0020  
                         __CFG_VCAPEN$OFF 0000                                __pnvCOMMON 0079  
                              __pmaintext 0068                                ??_TMR1_ISR 0072  
                              __pintentry 0004                __end_of_APP_LED_Initialize 00F4  
                        ?_TMR1_WriteTimer 0070                                   __ptext1 00F4  
                                 __ptext2 011A                                   __ptext3 00A6  
                                 __ptext4 010E                                   __ptext5 008C  
                                 __ptext6 0114                                   __ptext7 002A  
                                 __ptext8 00E4            ??_TMR1_DefaultInterruptHandler 0070  
                               _T1CONbits 0018                     _OSCILLATOR_Initialize 0114  
       __size_of_TMR1_SetInterruptHandler 0006                  ??_PIN_MANAGER_Initialize 0072  
               ?_TMR1_SetInterruptHandler 0072                __size_of_SYSTEM_Initialize 000D  
                    end_of_initialization 0026                          ??_WDT_Initialize 0072  
                        __CFG_FOSC$INTOSC 0000                         __size_of_TMR1_ISR 000D  
                  ?_OSCILLATOR_Initialize 0070                       start_initialization 001B  
         __size_of_PIN_MANAGER_Initialize 001A                  __size_of_TMR1_Initialize 0018  
                  __size_of_TMR1_CallBack 0015                                 ___latbits 0003  
                           __pcstackBANK0 002C                                 __pnvBANK0 002A  
                      _APP_LED_Initialize 00E4                    _PIN_MANAGER_Initialize 008C  
        __end_of_TMR1_SetInterruptHandler 0114                    __size_of_APP_LED_Tasks 003E  
                     ?_APP_LED_Initialize 0070              ??_INTERRUPT_InterruptManager 0072  
                    ??_APP_LED_Initialize 0072                               _appledData1 0025  
                             _appledData2 0020                             _TMR1_CallBack 00BE  
                                _LATAbits 010C                                  _PIE1bits 0091  
                __size_of_TMR1_WriteTimer 0011       __size_of_INTERRUPT_InterruptManager 0015  
                                _PIR1bits 0011                                  _TMR1_ISR 0101  
                       ??_TMR1_Initialize 0074                             _APP_LED_Tasks 002A  
                          ?_TMR1_CallBack 0070                   ??_OSCILLATOR_Initialize 0072  
                _TMR1_SetInterruptHandler 010E                   APP_LED_Tasks@appledData 0072  
                   _TMR1_InterruptHandler 002A                            ?_APP_LED_Tasks 0072  
                                __ptext10 0101                                  __ptext11 00D3  
                                __ptext12 00BE                                  __ptext13 011E  
                              _T1GCONbits 0019                             __size_of_main 0024  
                                int$flags 007E        __end_of_INTERRUPT_InterruptManager 0019  
              _INTERRUPT_InterruptManager 0004                         ??_TMR1_WriteTimer 0072  
                              _INTCONbits 000B                           ??_TMR1_CallBack 0070  
                 __size_of_WDT_Initialize 0004                                  intlevel1 0000  
                 ?_PIN_MANAGER_Initialize 0070                         __CFG_CLKOUTEN$OFF 0000  
                         ??_APP_LED_Tasks 002C            __end_of_PIN_MANAGER_Initialize 00A6  
                         _TMR1_Initialize 00A6  
