:020000040000FA
:04000000803119280A
:100008007E1480310B1F09280A2817282100111C8B
:100018000E280F2817282000111C13281428172829
:100028008231492280317E10090080311B28F0017D
:10003800F101F201F301F401F5012000A001A10191
:10004800A201A301A401A501A601A701A801A90174
:10005800AA01AB017E1020008131AF298E2804301F
:1000680082313C2280312000A101A2012000A3019D
:10007800A4012000A001A00AA52882316D228031A8
:10008800003A031948284928A5280330203E86004D
:10009800870182318D228031403F78072000A300FC
:1000A800413F793DA4002208803AB00080303002F8
:1000B800031D602810302102031C632864283D2892
:1000C80003302000B0003008A000A528A101A2013B
:1000D800230E0F39A800240EF039A804240E0F3976
:1000E800A900F030A91D0030A9042908F900280842
:1000F800F8008131FE2180313A2882319B228031FB
:1001080001302000A1070030A23D0230B0003008C5
:10011800A000A52820002008B000B1013108003A4D
:1001280003199728A5283008003A03193328013AFB
:1001380003198128033A03194128013A03196A2847
:10014800A5280800FA2820000C1DAB28AC28AF28E9
:10015800F001F00A10290330F8007808F00010299F
:1001680020000C19B828B92810290230F80078089E
:10017800F000F101F201102920000C1DC428C52847
:100188001029B9287208803AF80080307802031DD7
:10019800CF2832307102031CD228D328102920001E
:1001A8000C19D728D828D928AF28F001F00A03302D
:1001B8007306031DE028E128E6280230F8007808D5
:1001C800F300EA280330F8007808F3000330250626
:1001D800031DEF28F028F5280230F8007808A5005C
:1001E80010290330F8007808A50010297008F800D5
:1001F800F9017908003A0319022910297808003A08
:100208000319A728013A0319B428033A0319C62881
:10021800013A0319C028102908003A292000A5012D
:10022800A50A51292708803AF80080307802031D72
:100238001F29A3302602031C222923295129023011
:10024800F80078082000A500A601A701512903108D
:1002580022008C1C031403183229352922008C141F
:10026800372922008C101229A501512920002508C0
:10027800F800F9017908003A031943293829780860
:10028800003A03191229013A03191629033A0319E6
:100298002B29013A03195129382908007929F30132
:1002A800F30A8F297508803AF80080307802031D18
:1002B8005F29FA307402031C622963298F290230EE
:1002C800F8007808F300F401F5018F2903102200E3
:1002D8000C1C031403187129742922000C147629A4
:1002E80022000C105329F3018F297308F800F90133
:1002F8007908003A0319812977297808003A0319FF
:100308005329013A03195629033A03196A29013A6C
:1003180003198F29772908000130F4070030F53DCB
:1003280001302000A6070030A73D02307006031DEB
:100338009E299F29A3290130F1070030F23D2C089E
:100348002D040319A829A929AE292D088A002C08EB
:100358000A008131080082311522813182315E2202
:1003680081318231972281318231742281318B1718
:100378000B17813152218131813111218131803135
:10038800A6208131803132208131BD298031192860
:1003980022008C018D018E01FC3021008C00FF3081
:1003A8008D00FB308E00FC3023008E003F308D0026
:1003B80028308C00240090018D012100951722001F
:1003C8009D01080020009901F030970060309600E8
:1003D80011101708AF001608AE00210011149E3046
:1003E800F8000230F90082317B228131013020008F
:1003F800980008007908FB007808FA00FB36FA0C28
:10040800FB36FA0C7A082500910078080339FA00BF
:100418000430FA35890B0D2A1308CF397A04930072
:1004280008008131CC2182318231872282318231A8
:100438009322823182318122823182316622823155
:100448008231562282318131E62182310800200032
:10045800181D2F2A302A372A18107708970076088F
:10046800960018143B2A770897007608960008002B
:10047800F9007908F800F80DF80D21001D08780634
:10048800833978069D001D140800200011102F08DC
:10049800F7002E08F60082312B228231813190211B
:1004A80082310800FF3020009B009A01911004302F
:1004B8009C000800F301F401F5012000A501A60144
:1004C800A7010800013021009D009E019B019C01AD
:1004D8000800031021009D1C03140030093D08008A
:1004E8002000A001A301A401A101A201080079082C
:1004F8002000AD007808AC0008000C3025009300FF
:10050800910192010800783021009900220096019B
:10051800080021001C08F9001B08F8000800163024
:10052800210097000800F001F101F2010800210004
:060538009D1408000800FC
:020000040001F9
:04000E00E4FFFFFF0D
:00000001FF
