

Microchip MPLAB XC8 Assembler V2.10 build 88905656 
                                                                                               Thu Feb 27 11:36:05 2020

Microchip MPLAB XC8 C Compiler v2.10 (Free license) build 20190730164152 Og1 
     1                           	processor	16F1518
     2                           	opt	pw 120
     3                           	opt	flic
     4                           	psect	nvBANK0,global,class=BANK0,space=1,delta=1
     5                           	psect	cinit,global,class=CODE,merge=1,delta=2
     6                           	psect	bssCOMMON,global,class=COMMON,space=1,delta=1
     7                           	psect	bssBANK0,global,class=BANK0,space=1,delta=1
     8                           	psect	cstackCOMMON,global,class=COMMON,space=1,delta=1
     9                           	psect	cstackBANK0,global,class=BANK0,space=1,delta=1
    10                           	psect	maintext,global,class=CODE,merge=1,split=1,delta=2
    11                           	psect	text1,local,class=CODE,merge=1,delta=2
    12                           	psect	text2,local,class=CODE,merge=1,delta=2
    13                           	psect	text3,local,class=CODE,merge=1,delta=2
    14                           	psect	text4,local,class=CODE,merge=1,delta=2
    15                           	psect	text5,local,class=CODE,merge=1,delta=2
    16                           	psect	text6,local,class=CODE,merge=1,delta=2
    17                           	psect	text7,local,class=CODE,merge=1,delta=2
    18                           	psect	text8,local,class=CODE,merge=1,delta=2
    19                           	psect	text9,local,class=CODE,merge=1,delta=2
    20                           	psect	text10,local,class=CODE,merge=1,delta=2
    21                           	psect	text11,local,class=CODE,merge=1,delta=2
    22                           	psect	text12,local,class=CODE,merge=1,delta=2
    23                           	psect	text13,local,class=CODE,merge=1,delta=2
    24                           	psect	text14,local,class=CODE,merge=1,delta=2
    25                           	psect	text15,local,class=CODE,merge=1,delta=2
    26                           	psect	text16,local,class=CODE,merge=1,delta=2
    27                           	psect	text17,local,class=CODE,merge=1,delta=2
    28                           	psect	text18,local,class=CODE,merge=1,delta=2
    29                           	psect	text19,local,class=CODE,merge=1,delta=2
    30                           	psect	text20,local,class=CODE,merge=1,delta=2
    31                           	psect	text21,local,class=CODE,merge=1,delta=2
    32                           	psect	intentry,global,class=CODE,delta=2
    33                           	psect	text23,local,class=CODE,merge=1,delta=2
    34                           	psect	text24,local,class=CODE,merge=1,delta=2
    35                           	psect	text25,local,class=CODE,merge=1,delta=2
    36                           	psect	text26,local,class=CODE,merge=1,delta=2
    37                           	dabs	1,0x7E,2
    38  0000                     
    39                           ; Version 2.10
    40                           ; Generated 31/07/2019 GMT
    41                           ; 
    42                           ; Copyright © 2019, Microchip Technology Inc. and its subsidiaries ("Microchip")
    43                           ; All rights reserved.
    44                           ; 
    45                           ; This software is developed by Microchip Technology Inc. and its subsidiaries ("Microch
      +                          ip").
    46                           ; 
    47                           ; Redistribution and use in source and binary forms, with or without modification, are
    48                           ; permitted provided that the following conditions are met:
    49                           ; 
    50                           ;     1. Redistributions of source code must retain the above copyright notice, this lis
      +                          t of
    51                           ;        conditions and the following disclaimer.
    52                           ; 
    53                           ;     2. Redistributions in binary form must reproduce the above copyright notice, this 
      +                          list
    54                           ;        of conditions and the following disclaimer in the documentation and/or other
    55                           ;        materials provided with the distribution.
    56                           ; 
    57                           ;     3. Microchip's name may not be used to endorse or promote products derived from th
      +                          is
    58                           ;        software without specific prior written permission.
    59                           ; 
    60                           ; THIS SOFTWARE IS PROVIDED BY MICROCHIP "AS IS" AND ANY EXPRESS OR IMPLIED WARRANTIES,
    61                           ; INCLUDING, BUT NOT LIMITED TO, THE IMPLIED WARRANTIES OF MERCHANTABILITY AND FITNESS F
      +                          OR
    62                           ; PURPOSE ARE DISCLAIMED.  IN NO EVENT SHALL MICROCHIP BE LIABLE FOR ANY DIRECT, INDIREC
      +                          T,
    63                           ; INCIDENTAL, SPECIAL, EXEMPLARY, OR CONSEQUENTIAL DAMAGES (INCLUDING BUT NOT LIMITED TO
    64                           ; PROCUREMENT OF SUBSTITUTE GOODS OR SERVICES; LOSS OF USE, DATA OR PROFITS; OR BUSINESS
    65                           ; INTERRUPTION) HOWSOEVER CAUSED AND ON ANY THEORY OF LIABILITY, WHETHER IN CONTRACT, ST
      +                          RICT
    66                           ; LIABILITY, OR TORT (INCLUDING NEGLIGENCE OR OTHERWISE) ARISING IN ANY WAY OUT OF THE U
      +                          SE OF
    67                           ; THIS SOFTWARE, EVEN IF ADVISED OF THE POSSIBILITY OF SUCH DAMAGE.
    68                           ; 
    69                           ; 
    70                           ; Code-generator required, PIC16F1518 Definitions
    71                           ; 
    72                           ; SFR Addresses
    73  0000                     	;# 
    74  0001                     	;# 
    75  0002                     	;# 
    76  0003                     	;# 
    77  0004                     	;# 
    78  0005                     	;# 
    79  0006                     	;# 
    80  0007                     	;# 
    81  0008                     	;# 
    82  0009                     	;# 
    83  000A                     	;# 
    84  000B                     	;# 
    85  000C                     	;# 
    86  000D                     	;# 
    87  000E                     	;# 
    88  0010                     	;# 
    89  0011                     	;# 
    90  0012                     	;# 
    91  0015                     	;# 
    92  0016                     	;# 
    93  0016                     	;# 
    94  0017                     	;# 
    95  0018                     	;# 
    96  0019                     	;# 
    97  001A                     	;# 
    98  001B                     	;# 
    99  001C                     	;# 
   100  008C                     	;# 
   101  008D                     	;# 
   102  008E                     	;# 
   103  0090                     	;# 
   104  0091                     	;# 
   105  0092                     	;# 
   106  0095                     	;# 
   107  0096                     	;# 
   108  0097                     	;# 
   109  0099                     	;# 
   110  009A                     	;# 
   111  009B                     	;# 
   112  009B                     	;# 
   113  009C                     	;# 
   114  009D                     	;# 
   115  009E                     	;# 
   116  010C                     	;# 
   117  010D                     	;# 
   118  010E                     	;# 
   119  0116                     	;# 
   120  0117                     	;# 
   121  011D                     	;# 
   122  018C                     	;# 
   123  018D                     	;# 
   124  018E                     	;# 
   125  0191                     	;# 
   126  0191                     	;# 
   127  0192                     	;# 
   128  0193                     	;# 
   129  0193                     	;# 
   130  0194                     	;# 
   131  0195                     	;# 
   132  0196                     	;# 
   133  0197                     	;# 
   134  0199                     	;# 
   135  019A                     	;# 
   136  019B                     	;# 
   137  019B                     	;# 
   138  019B                     	;# 
   139  019B                     	;# 
   140  019C                     	;# 
   141  019C                     	;# 
   142  019D                     	;# 
   143  019E                     	;# 
   144  019F                     	;# 
   145  020D                     	;# 
   146  0210                     	;# 
   147  0211                     	;# 
   148  0211                     	;# 
   149  0212                     	;# 
   150  0212                     	;# 
   151  0213                     	;# 
   152  0213                     	;# 
   153  0214                     	;# 
   154  0214                     	;# 
   155  0215                     	;# 
   156  0215                     	;# 
   157  0215                     	;# 
   158  0216                     	;# 
   159  0216                     	;# 
   160  0217                     	;# 
   161  0217                     	;# 
   162  0291                     	;# 
   163  0291                     	;# 
   164  0292                     	;# 
   165  0293                     	;# 
   166  0298                     	;# 
   167  0298                     	;# 
   168  0299                     	;# 
   169  029A                     	;# 
   170  0394                     	;# 
   171  0395                     	;# 
   172  0396                     	;# 
   173  0FE4                     	;# 
   174  0FE5                     	;# 
   175  0FE6                     	;# 
   176  0FE7                     	;# 
   177  0FE8                     	;# 
   178  0FE9                     	;# 
   179  0FEA                     	;# 
   180  0FEB                     	;# 
   181  0FED                     	;# 
   182  0FEE                     	;# 
   183  0FEF                     	;# 
   184  0000                     	;# 
   185  0001                     	;# 
   186  0002                     	;# 
   187  0003                     	;# 
   188  0004                     	;# 
   189  0005                     	;# 
   190  0006                     	;# 
   191  0007                     	;# 
   192  0008                     	;# 
   193  0009                     	;# 
   194  000A                     	;# 
   195  000B                     	;# 
   196  000C                     	;# 
   197  000D                     	;# 
   198  000E                     	;# 
   199  0010                     	;# 
   200  0011                     	;# 
   201  0012                     	;# 
   202  0015                     	;# 
   203  0016                     	;# 
   204  0016                     	;# 
   205  0017                     	;# 
   206  0018                     	;# 
   207  0019                     	;# 
   208  001A                     	;# 
   209  001B                     	;# 
   210  001C                     	;# 
   211  008C                     	;# 
   212  008D                     	;# 
   213  008E                     	;# 
   214  0090                     	;# 
   215  0091                     	;# 
   216  0092                     	;# 
   217  0095                     	;# 
   218  0096                     	;# 
   219  0097                     	;# 
   220  0099                     	;# 
   221  009A                     	;# 
   222  009B                     	;# 
   223  009B                     	;# 
   224  009C                     	;# 
   225  009D                     	;# 
   226  009E                     	;# 
   227  010C                     	;# 
   228  010D                     	;# 
   229  010E                     	;# 
   230  0116                     	;# 
   231  0117                     	;# 
   232  011D                     	;# 
   233  018C                     	;# 
   234  018D                     	;# 
   235  018E                     	;# 
   236  0191                     	;# 
   237  0191                     	;# 
   238  0192                     	;# 
   239  0193                     	;# 
   240  0193                     	;# 
   241  0194                     	;# 
   242  0195                     	;# 
   243  0196                     	;# 
   244  0197                     	;# 
   245  0199                     	;# 
   246  019A                     	;# 
   247  019B                     	;# 
   248  019B                     	;# 
   249  019B                     	;# 
   250  019B                     	;# 
   251  019C                     	;# 
   252  019C                     	;# 
   253  019D                     	;# 
   254  019E                     	;# 
   255  019F                     	;# 
   256  020D                     	;# 
   257  0210                     	;# 
   258  0211                     	;# 
   259  0211                     	;# 
   260  0212                     	;# 
   261  0212                     	;# 
   262  0213                     	;# 
   263  0213                     	;# 
   264  0214                     	;# 
   265  0214                     	;# 
   266  0215                     	;# 
   267  0215                     	;# 
   268  0215                     	;# 
   269  0216                     	;# 
   270  0216                     	;# 
   271  0217                     	;# 
   272  0217                     	;# 
   273  0291                     	;# 
   274  0291                     	;# 
   275  0292                     	;# 
   276  0293                     	;# 
   277  0298                     	;# 
   278  0298                     	;# 
   279  0299                     	;# 
   280  029A                     	;# 
   281  0394                     	;# 
   282  0395                     	;# 
   283  0396                     	;# 
   284  0FE4                     	;# 
   285  0FE5                     	;# 
   286  0FE6                     	;# 
   287  0FE7                     	;# 
   288  0FE8                     	;# 
   289  0FE9                     	;# 
   290  0FEA                     	;# 
   291  0FEB                     	;# 
   292  0FED                     	;# 
   293  0FEE                     	;# 
   294  0FEF                     	;# 
   295  0000                     	;# 
   296  0001                     	;# 
   297  0002                     	;# 
   298  0003                     	;# 
   299  0004                     	;# 
   300  0005                     	;# 
   301  0006                     	;# 
   302  0007                     	;# 
   303  0008                     	;# 
   304  0009                     	;# 
   305  000A                     	;# 
   306  000B                     	;# 
   307  000C                     	;# 
   308  000D                     	;# 
   309  000E                     	;# 
   310  0010                     	;# 
   311  0011                     	;# 
   312  0012                     	;# 
   313  0015                     	;# 
   314  0016                     	;# 
   315  0016                     	;# 
   316  0017                     	;# 
   317  0018                     	;# 
   318  0019                     	;# 
   319  001A                     	;# 
   320  001B                     	;# 
   321  001C                     	;# 
   322  008C                     	;# 
   323  008D                     	;# 
   324  008E                     	;# 
   325  0090                     	;# 
   326  0091                     	;# 
   327  0092                     	;# 
   328  0095                     	;# 
   329  0096                     	;# 
   330  0097                     	;# 
   331  0099                     	;# 
   332  009A                     	;# 
   333  009B                     	;# 
   334  009B                     	;# 
   335  009C                     	;# 
   336  009D                     	;# 
   337  009E                     	;# 
   338  010C                     	;# 
   339  010D                     	;# 
   340  010E                     	;# 
   341  0116                     	;# 
   342  0117                     	;# 
   343  011D                     	;# 
   344  018C                     	;# 
   345  018D                     	;# 
   346  018E                     	;# 
   347  0191                     	;# 
   348  0191                     	;# 
   349  0192                     	;# 
   350  0193                     	;# 
   351  0193                     	;# 
   352  0194                     	;# 
   353  0195                     	;# 
   354  0196                     	;# 
   355  0197                     	;# 
   356  0199                     	;# 
   357  019A                     	;# 
   358  019B                     	;# 
   359  019B                     	;# 
   360  019B                     	;# 
   361  019B                     	;# 
   362  019C                     	;# 
   363  019C                     	;# 
   364  019D                     	;# 
   365  019E                     	;# 
   366  019F                     	;# 
   367  020D                     	;# 
   368  0210                     	;# 
   369  0211                     	;# 
   370  0211                     	;# 
   371  0212                     	;# 
   372  0212                     	;# 
   373  0213                     	;# 
   374  0213                     	;# 
   375  0214                     	;# 
   376  0214                     	;# 
   377  0215                     	;# 
   378  0215                     	;# 
   379  0215                     	;# 
   380  0216                     	;# 
   381  0216                     	;# 
   382  0217                     	;# 
   383  0217                     	;# 
   384  0291                     	;# 
   385  0291                     	;# 
   386  0292                     	;# 
   387  0293                     	;# 
   388  0298                     	;# 
   389  0298                     	;# 
   390  0299                     	;# 
   391  029A                     	;# 
   392  0394                     	;# 
   393  0395                     	;# 
   394  0396                     	;# 
   395  0FE4                     	;# 
   396  0FE5                     	;# 
   397  0FE6                     	;# 
   398  0FE7                     	;# 
   399  0FE8                     	;# 
   400  0FE9                     	;# 
   401  0FEA                     	;# 
   402  0FEB                     	;# 
   403  0FED                     	;# 
   404  0FEE                     	;# 
   405  0FEF                     	;# 
   406  0000                     	;# 
   407  0001                     	;# 
   408  0002                     	;# 
   409  0003                     	;# 
   410  0004                     	;# 
   411  0005                     	;# 
   412  0006                     	;# 
   413  0007                     	;# 
   414  0008                     	;# 
   415  0009                     	;# 
   416  000A                     	;# 
   417  000B                     	;# 
   418  000C                     	;# 
   419  000D                     	;# 
   420  000E                     	;# 
   421  0010                     	;# 
   422  0011                     	;# 
   423  0012                     	;# 
   424  0015                     	;# 
   425  0016                     	;# 
   426  0016                     	;# 
   427  0017                     	;# 
   428  0018                     	;# 
   429  0019                     	;# 
   430  001A                     	;# 
   431  001B                     	;# 
   432  001C                     	;# 
   433  008C                     	;# 
   434  008D                     	;# 
   435  008E                     	;# 
   436  0090                     	;# 
   437  0091                     	;# 
   438  0092                     	;# 
   439  0095                     	;# 
   440  0096                     	;# 
   441  0097                     	;# 
   442  0099                     	;# 
   443  009A                     	;# 
   444  009B                     	;# 
   445  009B                     	;# 
   446  009C                     	;# 
   447  009D                     	;# 
   448  009E                     	;# 
   449  010C                     	;# 
   450  010D                     	;# 
   451  010E                     	;# 
   452  0116                     	;# 
   453  0117                     	;# 
   454  011D                     	;# 
   455  018C                     	;# 
   456  018D                     	;# 
   457  018E                     	;# 
   458  0191                     	;# 
   459  0191                     	;# 
   460  0192                     	;# 
   461  0193                     	;# 
   462  0193                     	;# 
   463  0194                     	;# 
   464  0195                     	;# 
   465  0196                     	;# 
   466  0197                     	;# 
   467  0199                     	;# 
   468  019A                     	;# 
   469  019B                     	;# 
   470  019B                     	;# 
   471  019B                     	;# 
   472  019B                     	;# 
   473  019C                     	;# 
   474  019C                     	;# 
   475  019D                     	;# 
   476  019E                     	;# 
   477  019F                     	;# 
   478  020D                     	;# 
   479  0210                     	;# 
   480  0211                     	;# 
   481  0211                     	;# 
   482  0212                     	;# 
   483  0212                     	;# 
   484  0213                     	;# 
   485  0213                     	;# 
   486  0214                     	;# 
   487  0214                     	;# 
   488  0215                     	;# 
   489  0215                     	;# 
   490  0215                     	;# 
   491  0216                     	;# 
   492  0216                     	;# 
   493  0217                     	;# 
   494  0217                     	;# 
   495  0291                     	;# 
   496  0291                     	;# 
   497  0292                     	;# 
   498  0293                     	;# 
   499  0298                     	;# 
   500  0298                     	;# 
   501  0299                     	;# 
   502  029A                     	;# 
   503  0394                     	;# 
   504  0395                     	;# 
   505  0396                     	;# 
   506  0FE4                     	;# 
   507  0FE5                     	;# 
   508  0FE6                     	;# 
   509  0FE7                     	;# 
   510  0FE8                     	;# 
   511  0FE9                     	;# 
   512  0FEA                     	;# 
   513  0FEB                     	;# 
   514  0FED                     	;# 
   515  0FEE                     	;# 
   516  0FEF                     	;# 
   517  0000                     	;# 
   518  0001                     	;# 
   519  0002                     	;# 
   520  0003                     	;# 
   521  0004                     	;# 
   522  0005                     	;# 
   523  0006                     	;# 
   524  0007                     	;# 
   525  0008                     	;# 
   526  0009                     	;# 
   527  000A                     	;# 
   528  000B                     	;# 
   529  000C                     	;# 
   530  000D                     	;# 
   531  000E                     	;# 
   532  0010                     	;# 
   533  0011                     	;# 
   534  0012                     	;# 
   535  0015                     	;# 
   536  0016                     	;# 
   537  0016                     	;# 
   538  0017                     	;# 
   539  0018                     	;# 
   540  0019                     	;# 
   541  001A                     	;# 
   542  001B                     	;# 
   543  001C                     	;# 
   544  008C                     	;# 
   545  008D                     	;# 
   546  008E                     	;# 
   547  0090                     	;# 
   548  0091                     	;# 
   549  0092                     	;# 
   550  0095                     	;# 
   551  0096                     	;# 
   552  0097                     	;# 
   553  0099                     	;# 
   554  009A                     	;# 
   555  009B                     	;# 
   556  009B                     	;# 
   557  009C                     	;# 
   558  009D                     	;# 
   559  009E                     	;# 
   560  010C                     	;# 
   561  010D                     	;# 
   562  010E                     	;# 
   563  0116                     	;# 
   564  0117                     	;# 
   565  011D                     	;# 
   566  018C                     	;# 
   567  018D                     	;# 
   568  018E                     	;# 
   569  0191                     	;# 
   570  0191                     	;# 
   571  0192                     	;# 
   572  0193                     	;# 
   573  0193                     	;# 
   574  0194                     	;# 
   575  0195                     	;# 
   576  0196                     	;# 
   577  0197                     	;# 
   578  0199                     	;# 
   579  019A                     	;# 
   580  019B                     	;# 
   581  019B                     	;# 
   582  019B                     	;# 
   583  019B                     	;# 
   584  019C                     	;# 
   585  019C                     	;# 
   586  019D                     	;# 
   587  019E                     	;# 
   588  019F                     	;# 
   589  020D                     	;# 
   590  0210                     	;# 
   591  0211                     	;# 
   592  0211                     	;# 
   593  0212                     	;# 
   594  0212                     	;# 
   595  0213                     	;# 
   596  0213                     	;# 
   597  0214                     	;# 
   598  0214                     	;# 
   599  0215                     	;# 
   600  0215                     	;# 
   601  0215                     	;# 
   602  0216                     	;# 
   603  0216                     	;# 
   604  0217                     	;# 
   605  0217                     	;# 
   606  0291                     	;# 
   607  0291                     	;# 
   608  0292                     	;# 
   609  0293                     	;# 
   610  0298                     	;# 
   611  0298                     	;# 
   612  0299                     	;# 
   613  029A                     	;# 
   614  0394                     	;# 
   615  0395                     	;# 
   616  0396                     	;# 
   617  0FE4                     	;# 
   618  0FE5                     	;# 
   619  0FE6                     	;# 
   620  0FE7                     	;# 
   621  0FE8                     	;# 
   622  0FE9                     	;# 
   623  0FEA                     	;# 
   624  0FEB                     	;# 
   625  0FED                     	;# 
   626  0FEE                     	;# 
   627  0FEF                     	;# 
   628  0000                     	;# 
   629  0001                     	;# 
   630  0002                     	;# 
   631  0003                     	;# 
   632  0004                     	;# 
   633  0005                     	;# 
   634  0006                     	;# 
   635  0007                     	;# 
   636  0008                     	;# 
   637  0009                     	;# 
   638  000A                     	;# 
   639  000B                     	;# 
   640  000C                     	;# 
   641  000D                     	;# 
   642  000E                     	;# 
   643  0010                     	;# 
   644  0011                     	;# 
   645  0012                     	;# 
   646  0015                     	;# 
   647  0016                     	;# 
   648  0016                     	;# 
   649  0017                     	;# 
   650  0018                     	;# 
   651  0019                     	;# 
   652  001A                     	;# 
   653  001B                     	;# 
   654  001C                     	;# 
   655  008C                     	;# 
   656  008D                     	;# 
   657  008E                     	;# 
   658  0090                     	;# 
   659  0091                     	;# 
   660  0092                     	;# 
   661  0095                     	;# 
   662  0096                     	;# 
   663  0097                     	;# 
   664  0099                     	;# 
   665  009A                     	;# 
   666  009B                     	;# 
   667  009B                     	;# 
   668  009C                     	;# 
   669  009D                     	;# 
   670  009E                     	;# 
   671  010C                     	;# 
   672  010D                     	;# 
   673  010E                     	;# 
   674  0116                     	;# 
   675  0117                     	;# 
   676  011D                     	;# 
   677  018C                     	;# 
   678  018D                     	;# 
   679  018E                     	;# 
   680  0191                     	;# 
   681  0191                     	;# 
   682  0192                     	;# 
   683  0193                     	;# 
   684  0193                     	;# 
   685  0194                     	;# 
   686  0195                     	;# 
   687  0196                     	;# 
   688  0197                     	;# 
   689  0199                     	;# 
   690  019A                     	;# 
   691  019B                     	;# 
   692  019B                     	;# 
   693  019B                     	;# 
   694  019B                     	;# 
   695  019C                     	;# 
   696  019C                     	;# 
   697  019D                     	;# 
   698  019E                     	;# 
   699  019F                     	;# 
   700  020D                     	;# 
   701  0210                     	;# 
   702  0211                     	;# 
   703  0211                     	;# 
   704  0212                     	;# 
   705  0212                     	;# 
   706  0213                     	;# 
   707  0213                     	;# 
   708  0214                     	;# 
   709  0214                     	;# 
   710  0215                     	;# 
   711  0215                     	;# 
   712  0215                     	;# 
   713  0216                     	;# 
   714  0216                     	;# 
   715  0217                     	;# 
   716  0217                     	;# 
   717  0291                     	;# 
   718  0291                     	;# 
   719  0292                     	;# 
   720  0293                     	;# 
   721  0298                     	;# 
   722  0298                     	;# 
   723  0299                     	;# 
   724  029A                     	;# 
   725  0394                     	;# 
   726  0395                     	;# 
   727  0396                     	;# 
   728  0FE4                     	;# 
   729  0FE5                     	;# 
   730  0FE6                     	;# 
   731  0FE7                     	;# 
   732  0FE8                     	;# 
   733  0FE9                     	;# 
   734  0FEA                     	;# 
   735  0FEB                     	;# 
   736  0FED                     	;# 
   737  0FEE                     	;# 
   738  0FEF                     	;# 
   739  0000                     	;# 
   740  0001                     	;# 
   741  0002                     	;# 
   742  0003                     	;# 
   743  0004                     	;# 
   744  0005                     	;# 
   745  0006                     	;# 
   746  0007                     	;# 
   747  0008                     	;# 
   748  0009                     	;# 
   749  000A                     	;# 
   750  000B                     	;# 
   751  000C                     	;# 
   752  000D                     	;# 
   753  000E                     	;# 
   754  0010                     	;# 
   755  0011                     	;# 
   756  0012                     	;# 
   757  0015                     	;# 
   758  0016                     	;# 
   759  0016                     	;# 
   760  0017                     	;# 
   761  0018                     	;# 
   762  0019                     	;# 
   763  001A                     	;# 
   764  001B                     	;# 
   765  001C                     	;# 
   766  008C                     	;# 
   767  008D                     	;# 
   768  008E                     	;# 
   769  0090                     	;# 
   770  0091                     	;# 
   771  0092                     	;# 
   772  0095                     	;# 
   773  0096                     	;# 
   774  0097                     	;# 
   775  0099                     	;# 
   776  009A                     	;# 
   777  009B                     	;# 
   778  009B                     	;# 
   779  009C                     	;# 
   780  009D                     	;# 
   781  009E                     	;# 
   782  010C                     	;# 
   783  010D                     	;# 
   784  010E                     	;# 
   785  0116                     	;# 
   786  0117                     	;# 
   787  011D                     	;# 
   788  018C                     	;# 
   789  018D                     	;# 
   790  018E                     	;# 
   791  0191                     	;# 
   792  0191                     	;# 
   793  0192                     	;# 
   794  0193                     	;# 
   795  0193                     	;# 
   796  0194                     	;# 
   797  0195                     	;# 
   798  0196                     	;# 
   799  0197                     	;# 
   800  0199                     	;# 
   801  019A                     	;# 
   802  019B                     	;# 
   803  019B                     	;# 
   804  019B                     	;# 
   805  019B                     	;# 
   806  019C                     	;# 
   807  019C                     	;# 
   808  019D                     	;# 
   809  019E                     	;# 
   810  019F                     	;# 
   811  020D                     	;# 
   812  0210                     	;# 
   813  0211                     	;# 
   814  0211                     	;# 
   815  0212                     	;# 
   816  0212                     	;# 
   817  0213                     	;# 
   818  0213                     	;# 
   819  0214                     	;# 
   820  0214                     	;# 
   821  0215                     	;# 
   822  0215                     	;# 
   823  0215                     	;# 
   824  0216                     	;# 
   825  0216                     	;# 
   826  0217                     	;# 
   827  0217                     	;# 
   828  0291                     	;# 
   829  0291                     	;# 
   830  0292                     	;# 
   831  0293                     	;# 
   832  0298                     	;# 
   833  0298                     	;# 
   834  0299                     	;# 
   835  029A                     	;# 
   836  0394                     	;# 
   837  0395                     	;# 
   838  0396                     	;# 
   839  0FE4                     	;# 
   840  0FE5                     	;# 
   841  0FE6                     	;# 
   842  0FE7                     	;# 
   843  0FE8                     	;# 
   844  0FE9                     	;# 
   845  0FEA                     	;# 
   846  0FEB                     	;# 
   847  0FED                     	;# 
   848  0FEE                     	;# 
   849  0FEF                     	;# 
   850  0000                     	;# 
   851  0001                     	;# 
   852  0002                     	;# 
   853  0003                     	;# 
   854  0004                     	;# 
   855  0005                     	;# 
   856  0006                     	;# 
   857  0007                     	;# 
   858  0008                     	;# 
   859  0009                     	;# 
   860  000A                     	;# 
   861  000B                     	;# 
   862  000C                     	;# 
   863  000D                     	;# 
   864  000E                     	;# 
   865  0010                     	;# 
   866  0011                     	;# 
   867  0012                     	;# 
   868  0015                     	;# 
   869  0016                     	;# 
   870  0016                     	;# 
   871  0017                     	;# 
   872  0018                     	;# 
   873  0019                     	;# 
   874  001A                     	;# 
   875  001B                     	;# 
   876  001C                     	;# 
   877  008C                     	;# 
   878  008D                     	;# 
   879  008E                     	;# 
   880  0090                     	;# 
   881  0091                     	;# 
   882  0092                     	;# 
   883  0095                     	;# 
   884  0096                     	;# 
   885  0097                     	;# 
   886  0099                     	;# 
   887  009A                     	;# 
   888  009B                     	;# 
   889  009B                     	;# 
   890  009C                     	;# 
   891  009D                     	;# 
   892  009E                     	;# 
   893  010C                     	;# 
   894  010D                     	;# 
   895  010E                     	;# 
   896  0116                     	;# 
   897  0117                     	;# 
   898  011D                     	;# 
   899  018C                     	;# 
   900  018D                     	;# 
   901  018E                     	;# 
   902  0191                     	;# 
   903  0191                     	;# 
   904  0192                     	;# 
   905  0193                     	;# 
   906  0193                     	;# 
   907  0194                     	;# 
   908  0195                     	;# 
   909  0196                     	;# 
   910  0197                     	;# 
   911  0199                     	;# 
   912  019A                     	;# 
   913  019B                     	;# 
   914  019B                     	;# 
   915  019B                     	;# 
   916  019B                     	;# 
   917  019C                     	;# 
   918  019C                     	;# 
   919  019D                     	;# 
   920  019E                     	;# 
   921  019F                     	;# 
   922  020D                     	;# 
   923  0210                     	;# 
   924  0211                     	;# 
   925  0211                     	;# 
   926  0212                     	;# 
   927  0212                     	;# 
   928  0213                     	;# 
   929  0213                     	;# 
   930  0214                     	;# 
   931  0214                     	;# 
   932  0215                     	;# 
   933  0215                     	;# 
   934  0215                     	;# 
   935  0216                     	;# 
   936  0216                     	;# 
   937  0217                     	;# 
   938  0217                     	;# 
   939  0291                     	;# 
   940  0291                     	;# 
   941  0292                     	;# 
   942  0293                     	;# 
   943  0298                     	;# 
   944  0298                     	;# 
   945  0299                     	;# 
   946  029A                     	;# 
   947  0394                     	;# 
   948  0395                     	;# 
   949  0396                     	;# 
   950  0FE4                     	;# 
   951  0FE5                     	;# 
   952  0FE6                     	;# 
   953  0FE7                     	;# 
   954  0FE8                     	;# 
   955  0FE9                     	;# 
   956  0FEA                     	;# 
   957  0FEB                     	;# 
   958  0FED                     	;# 
   959  0FEE                     	;# 
   960  0FEF                     	;# 
   961  0000                     	;# 
   962  0001                     	;# 
   963  0002                     	;# 
   964  0003                     	;# 
   965  0004                     	;# 
   966  0005                     	;# 
   967  0006                     	;# 
   968  0007                     	;# 
   969  0008                     	;# 
   970  0009                     	;# 
   971  000A                     	;# 
   972  000B                     	;# 
   973  000C                     	;# 
   974  000D                     	;# 
   975  000E                     	;# 
   976  0010                     	;# 
   977  0011                     	;# 
   978  0012                     	;# 
   979  0015                     	;# 
   980  0016                     	;# 
   981  0016                     	;# 
   982  0017                     	;# 
   983  0018                     	;# 
   984  0019                     	;# 
   985  001A                     	;# 
   986  001B                     	;# 
   987  001C                     	;# 
   988  008C                     	;# 
   989  008D                     	;# 
   990  008E                     	;# 
   991  0090                     	;# 
   992  0091                     	;# 
   993  0092                     	;# 
   994  0095                     	;# 
   995  0096                     	;# 
   996  0097                     	;# 
   997  0099                     	;# 
   998  009A                     	;# 
   999  009B                     	;# 
  1000  009B                     	;# 
  1001  009C                     	;# 
  1002  009D                     	;# 
  1003  009E                     	;# 
  1004  010C                     	;# 
  1005  010D                     	;# 
  1006  010E                     	;# 
  1007  0116                     	;# 
  1008  0117                     	;# 
  1009  011D                     	;# 
  1010  018C                     	;# 
  1011  018D                     	;# 
  1012  018E                     	;# 
  1013  0191                     	;# 
  1014  0191                     	;# 
  1015  0192                     	;# 
  1016  0193                     	;# 
  1017  0193                     	;# 
  1018  0194                     	;# 
  1019  0195                     	;# 
  1020  0196                     	;# 
  1021  0197                     	;# 
  1022  0199                     	;# 
  1023  019A                     	;# 
  1024  019B                     	;# 
  1025  019B                     	;# 
  1026  019B                     	;# 
  1027  019B                     	;# 
  1028  019C                     	;# 
  1029  019C                     	;# 
  1030  019D                     	;# 
  1031  019E                     	;# 
  1032  019F                     	;# 
  1033  020D                     	;# 
  1034  0210                     	;# 
  1035  0211                     	;# 
  1036  0211                     	;# 
  1037  0212                     	;# 
  1038  0212                     	;# 
  1039  0213                     	;# 
  1040  0213                     	;# 
  1041  0214                     	;# 
  1042  0214                     	;# 
  1043  0215                     	;# 
  1044  0215                     	;# 
  1045  0215                     	;# 
  1046  0216                     	;# 
  1047  0216                     	;# 
  1048  0217                     	;# 
  1049  0217                     	;# 
  1050  0291                     	;# 
  1051  0291                     	;# 
  1052  0292                     	;# 
  1053  0293                     	;# 
  1054  0298                     	;# 
  1055  0298                     	;# 
  1056  0299                     	;# 
  1057  029A                     	;# 
  1058  0394                     	;# 
  1059  0395                     	;# 
  1060  0396                     	;# 
  1061  0FE4                     	;# 
  1062  0FE5                     	;# 
  1063  0FE6                     	;# 
  1064  0FE7                     	;# 
  1065  0FE8                     	;# 
  1066  0FE9                     	;# 
  1067  0FEA                     	;# 
  1068  0FEB                     	;# 
  1069  0FED                     	;# 
  1070  0FEE                     	;# 
  1071  0FEF                     	;# 
  1072                           
  1073                           	psect	nvBANK0
  1074  002C                     __pnvBANK0:	
  1075  002C                     _TMR1_InterruptHandler:	
  1076  002C                     	ds	2
  1077  002E                     _timer1ReloadVal:	
  1078  002E                     	ds	2
  1079  000C                     _PORTAbits	set	12
  1080  001C                     _T2CONbits	set	28
  1081  001C                     _T2CON	set	28
  1082  001A                     _TMR2	set	26
  1083  001B                     _PR2	set	27
  1084  000B                     _INTCONbits	set	11
  1085  0019                     _T1GCONbits	set	25
  1086  0018                     _T1CONbits	set	24
  1087  0018                     _T1CON	set	24
  1088  0011                     _PIR1bits	set	17
  1089  0016                     _TMR1L	set	22
  1090  0017                     _TMR1H	set	23
  1091  0019                     _T1GCON	set	25
  1092  009D                     _ADCON0bits	set	157
  1093  009C                     _ADRESH	set	156
  1094  009B                     _ADRESL	set	155
  1095  009E                     _ADCON1	set	158
  1096  009D                     _ADCON0	set	157
  1097  0095                     _OPTION_REGbits	set	149
  1098  008E                     _TRISC	set	142
  1099  008D                     _TRISB	set	141
  1100  008C                     _TRISA	set	140
  1101  0097                     _WDTCON	set	151
  1102  0099                     _OSCCON	set	153
  1103  0091                     _PIE1bits	set	145
  1104  010C                     _LATAbits	set	268
  1105  011D                     _APFCON	set	285
  1106  010E                     _LATC	set	270
  1107  010D                     _LATB	set	269
  1108  010C                     _LATA	set	268
  1109  0116                     _BORCON	set	278
  1110  018C                     _ANSELA	set	396
  1111  018D                     _ANSELB	set	397
  1112  018E                     _ANSELC	set	398
  1113  020D                     _WPUB	set	525
  1114  0210                     _WPUE	set	528
  1115  0292                     _CCPR1H	set	658
  1116  0291                     _CCPR1L	set	657
  1117  0293                     _CCP1CON	set	659
  1118                           
  1119                           ; #config settings
  1120  0000                     
  1121                           	psect	cinit
  1122  001B                     start_initialization:	
  1123  001B                     __initialization:	
  1124                           
  1125                           ; Clear objects allocated to COMMON
  1126  001B  01F0               	clrf	__pbssCOMMON& (0+127)
  1127  001C  01F1               	clrf	(__pbssCOMMON+1)& (0+127)
  1128  001D  01F2               	clrf	(__pbssCOMMON+2)& (0+127)
  1129  001E  01F3               	clrf	(__pbssCOMMON+3)& (0+127)
  1130  001F  01F4               	clrf	(__pbssCOMMON+4)& (0+127)
  1131  0020  01F5               	clrf	(__pbssCOMMON+5)& (0+127)
  1132                           
  1133                           ; Clear objects allocated to BANK0
  1134  0021  0020               	movlb	0	; select bank0
  1135  0022  01A0               	clrf	__pbssBANK0& (0+127)
  1136  0023  01A1               	clrf	(__pbssBANK0+1)& (0+127)
  1137  0024  01A2               	clrf	(__pbssBANK0+2)& (0+127)
  1138  0025  01A3               	clrf	(__pbssBANK0+3)& (0+127)
  1139  0026  01A4               	clrf	(__pbssBANK0+4)& (0+127)
  1140  0027  01A5               	clrf	(__pbssBANK0+5)& (0+127)
  1141  0028  01A6               	clrf	(__pbssBANK0+6)& (0+127)
  1142  0029  01A7               	clrf	(__pbssBANK0+7)& (0+127)
  1143  002A  01A8               	clrf	(__pbssBANK0+8)& (0+127)
  1144  002B  01A9               	clrf	(__pbssBANK0+9)& (0+127)
  1145  002C  01AA               	clrf	(__pbssBANK0+10)& (0+127)
  1146  002D  01AB               	clrf	(__pbssBANK0+11)& (0+127)
  1147  002E                     end_of_initialization:	
  1148                           ;End of C runtime variable initialization code
  1149                           
  1150  002E                     __end_of__initialization:	
  1151  002E  107E               	bcf	int$flags,0	;clear compiler interrupt flag (level 1)
  1152  002F  0020               	movlb	0
  1153  0030  3181  29AF         	ljmp	_main	;jump to C main() function
  1154                           
  1155                           	psect	bssCOMMON
  1156  0070                     __pbssCOMMON:	
  1157  0070                     _apps2Data:	
  1158  0070                     	ds	3
  1159  0073                     _appledData:	
  1160  0073                     	ds	3
  1161                           
  1162                           	psect	bssBANK0
  1163  0020                     __pbssBANK0:	
  1164  0020                     _appadcData:	
  1165  0020                     	ds	5
  1166  0025                     _appledData2:	
  1167  0025                     	ds	3
  1168  0028                     _ADCValue:	
  1169  0028                     	ds	2
  1170  002A                     _ADC_InterruptHandler:	
  1171  002A                     	ds	2
  1172                           
  1173                           	psect	cstackCOMMON
  1174  0076                     __pcstackCOMMON:	
  1175  0076                     ?_TMR1_DefaultInterruptHandler:	
  1176  0076                     ??_TMR1_DefaultInterruptHandler:	
  1177                           ; 1 bytes @ 0x0
  1178                           
  1179  0076                     ?_TMR1_CallBack:	
  1180                           ; 1 bytes @ 0x0
  1181                           
  1182  0076                     ??_TMR1_CallBack:	
  1183                           ; 1 bytes @ 0x0
  1184                           
  1185  0076                     ?_PIN_MANAGER_Initialize:	
  1186                           ; 1 bytes @ 0x0
  1187                           
  1188  0076                     ?_OSCILLATOR_Initialize:	
  1189                           ; 1 bytes @ 0x0
  1190                           
  1191  0076                     ?_WDT_Initialize:	
  1192                           ; 1 bytes @ 0x0
  1193                           
  1194  0076                     ?_PWM1_Initialize:	
  1195                           ; 1 bytes @ 0x0
  1196                           
  1197  0076                     ?_ADC_Initialize:	
  1198                           ; 1 bytes @ 0x0
  1199                           
  1200  0076                     ?_TMR2_Initialize:	
  1201                           ; 1 bytes @ 0x0
  1202                           
  1203  0076                     ?_APP_LED_Initialize:	
  1204                           ; 1 bytes @ 0x0
  1205                           
  1206  0076                     ?_APP_S2_Initialize:	
  1207                           ; 1 bytes @ 0x0
  1208                           
  1209  0076                     ?_APP_ADC_Initialize:	
  1210                           ; 1 bytes @ 0x0
  1211                           
  1212  0076                     ?_APP_LED_Tasks:	
  1213                           ; 1 bytes @ 0x0
  1214                           
  1215  0076                     ?_APP_LED_Tasks2:	
  1216                           ; 1 bytes @ 0x0
  1217                           
  1218  0076                     ?_APP_S2_Tasks:	
  1219                           ; 1 bytes @ 0x0
  1220                           
  1221  0076                     ?_APP_ADC_Tasks:	
  1222                           ; 1 bytes @ 0x0
  1223                           
  1224  0076                     ?_TMR1_Initialize:	
  1225                           ; 1 bytes @ 0x0
  1226                           
  1227  0076                     ?_TMR1_WriteTimer:	
  1228                           ; 1 bytes @ 0x0
  1229                           
  1230  0076                     ?_TMR1_ISR:	
  1231                           ; 1 bytes @ 0x0
  1232                           
  1233  0076                     ?_INTERRUPT_InterruptManager:	
  1234                           ; 1 bytes @ 0x0
  1235                           
  1236  0076                     ?_SYSTEM_Initialize:	
  1237                           ; 1 bytes @ 0x0
  1238                           
  1239  0076                     ?_ADC_SelectChannel:	
  1240                           ; 1 bytes @ 0x0
  1241                           
  1242  0076                     ?_ADC_StartConversion:	
  1243                           ; 1 bytes @ 0x0
  1244                           
  1245  0076                     ?_ADC_IsConversionDone:	
  1246                           ; 1 bytes @ 0x0
  1247                           
  1248  0076                     ?_main:	
  1249                           ; 1 bytes @ 0x0
  1250                           
  1251  0076                     TMR1_WriteTimer@timerVal:	
  1252                           ; 1 bytes @ 0x0
  1253                           
  1254                           
  1255                           ; 2 bytes @ 0x0
  1256  0076                     	ds	2
  1257  0078                     ?_TMR1_SetInterruptHandler:	
  1258  0078                     ??_PIN_MANAGER_Initialize:	
  1259                           ; 1 bytes @ 0x2
  1260                           
  1261  0078                     ??_OSCILLATOR_Initialize:	
  1262                           ; 1 bytes @ 0x2
  1263                           
  1264  0078                     ??_WDT_Initialize:	
  1265                           ; 1 bytes @ 0x2
  1266                           
  1267  0078                     ??_PWM1_Initialize:	
  1268                           ; 1 bytes @ 0x2
  1269                           
  1270  0078                     ??_ADC_Initialize:	
  1271                           ; 1 bytes @ 0x2
  1272                           
  1273  0078                     ??_TMR2_Initialize:	
  1274                           ; 1 bytes @ 0x2
  1275                           
  1276  0078                     ??_APP_LED_Initialize:	
  1277                           ; 1 bytes @ 0x2
  1278                           
  1279  0078                     ??_APP_S2_Initialize:	
  1280                           ; 1 bytes @ 0x2
  1281                           
  1282  0078                     ??_APP_ADC_Initialize:	
  1283                           ; 1 bytes @ 0x2
  1284                           
  1285  0078                     ??_APP_LED_Tasks:	
  1286                           ; 1 bytes @ 0x2
  1287                           
  1288  0078                     ??_APP_LED_Tasks2:	
  1289                           ; 1 bytes @ 0x2
  1290                           
  1291  0078                     ??_APP_S2_Tasks:	
  1292                           ; 1 bytes @ 0x2
  1293                           
  1294  0078                     ??_TMR1_WriteTimer:	
  1295                           ; 1 bytes @ 0x2
  1296                           
  1297  0078                     ??_TMR1_ISR:	
  1298                           ; 1 bytes @ 0x2
  1299                           
  1300  0078                     ??_INTERRUPT_InterruptManager:	
  1301                           ; 1 bytes @ 0x2
  1302                           
  1303  0078                     ?_PWM1_LoadDutyValue:	
  1304                           ; 1 bytes @ 0x2
  1305                           
  1306  0078                     ??_ADC_SelectChannel:	
  1307                           ; 1 bytes @ 0x2
  1308                           
  1309  0078                     ??_ADC_StartConversion:	
  1310                           ; 1 bytes @ 0x2
  1311                           
  1312  0078                     ??_ADC_IsConversionDone:	
  1313                           ; 1 bytes @ 0x2
  1314                           
  1315  0078                     ?_ADC_GetConversionResult:	
  1316                           ; 1 bytes @ 0x2
  1317                           
  1318  0078                     TMR1_SetInterruptHandler@InterruptHandler:	
  1319                           ; 2 bytes @ 0x2
  1320                           
  1321  0078                     PWM1_LoadDutyValue@dutyValue:	
  1322                           ; 2 bytes @ 0x2
  1323                           
  1324                           
  1325                           ; 2 bytes @ 0x2
  1326  0078                     	ds	1
  1327  0079                     ADC_SelectChannel@channel:	
  1328                           
  1329                           ; 1 bytes @ 0x3
  1330  0079                     	ds	1
  1331  007A                     ??_TMR1_SetInterruptHandler:	
  1332  007A                     ??_TMR1_Initialize:	
  1333                           ; 1 bytes @ 0x4
  1334                           
  1335  007A                     ??_SYSTEM_Initialize:	
  1336                           ; 1 bytes @ 0x4
  1337                           
  1338  007A                     ??_PWM1_LoadDutyValue:	
  1339                           ; 1 bytes @ 0x4
  1340                           
  1341  007A                     ??_ADC_GetConversionResult:	
  1342                           ; 1 bytes @ 0x4
  1343                           
  1344                           
  1345                           ; 1 bytes @ 0x4
  1346  007A                     	ds	2
  1347  007C                     ??_main:	
  1348                           
  1349                           	psect	cstackBANK0
  1350  0030                     __pcstackBANK0:	
  1351                           ; 1 bytes @ 0x6
  1352                           
  1353  0030                     ??_APP_ADC_Tasks:	
  1354                           
  1355                           ; 1 bytes @ 0x0
  1356  0030                     	ds	2
  1357                           
  1358                           	psect	maintext
  1359  01AF                     __pmaintext:	
  1360 ;;
  1361 ;;Main: autosize = 0, tempsize = 0, incstack = 0, save=0
  1362 ;;
  1363 ;; *************** function _main *****************
  1364 ;; Defined at:
  1365 ;;		line 51 in file "main.c"
  1366 ;; Parameters:    Size  Location     Type
  1367 ;;		None
  1368 ;; Auto vars:     Size  Location     Type
  1369 ;;		None
  1370 ;; Return value:  Size  Location     Type
  1371 ;;                  1    wreg      void 
  1372 ;; Registers used:
  1373 ;;		wreg, fsr0l, fsr0h, fsr1l, fsr1h, status,2, status,0, pclath, cstack
  1374 ;; Tracked objects:
  1375 ;;		On entry : B1F/0
  1376 ;;		On exit  : 0/0
  1377 ;;		Unchanged: 0/0
  1378 ;; Data sizes:     COMMON   BANK0   BANK1   BANK2   BANK3   BANK4   BANK5   BANK6   BANK7   BANK8   BANK9  BANK10  BANK1
      +1  BANK12
  1379 ;;      Params:         0       0       0       0       0       0       0       0       0       0       0       0       
      +0       0
  1380 ;;      Locals:         0       0       0       0       0       0       0       0       0       0       0       0       
      +0       0
  1381 ;;      Temps:          0       0       0       0       0       0       0       0       0       0       0       0       
      +0       0
  1382 ;;      Totals:         0       0       0       0       0       0       0       0       0       0       0       0       
      +0       0
  1383 ;;Total ram usage:        0 bytes
  1384 ;; Hardware stack levels required when called:    7
  1385 ;; This function calls:
  1386 ;;		_APP_ADC_Initialize
  1387 ;;		_APP_ADC_Tasks
  1388 ;;		_APP_LED_Initialize
  1389 ;;		_APP_LED_Tasks
  1390 ;;		_APP_LED_Tasks2
  1391 ;;		_APP_S2_Initialize
  1392 ;;		_APP_S2_Tasks
  1393 ;;		_SYSTEM_Initialize
  1394 ;; This function is called by:
  1395 ;;		Startup code after reset
  1396 ;; This function uses a non-reentrant model
  1397 ;;
  1398                           
  1399                           
  1400                           ;psect for function _main
  1401  01AF                     _main:	
  1402  01AF                     l1561:	
  1403                           ;incstack = 0
  1404                           ; Regs used in _main: [wreg-fsr1h+status,2+status,0+pclath+cstack]
  1405                           
  1406                           
  1407                           ;main.c: 53:     SYSTEM_Initialize();
  1408  01AF  3182  2215  3181   	fcall	_SYSTEM_Initialize
  1409  01B2                     l1563:	
  1410                           
  1411                           ;main.c: 54:     APP_LED_Initialize();
  1412  01B2  3182  225E  3181   	fcall	_APP_LED_Initialize
  1413  01B5                     l1565:	
  1414                           
  1415                           ;main.c: 55:     APP_S2_Initialize();
  1416  01B5  3182  2297  3181   	fcall	_APP_S2_Initialize
  1417  01B8                     l1567:	
  1418                           
  1419                           ;main.c: 56:     APP_ADC_Initialize();
  1420  01B8  3182  2274  3181   	fcall	_APP_ADC_Initialize
  1421  01BB                     l1569:	
  1422                           
  1423                           ;main.c: 62:     (INTCONbits.GIE = 1);
  1424  01BB  178B               	bsf	11,7	;volatile
  1425  01BC                     l1571:	
  1426                           
  1427                           ;main.c: 65:     (INTCONbits.PEIE = 1);
  1428  01BC  170B               	bsf	11,6	;volatile
  1429  01BD                     l1573:	
  1430                           
  1431                           ;main.c: 75:         APP_LED_Tasks();
  1432  01BD  3181  2152  3181   	fcall	_APP_LED_Tasks
  1433  01C0                     l1575:	
  1434                           
  1435                           ;main.c: 76:         APP_LED_Tasks2();
  1436  01C0  3181  2111  3181   	fcall	_APP_LED_Tasks2
  1437  01C3                     l1577:	
  1438                           
  1439                           ;main.c: 77:         APP_S2_Tasks();
  1440  01C3  3180  20A6  3181   	fcall	_APP_S2_Tasks
  1441  01C6                     l1579:	
  1442                           
  1443                           ;main.c: 78:         APP_ADC_Tasks();
  1444  01C6  3180  2032  3181   	fcall	_APP_ADC_Tasks
  1445  01C9  29BD               	goto	l1573
  1446  01CA  3180  2819         	ljmp	start
  1447  01CC                     __end_of_main:	
  1448                           
  1449                           	psect	text1
  1450  0215                     __ptext1:	
  1451 ;; *************** function _SYSTEM_Initialize *****************
  1452 ;; Defined at:
  1453 ;;		line 50 in file "mcc_generated_files/mcc.c"
  1454 ;; Parameters:    Size  Location     Type
  1455 ;;		None
  1456 ;; Auto vars:     Size  Location     Type
  1457 ;;		None
  1458 ;; Return value:  Size  Location     Type
  1459 ;;                  1    wreg      void 
  1460 ;; Registers used:
  1461 ;;		wreg, status,2, status,0, pclath, cstack
  1462 ;; Tracked objects:
  1463 ;;		On entry : 0/0
  1464 ;;		On exit  : 0/0
  1465 ;;		Unchanged: 0/0
  1466 ;; Data sizes:     COMMON   BANK0   BANK1   BANK2   BANK3   BANK4   BANK5   BANK6   BANK7   BANK8   BANK9  BANK10  BANK1
      +1  BANK12
  1467 ;;      Params:         0       0       0       0       0       0       0       0       0       0       0       0       
      +0       0
  1468 ;;      Locals:         0       0       0       0       0       0       0       0       0       0       0       0       
      +0       0
  1469 ;;      Temps:          0       0       0       0       0       0       0       0       0       0       0       0       
      +0       0
  1470 ;;      Totals:         0       0       0       0       0       0       0       0       0       0       0       0       
      +0       0
  1471 ;;Total ram usage:        0 bytes
  1472 ;; Hardware stack levels used:    1
  1473 ;; Hardware stack levels required when called:    6
  1474 ;; This function calls:
  1475 ;;		_ADC_Initialize
  1476 ;;		_OSCILLATOR_Initialize
  1477 ;;		_PIN_MANAGER_Initialize
  1478 ;;		_PWM1_Initialize
  1479 ;;		_TMR1_Initialize
  1480 ;;		_TMR2_Initialize
  1481 ;;		_WDT_Initialize
  1482 ;; This function is called by:
  1483 ;;		_main
  1484 ;; This function uses a non-reentrant model
  1485 ;;
  1486                           
  1487                           
  1488                           ;psect for function _SYSTEM_Initialize
  1489  0215                     _SYSTEM_Initialize:	
  1490  0215                     l1251:	
  1491                           ;incstack = 0
  1492                           ; Regs used in _SYSTEM_Initialize: [wreg+status,2+status,0+pclath+cstack]
  1493                           
  1494                           
  1495                           ;mcc_generated_files/mcc.c: 53:     PIN_MANAGER_Initialize();
  1496  0215  3181  21CC  3182   	fcall	_PIN_MANAGER_Initialize
  1497                           
  1498                           ;mcc_generated_files/mcc.c: 54:     OSCILLATOR_Initialize();
  1499  0218  3182  2287  3182   	fcall	_OSCILLATOR_Initialize
  1500                           
  1501                           ;mcc_generated_files/mcc.c: 55:     WDT_Initialize();
  1502  021B  3182  2293  3182   	fcall	_WDT_Initialize
  1503                           
  1504                           ;mcc_generated_files/mcc.c: 56:     PWM1_Initialize();
  1505  021E  3182  2281  3182   	fcall	_PWM1_Initialize
  1506                           
  1507                           ;mcc_generated_files/mcc.c: 57:     ADC_Initialize();
  1508  0221  3182  2266  3182   	fcall	_ADC_Initialize
  1509                           
  1510                           ;mcc_generated_files/mcc.c: 58:     TMR2_Initialize();
  1511  0224  3182  2256  3182   	fcall	_TMR2_Initialize
  1512                           
  1513                           ;mcc_generated_files/mcc.c: 59:     TMR1_Initialize();
  1514  0227  3181  21E6  3182   	fcall	_TMR1_Initialize
  1515  022A                     l112:	
  1516  022A  0008               	return
  1517  022B                     __end_of_SYSTEM_Initialize:	
  1518                           
  1519                           	psect	text2
  1520  0293                     __ptext2:	
  1521 ;; *************** function _WDT_Initialize *****************
  1522 ;; Defined at:
  1523 ;;		line 70 in file "mcc_generated_files/mcc.c"
  1524 ;; Parameters:    Size  Location     Type
  1525 ;;		None
  1526 ;; Auto vars:     Size  Location     Type
  1527 ;;		None
  1528 ;; Return value:  Size  Location     Type
  1529 ;;                  1    wreg      void 
  1530 ;; Registers used:
  1531 ;;		wreg
  1532 ;; Tracked objects:
  1533 ;;		On entry : 0/0
  1534 ;;		On exit  : 0/0
  1535 ;;		Unchanged: 0/0
  1536 ;; Data sizes:     COMMON   BANK0   BANK1   BANK2   BANK3   BANK4   BANK5   BANK6   BANK7   BANK8   BANK9  BANK10  BANK1
      +1  BANK12
  1537 ;;      Params:         0       0       0       0       0       0       0       0       0       0       0       0       
      +0       0
  1538 ;;      Locals:         0       0       0       0       0       0       0       0       0       0       0       0       
      +0       0
  1539 ;;      Temps:          0       0       0       0       0       0       0       0       0       0       0       0       
      +0       0
  1540 ;;      Totals:         0       0       0       0       0       0       0       0       0       0       0       0       
      +0       0
  1541 ;;Total ram usage:        0 bytes
  1542 ;; Hardware stack levels used:    1
  1543 ;; Hardware stack levels required when called:    4
  1544 ;; This function calls:
  1545 ;;		Nothing
  1546 ;; This function is called by:
  1547 ;;		_SYSTEM_Initialize
  1548 ;; This function uses a non-reentrant model
  1549 ;;
  1550                           
  1551                           
  1552                           ;psect for function _WDT_Initialize
  1553  0293                     _WDT_Initialize:	
  1554  0293                     l939:	
  1555                           ;incstack = 0
  1556                           ; Regs used in _WDT_Initialize: [wreg]
  1557                           
  1558                           
  1559                           ;mcc_generated_files/mcc.c: 73:     WDTCON = 0x16;
  1560  0293  3016               	movlw	22
  1561  0294  0021               	movlb	1	; select bank1
  1562  0295  0097               	movwf	23	;volatile
  1563  0296                     l118:	
  1564  0296  0008               	return
  1565  0297                     __end_of_WDT_Initialize:	
  1566                           
  1567                           	psect	text3
  1568  0256                     __ptext3:	
  1569 ;; *************** function _TMR2_Initialize *****************
  1570 ;; Defined at:
  1571 ;;		line 62 in file "mcc_generated_files/tmr2.c"
  1572 ;; Parameters:    Size  Location     Type
  1573 ;;		None
  1574 ;; Auto vars:     Size  Location     Type
  1575 ;;		None
  1576 ;; Return value:  Size  Location     Type
  1577 ;;                  1    wreg      void 
  1578 ;; Registers used:
  1579 ;;		wreg, status,2
  1580 ;; Tracked objects:
  1581 ;;		On entry : 0/0
  1582 ;;		On exit  : 0/0
  1583 ;;		Unchanged: 0/0
  1584 ;; Data sizes:     COMMON   BANK0   BANK1   BANK2   BANK3   BANK4   BANK5   BANK6   BANK7   BANK8   BANK9  BANK10  BANK1
      +1  BANK12
  1585 ;;      Params:         0       0       0       0       0       0       0       0       0       0       0       0       
      +0       0
  1586 ;;      Locals:         0       0       0       0       0       0       0       0       0       0       0       0       
      +0       0
  1587 ;;      Temps:          0       0       0       0       0       0       0       0       0       0       0       0       
      +0       0
  1588 ;;      Totals:         0       0       0       0       0       0       0       0       0       0       0       0       
      +0       0
  1589 ;;Total ram usage:        0 bytes
  1590 ;; Hardware stack levels used:    1
  1591 ;; Hardware stack levels required when called:    4
  1592 ;; This function calls:
  1593 ;;		Nothing
  1594 ;; This function is called by:
  1595 ;;		_SYSTEM_Initialize
  1596 ;; This function uses a non-reentrant model
  1597 ;;
  1598                           
  1599                           
  1600                           ;psect for function _TMR2_Initialize
  1601  0256                     _TMR2_Initialize:	
  1602  0256                     l955:	
  1603                           ;incstack = 0
  1604                           ; Regs used in _TMR2_Initialize: [wreg+status,2]
  1605                           
  1606                           
  1607                           ;mcc_generated_files/tmr2.c: 67:     PR2 = 0xFF;
  1608  0256  30FF               	movlw	255
  1609  0257  0020               	movlb	0	; select bank0
  1610  0258  009B               	movwf	27	;volatile
  1611  0259                     l957:	
  1612                           
  1613                           ;mcc_generated_files/tmr2.c: 70:     TMR2 = 0x00;
  1614  0259  019A               	clrf	26	;volatile
  1615  025A                     l959:	
  1616                           
  1617                           ;mcc_generated_files/tmr2.c: 73:     PIR1bits.TMR2IF = 0;
  1618  025A  1091               	bcf	17,1	;volatile
  1619  025B                     l961:	
  1620                           
  1621                           ;mcc_generated_files/tmr2.c: 76:     T2CON = 0x04;
  1622  025B  3004               	movlw	4
  1623  025C  009C               	movwf	28	;volatile
  1624  025D                     l175:	
  1625  025D  0008               	return
  1626  025E                     __end_of_TMR2_Initialize:	
  1627                           
  1628                           	psect	text4
  1629  01E6                     __ptext4:	
  1630 ;; *************** function _TMR1_Initialize *****************
  1631 ;; Defined at:
  1632 ;;		line 65 in file "mcc_generated_files/tmr1.c"
  1633 ;; Parameters:    Size  Location     Type
  1634 ;;		None
  1635 ;; Auto vars:     Size  Location     Type
  1636 ;;		None
  1637 ;; Return value:  Size  Location     Type
  1638 ;;                  1    wreg      void 
  1639 ;; Registers used:
  1640 ;;		wreg, status,2, status,0, pclath, cstack
  1641 ;; Tracked objects:
  1642 ;;		On entry : 0/0
  1643 ;;		On exit  : 0/0
  1644 ;;		Unchanged: 0/0
  1645 ;; Data sizes:     COMMON   BANK0   BANK1   BANK2   BANK3   BANK4   BANK5   BANK6   BANK7   BANK8   BANK9  BANK10  BANK1
      +1  BANK12
  1646 ;;      Params:         0       0       0       0       0       0       0       0       0       0       0       0       
      +0       0
  1647 ;;      Locals:         0       0       0       0       0       0       0       0       0       0       0       0       
      +0       0
  1648 ;;      Temps:          0       0       0       0       0       0       0       0       0       0       0       0       
      +0       0
  1649 ;;      Totals:         0       0       0       0       0       0       0       0       0       0       0       0       
      +0       0
  1650 ;;Total ram usage:        0 bytes
  1651 ;; Hardware stack levels used:    1
  1652 ;; Hardware stack levels required when called:    5
  1653 ;; This function calls:
  1654 ;;		_TMR1_SetInterruptHandler
  1655 ;; This function is called by:
  1656 ;;		_SYSTEM_Initialize
  1657 ;; This function uses a non-reentrant model
  1658 ;;
  1659                           
  1660                           
  1661                           ;psect for function _TMR1_Initialize
  1662  01E6                     _TMR1_Initialize:	
  1663  01E6                     l1191:	
  1664                           ;incstack = 0
  1665                           ; Regs used in _TMR1_Initialize: [wreg+status,2+status,0+pclath+cstack]
  1666                           
  1667                           
  1668                           ;mcc_generated_files/tmr1.c: 70:     T1GCON = 0x00;
  1669  01E6  0020               	movlb	0	; select bank0
  1670  01E7  0199               	clrf	25	;volatile
  1671  01E8                     l1193:	
  1672                           
  1673                           ;mcc_generated_files/tmr1.c: 73:     TMR1H = 0xF0;
  1674  01E8  30F0               	movlw	240
  1675  01E9  0097               	movwf	23	;volatile
  1676  01EA                     l1195:	
  1677                           
  1678                           ;mcc_generated_files/tmr1.c: 76:     TMR1L = 0x60;
  1679  01EA  3060               	movlw	96
  1680  01EB  0096               	movwf	22	;volatile
  1681  01EC                     l1197:	
  1682                           
  1683                           ;mcc_generated_files/tmr1.c: 79:     PIR1bits.TMR1IF = 0;
  1684  01EC  1011               	bcf	17,0	;volatile
  1685  01ED                     l1199:	
  1686                           
  1687                           ;mcc_generated_files/tmr1.c: 82:     timer1ReloadVal=(uint16_t)((TMR1H << 8) | TMR1L);
  1688  01ED  0817               	movf	23,w	;volatile
  1689  01EE  00AF               	movwf	_timer1ReloadVal+1	;volatile
  1690  01EF  0816               	movf	22,w	;volatile
  1691  01F0  00AE               	movwf	_timer1ReloadVal	;volatile
  1692  01F1                     l1201:	
  1693                           
  1694                           ;mcc_generated_files/tmr1.c: 85:     PIE1bits.TMR1IE = 1;
  1695  01F1  0021               	movlb	1	; select bank1
  1696  01F2  1411               	bsf	17,0	;volatile
  1697  01F3                     l1203:	
  1698                           
  1699                           ;mcc_generated_files/tmr1.c: 88:     TMR1_SetInterruptHandler(TMR1_DefaultInterruptHandl
      +                          er);
  1700  01F3  309E               	movlw	low _TMR1_DefaultInterruptHandler
  1701  01F4  00F8               	movwf	TMR1_SetInterruptHandler@InterruptHandler
  1702  01F5  3002               	movlw	high _TMR1_DefaultInterruptHandler
  1703  01F6  00F9               	movwf	TMR1_SetInterruptHandler@InterruptHandler+1
  1704  01F7  3182  227B  3181   	fcall	_TMR1_SetInterruptHandler
  1705  01FA                     l1205:	
  1706                           
  1707                           ;mcc_generated_files/tmr1.c: 91:     T1CON = 0x01;
  1708  01FA  3001               	movlw	1
  1709  01FB  0020               	movlb	0	; select bank0
  1710  01FC  0098               	movwf	24	;volatile
  1711  01FD                     l35:	
  1712  01FD  0008               	return
  1713  01FE                     __end_of_TMR1_Initialize:	
  1714                           
  1715                           	psect	text5
  1716  027B                     __ptext5:	
  1717 ;; *************** function _TMR1_SetInterruptHandler *****************
  1718 ;; Defined at:
  1719 ;;		line 188 in file "mcc_generated_files/tmr1.c"
  1720 ;; Parameters:    Size  Location     Type
  1721 ;;  InterruptHan    2    2[COMMON] PTR FTN()void 
  1722 ;;		 -> TMR1_DefaultInterruptHandler(1), 
  1723 ;; Auto vars:     Size  Location     Type
  1724 ;;		None
  1725 ;; Return value:  Size  Location     Type
  1726 ;;                  1    wreg      void 
  1727 ;; Registers used:
  1728 ;;		wreg
  1729 ;; Tracked objects:
  1730 ;;		On entry : 0/0
  1731 ;;		On exit  : 0/0
  1732 ;;		Unchanged: 0/0
  1733 ;; Data sizes:     COMMON   BANK0   BANK1   BANK2   BANK3   BANK4   BANK5   BANK6   BANK7   BANK8   BANK9  BANK10  BANK1
      +1  BANK12
  1734 ;;      Params:         2       0       0       0       0       0       0       0       0       0       0       0       
      +0       0
  1735 ;;      Locals:         0       0       0       0       0       0       0       0       0       0       0       0       
      +0       0
  1736 ;;      Temps:          0       0       0       0       0       0       0       0       0       0       0       0       
      +0       0
  1737 ;;      Totals:         2       0       0       0       0       0       0       0       0       0       0       0       
      +0       0
  1738 ;;Total ram usage:        2 bytes
  1739 ;; Hardware stack levels used:    1
  1740 ;; Hardware stack levels required when called:    4
  1741 ;; This function calls:
  1742 ;;		Nothing
  1743 ;; This function is called by:
  1744 ;;		_TMR1_Initialize
  1745 ;; This function uses a non-reentrant model
  1746 ;;
  1747                           
  1748                           
  1749                           ;psect for function _TMR1_SetInterruptHandler
  1750  027B                     _TMR1_SetInterruptHandler:	
  1751  027B                     l1189:	
  1752                           ;incstack = 0
  1753                           ; Regs used in _TMR1_SetInterruptHandler: [wreg]
  1754                           
  1755                           
  1756                           ;mcc_generated_files/tmr1.c: 189:     TMR1_InterruptHandler = InterruptHandler;
  1757  027B  0879               	movf	TMR1_SetInterruptHandler@InterruptHandler+1,w
  1758  027C  0020               	movlb	0	; select bank0
  1759  027D  00AD               	movwf	_TMR1_InterruptHandler+1
  1760  027E  0878               	movf	TMR1_SetInterruptHandler@InterruptHandler,w
  1761  027F  00AC               	movwf	_TMR1_InterruptHandler
  1762  0280                     l69:	
  1763  0280  0008               	return
  1764  0281                     __end_of_TMR1_SetInterruptHandler:	
  1765                           
  1766                           	psect	text6
  1767  0281                     __ptext6:	
  1768 ;; *************** function _PWM1_Initialize *****************
  1769 ;; Defined at:
  1770 ;;		line 64 in file "mcc_generated_files/pwm1.c"
  1771 ;; Parameters:    Size  Location     Type
  1772 ;;		None
  1773 ;; Auto vars:     Size  Location     Type
  1774 ;;		None
  1775 ;; Return value:  Size  Location     Type
  1776 ;;                  1    wreg      void 
  1777 ;; Registers used:
  1778 ;;		wreg, status,2
  1779 ;; Tracked objects:
  1780 ;;		On entry : 0/0
  1781 ;;		On exit  : 0/0
  1782 ;;		Unchanged: 0/0
  1783 ;; Data sizes:     COMMON   BANK0   BANK1   BANK2   BANK3   BANK4   BANK5   BANK6   BANK7   BANK8   BANK9  BANK10  BANK1
      +1  BANK12
  1784 ;;      Params:         0       0       0       0       0       0       0       0       0       0       0       0       
      +0       0
  1785 ;;      Locals:         0       0       0       0       0       0       0       0       0       0       0       0       
      +0       0
  1786 ;;      Temps:          0       0       0       0       0       0       0       0       0       0       0       0       
      +0       0
  1787 ;;      Totals:         0       0       0       0       0       0       0       0       0       0       0       0       
      +0       0
  1788 ;;Total ram usage:        0 bytes
  1789 ;; Hardware stack levels used:    1
  1790 ;; Hardware stack levels required when called:    4
  1791 ;; This function calls:
  1792 ;;		Nothing
  1793 ;; This function is called by:
  1794 ;;		_SYSTEM_Initialize
  1795 ;; This function uses a non-reentrant model
  1796 ;;
  1797                           
  1798                           
  1799                           ;psect for function _PWM1_Initialize
  1800  0281                     _PWM1_Initialize:	
  1801  0281                     l941:	
  1802                           ;incstack = 0
  1803                           ; Regs used in _PWM1_Initialize: [wreg+status,2]
  1804                           
  1805                           
  1806                           ;mcc_generated_files/pwm1.c: 69:  CCP1CON = 0x0C;
  1807  0281  300C               	movlw	12
  1808  0282  0025               	movlb	5	; select bank5
  1809  0283  0093               	movwf	19	;volatile
  1810  0284                     l943:	
  1811                           
  1812                           ;mcc_generated_files/pwm1.c: 72:  CCPR1L = 0x00;
  1813  0284  0191               	clrf	17	;volatile
  1814  0285                     l945:	
  1815                           
  1816                           ;mcc_generated_files/pwm1.c: 75:  CCPR1H = 0x00;
  1817  0285  0192               	clrf	18	;volatile
  1818  0286                     l159:	
  1819  0286  0008               	return
  1820  0287                     __end_of_PWM1_Initialize:	
  1821                           
  1822                           	psect	text7
  1823  01CC                     __ptext7:	
  1824 ;; *************** function _PIN_MANAGER_Initialize *****************
  1825 ;; Defined at:
  1826 ;;		line 55 in file "mcc_generated_files/pin_manager.c"
  1827 ;; Parameters:    Size  Location     Type
  1828 ;;		None
  1829 ;; Auto vars:     Size  Location     Type
  1830 ;;		None
  1831 ;; Return value:  Size  Location     Type
  1832 ;;                  1    wreg      void 
  1833 ;; Registers used:
  1834 ;;		wreg, status,2
  1835 ;; Tracked objects:
  1836 ;;		On entry : 0/0
  1837 ;;		On exit  : 0/0
  1838 ;;		Unchanged: 0/0
  1839 ;; Data sizes:     COMMON   BANK0   BANK1   BANK2   BANK3   BANK4   BANK5   BANK6   BANK7   BANK8   BANK9  BANK10  BANK1
      +1  BANK12
  1840 ;;      Params:         0       0       0       0       0       0       0       0       0       0       0       0       
      +0       0
  1841 ;;      Locals:         0       0       0       0       0       0       0       0       0       0       0       0       
      +0       0
  1842 ;;      Temps:          0       0       0       0       0       0       0       0       0       0       0       0       
      +0       0
  1843 ;;      Totals:         0       0       0       0       0       0       0       0       0       0       0       0       
      +0       0
  1844 ;;Total ram usage:        0 bytes
  1845 ;; Hardware stack levels used:    1
  1846 ;; Hardware stack levels required when called:    4
  1847 ;; This function calls:
  1848 ;;		Nothing
  1849 ;; This function is called by:
  1850 ;;		_SYSTEM_Initialize
  1851 ;; This function uses a non-reentrant model
  1852 ;;
  1853                           
  1854                           
  1855                           ;psect for function _PIN_MANAGER_Initialize
  1856  01CC                     _PIN_MANAGER_Initialize:	
  1857  01CC                     l919:	
  1858                           ;incstack = 0
  1859                           ; Regs used in _PIN_MANAGER_Initialize: [wreg+status,2]
  1860                           
  1861                           
  1862                           ;mcc_generated_files/pin_manager.c: 60:     LATA = 0x00;
  1863  01CC  0022               	movlb	2	; select bank2
  1864  01CD  018C               	clrf	12	;volatile
  1865                           
  1866                           ;mcc_generated_files/pin_manager.c: 61:     LATB = 0x00;
  1867  01CE  018D               	clrf	13	;volatile
  1868                           
  1869                           ;mcc_generated_files/pin_manager.c: 62:     LATC = 0x00;
  1870  01CF  018E               	clrf	14	;volatile
  1871  01D0                     l921:	
  1872                           
  1873                           ;mcc_generated_files/pin_manager.c: 67:     TRISA = 0xFC;
  1874  01D0  30FC               	movlw	252
  1875  01D1  0021               	movlb	1	; select bank1
  1876  01D2  008C               	movwf	12	;volatile
  1877  01D3                     l923:	
  1878                           
  1879                           ;mcc_generated_files/pin_manager.c: 68:     TRISB = 0xFF;
  1880  01D3  30FF               	movlw	255
  1881  01D4  008D               	movwf	13	;volatile
  1882  01D5                     l925:	
  1883                           
  1884                           ;mcc_generated_files/pin_manager.c: 69:     TRISC = 0xFB;
  1885  01D5  30FB               	movlw	251
  1886  01D6  008E               	movwf	14	;volatile
  1887  01D7                     l927:	
  1888                           
  1889                           ;mcc_generated_files/pin_manager.c: 74:     ANSELC = 0xFC;
  1890  01D7  30FC               	movlw	252
  1891  01D8  0023               	movlb	3	; select bank3
  1892  01D9  008E               	movwf	14	;volatile
  1893  01DA                     l929:	
  1894                           
  1895                           ;mcc_generated_files/pin_manager.c: 75:     ANSELB = 0x3F;
  1896  01DA  303F               	movlw	63
  1897  01DB  008D               	movwf	13	;volatile
  1898  01DC                     l931:	
  1899                           
  1900                           ;mcc_generated_files/pin_manager.c: 76:     ANSELA = 0x28;
  1901  01DC  3028               	movlw	40
  1902  01DD  008C               	movwf	12	;volatile
  1903                           
  1904                           ;mcc_generated_files/pin_manager.c: 81:     WPUE = 0x00;
  1905  01DE  0024               	movlb	4	; select bank4
  1906  01DF  0190               	clrf	16	;volatile
  1907                           
  1908                           ;mcc_generated_files/pin_manager.c: 82:     WPUB = 0x00;
  1909  01E0  018D               	clrf	13	;volatile
  1910  01E1                     l933:	
  1911                           
  1912                           ;mcc_generated_files/pin_manager.c: 83:     OPTION_REGbits.nWPUEN = 1;
  1913  01E1  0021               	movlb	1	; select bank1
  1914  01E2  1795               	bsf	21,7	;volatile
  1915                           
  1916                           ;mcc_generated_files/pin_manager.c: 89:     APFCON = 0x00;
  1917  01E3  0022               	movlb	2	; select bank2
  1918  01E4  019D               	clrf	29	;volatile
  1919  01E5                     l147:	
  1920  01E5  0008               	return
  1921  01E6                     __end_of_PIN_MANAGER_Initialize:	
  1922                           
  1923                           	psect	text8
  1924  0287                     __ptext8:	
  1925 ;; *************** function _OSCILLATOR_Initialize *****************
  1926 ;; Defined at:
  1927 ;;		line 62 in file "mcc_generated_files/mcc.c"
  1928 ;; Parameters:    Size  Location     Type
  1929 ;;		None
  1930 ;; Auto vars:     Size  Location     Type
  1931 ;;		None
  1932 ;; Return value:  Size  Location     Type
  1933 ;;                  1    wreg      void 
  1934 ;; Registers used:
  1935 ;;		wreg, status,2
  1936 ;; Tracked objects:
  1937 ;;		On entry : 0/0
  1938 ;;		On exit  : 0/0
  1939 ;;		Unchanged: 0/0
  1940 ;; Data sizes:     COMMON   BANK0   BANK1   BANK2   BANK3   BANK4   BANK5   BANK6   BANK7   BANK8   BANK9  BANK10  BANK1
      +1  BANK12
  1941 ;;      Params:         0       0       0       0       0       0       0       0       0       0       0       0       
      +0       0
  1942 ;;      Locals:         0       0       0       0       0       0       0       0       0       0       0       0       
      +0       0
  1943 ;;      Temps:          0       0       0       0       0       0       0       0       0       0       0       0       
      +0       0
  1944 ;;      Totals:         0       0       0       0       0       0       0       0       0       0       0       0       
      +0       0
  1945 ;;Total ram usage:        0 bytes
  1946 ;; Hardware stack levels used:    1
  1947 ;; Hardware stack levels required when called:    4
  1948 ;; This function calls:
  1949 ;;		Nothing
  1950 ;; This function is called by:
  1951 ;;		_SYSTEM_Initialize
  1952 ;; This function uses a non-reentrant model
  1953 ;;
  1954                           
  1955                           
  1956                           ;psect for function _OSCILLATOR_Initialize
  1957  0287                     _OSCILLATOR_Initialize:	
  1958  0287                     l935:	
  1959                           ;incstack = 0
  1960                           ; Regs used in _OSCILLATOR_Initialize: [wreg+status,2]
  1961                           
  1962                           
  1963                           ;mcc_generated_files/mcc.c: 65:     OSCCON = 0x78;
  1964  0287  3078               	movlw	120
  1965  0288  0021               	movlb	1	; select bank1
  1966  0289  0099               	movwf	25	;volatile
  1967  028A                     l937:	
  1968                           
  1969                           ;mcc_generated_files/mcc.c: 67:     BORCON = 0x00;
  1970  028A  0022               	movlb	2	; select bank2
  1971  028B  0196               	clrf	22	;volatile
  1972  028C                     l115:	
  1973  028C  0008               	return
  1974  028D                     __end_of_OSCILLATOR_Initialize:	
  1975                           
  1976                           	psect	text9
  1977  0266                     __ptext9:	
  1978 ;; *************** function _ADC_Initialize *****************
  1979 ;; Defined at:
  1980 ;;		line 67 in file "mcc_generated_files/adc.c"
  1981 ;; Parameters:    Size  Location     Type
  1982 ;;		None
  1983 ;; Auto vars:     Size  Location     Type
  1984 ;;		None
  1985 ;; Return value:  Size  Location     Type
  1986 ;;                  1    wreg      void 
  1987 ;; Registers used:
  1988 ;;		wreg, status,2
  1989 ;; Tracked objects:
  1990 ;;		On entry : 0/0
  1991 ;;		On exit  : 0/0
  1992 ;;		Unchanged: 0/0
  1993 ;; Data sizes:     COMMON   BANK0   BANK1   BANK2   BANK3   BANK4   BANK5   BANK6   BANK7   BANK8   BANK9  BANK10  BANK1
      +1  BANK12
  1994 ;;      Params:         0       0       0       0       0       0       0       0       0       0       0       0       
      +0       0
  1995 ;;      Locals:         0       0       0       0       0       0       0       0       0       0       0       0       
      +0       0
  1996 ;;      Temps:          0       0       0       0       0       0       0       0       0       0       0       0       
      +0       0
  1997 ;;      Totals:         0       0       0       0       0       0       0       0       0       0       0       0       
      +0       0
  1998 ;;Total ram usage:        0 bytes
  1999 ;; Hardware stack levels used:    1
  2000 ;; Hardware stack levels required when called:    4
  2001 ;; This function calls:
  2002 ;;		Nothing
  2003 ;; This function is called by:
  2004 ;;		_SYSTEM_Initialize
  2005 ;; This function uses a non-reentrant model
  2006 ;;
  2007                           
  2008                           
  2009                           ;psect for function _ADC_Initialize
  2010  0266                     _ADC_Initialize:	
  2011  0266                     l947:	
  2012                           ;incstack = 0
  2013                           ; Regs used in _ADC_Initialize: [wreg+status,2]
  2014                           
  2015                           
  2016                           ;mcc_generated_files/adc.c: 72:     ADCON0 = 0x01;
  2017  0266  3001               	movlw	1
  2018  0267  0021               	movlb	1	; select bank1
  2019  0268  009D               	movwf	29	;volatile
  2020  0269                     l949:	
  2021                           
  2022                           ;mcc_generated_files/adc.c: 75:     ADCON1 = 0x00;
  2023  0269  019E               	clrf	30	;volatile
  2024  026A                     l951:	
  2025                           
  2026                           ;mcc_generated_files/adc.c: 78:     ADRESL = 0x00;
  2027  026A  019B               	clrf	27	;volatile
  2028  026B                     l953:	
  2029                           
  2030                           ;mcc_generated_files/adc.c: 81:     ADRESH = 0x00;
  2031  026B  019C               	clrf	28	;volatile
  2032  026C                     l211:	
  2033  026C  0008               	return
  2034  026D                     __end_of_ADC_Initialize:	
  2035                           
  2036                           	psect	text10
  2037  00A6                     __ptext10:	
  2038 ;; *************** function _APP_S2_Tasks *****************
  2039 ;; Defined at:
  2040 ;;		line 31 in file "app.c"
  2041 ;; Parameters:    Size  Location     Type
  2042 ;;		None
  2043 ;; Auto vars:     Size  Location     Type
  2044 ;;		None
  2045 ;; Return value:  Size  Location     Type
  2046 ;;                  1    wreg      void 
  2047 ;; Registers used:
  2048 ;;		wreg, fsr0l, fsr0h, status,2, status,0
  2049 ;; Tracked objects:
  2050 ;;		On entry : 0/0
  2051 ;;		On exit  : 0/0
  2052 ;;		Unchanged: 0/0
  2053 ;; Data sizes:     COMMON   BANK0   BANK1   BANK2   BANK3   BANK4   BANK5   BANK6   BANK7   BANK8   BANK9  BANK10  BANK1
      +1  BANK12
  2054 ;;      Params:         0       0       0       0       0       0       0       0       0       0       0       0       
      +0       0
  2055 ;;      Locals:         0       0       0       0       0       0       0       0       0       0       0       0       
      +0       0
  2056 ;;      Temps:          2       0       0       0       0       0       0       0       0       0       0       0       
      +0       0
  2057 ;;      Totals:         2       0       0       0       0       0       0       0       0       0       0       0       
      +0       0
  2058 ;;Total ram usage:        2 bytes
  2059 ;; Hardware stack levels used:    1
  2060 ;; Hardware stack levels required when called:    4
  2061 ;; This function calls:
  2062 ;;		Nothing
  2063 ;; This function is called by:
  2064 ;;		_main
  2065 ;; This function uses a non-reentrant model
  2066 ;;
  2067                           
  2068                           
  2069                           ;psect for function _APP_S2_Tasks
  2070  00A6                     _APP_S2_Tasks:	
  2071  00A6                     l1305:	
  2072                           ;incstack = 0
  2073                           ; Regs used in _APP_S2_Tasks: [wreg-fsr0h+status,2+status,0]
  2074                           
  2075                           
  2076                           ;app.c: 32:     switch (apps2Data.state) {
  2077  00A6  28FA               	goto	l1339
  2078  00A7                     l295:	
  2079                           ;app.c: 33:         case APP_KEY_STATE_INIT:
  2080                           
  2081                           
  2082                           ;app.c: 34:         {;app.c: 35:             if (PORTAbits.RA2 == 1)
  2083  00A7  0020               	movlb	0	; select bank0
  2084  00A8  1D0C               	btfss	12,2	;volatile
  2085  00A9  28AB               	goto	u321
  2086  00AA  28AC               	goto	u320
  2087  00AB                     u321:	
  2088  00AB  28AF               	goto	l1309
  2089  00AC                     u320:	
  2090  00AC                     l1307:	
  2091                           
  2092                           ;app.c: 36:                 apps2Data.state = APP_KEY_STATE_HIGH;
  2093  00AC  01F0               	clrf	_apps2Data
  2094  00AD  0AF0               	incf	_apps2Data,f
  2095  00AE  2910               	goto	l312
  2096  00AF                     l1309:	
  2097  00AF  3003               	movlw	3
  2098  00B0  00F8               	movwf	??_APP_S2_Tasks
  2099  00B1  0878               	movf	??_APP_S2_Tasks,w
  2100  00B2  00F0               	movwf	_apps2Data
  2101  00B3  2910               	goto	l312
  2102  00B4                     l299:	
  2103                           ;app.c: 39:         };app.c: 40:         case APP_KEY_STATE_HIGH:
  2104                           
  2105                           
  2106                           ;app.c: 41:         {;app.c: 42:             if (PORTAbits.RA2 == 0) {
  2107  00B4  0020               	movlb	0	; select bank0
  2108  00B5  190C               	btfsc	12,2	;volatile
  2109  00B6  28B8               	goto	u331
  2110  00B7  28B9               	goto	u330
  2111  00B8                     u331:	
  2112  00B8  2910               	goto	l312
  2113  00B9                     u330:	
  2114  00B9                     l1311:	
  2115                           
  2116                           ;app.c: 43:                 apps2Data.state = APP_KEY_STATE_DEBOUNCE;
  2117  00B9  3002               	movlw	2
  2118  00BA  00F8               	movwf	??_APP_S2_Tasks
  2119  00BB  0878               	movf	??_APP_S2_Tasks,w
  2120  00BC  00F0               	movwf	_apps2Data
  2121  00BD                     l1313:	
  2122                           
  2123                           ;app.c: 44:                 apps2Data.TimerDebounce = 0;
  2124  00BD  01F1               	clrf	_apps2Data+1
  2125  00BE  01F2               	clrf	_apps2Data+2
  2126  00BF  2910               	goto	l312
  2127  00C0                     l301:	
  2128                           ;app.c: 47:         };app.c: 48:         case APP_KEY_STATE_LOW:
  2129                           
  2130                           
  2131                           ;app.c: 49:         {;app.c: 50:             if (PORTAbits.RA2 == 1) {
  2132  00C0  0020               	movlb	0	; select bank0
  2133  00C1  1D0C               	btfss	12,2	;volatile
  2134  00C2  28C4               	goto	u341
  2135  00C3  28C5               	goto	u340
  2136  00C4                     u341:	
  2137  00C4  2910               	goto	l312
  2138  00C5                     u340:	
  2139  00C5  28B9               	goto	l1311
  2140  00C6                     l1319:	
  2141                           
  2142                           ;app.c: 57:         {;app.c: 58:             if (apps2Data.TimerDebounce >= 50) {
  2143  00C6  0872               	movf	_apps2Data+2,w
  2144  00C7  3A80               	xorlw	128
  2145  00C8  00F8               	movwf	??_APP_S2_Tasks
  2146  00C9  3080               	movlw	128
  2147  00CA  0278               	subwf	??_APP_S2_Tasks,w
  2148  00CB  1D03               	skipz
  2149  00CC  28CF               	goto	u355
  2150  00CD  3032               	movlw	50
  2151  00CE  0271               	subwf	_apps2Data+1,w
  2152  00CF                     u355:	
  2153  00CF  1C03               	skipc
  2154  00D0  28D2               	goto	u351
  2155  00D1  28D3               	goto	u350
  2156  00D2                     u351:	
  2157  00D2  2910               	goto	l312
  2158  00D3                     u350:	
  2159  00D3                     l1321:	
  2160                           
  2161                           ;app.c: 59:                 if (PORTAbits.RA2 == 0)
  2162  00D3  0020               	movlb	0	; select bank0
  2163  00D4  190C               	btfsc	12,2	;volatile
  2164  00D5  28D7               	goto	u361
  2165  00D6  28D8               	goto	u360
  2166  00D7                     u361:	
  2167  00D7  28D9               	goto	l305
  2168  00D8                     u360:	
  2169  00D8  28AF               	goto	l1309
  2170  00D9                     l305:	
  2171                           ;app.c: 61:                 else {
  2172                           
  2173                           
  2174                           ;app.c: 62:                     apps2Data.state = APP_KEY_STATE_HIGH;
  2175  00D9  01F0               	clrf	_apps2Data
  2176  00DA  0AF0               	incf	_apps2Data,f
  2177  00DB                     l1325:	
  2178                           
  2179                           ;app.c: 63:                     if (appledData.state == APP_LED_STATE_STOP)
  2180  00DB  3003               	movlw	3
  2181  00DC  0673               	xorwf	_appledData,w
  2182  00DD  1D03               	btfss	3,2
  2183  00DE  28E0               	goto	u371
  2184  00DF  28E1               	goto	u370
  2185  00E0                     u371:	
  2186  00E0  28E6               	goto	l1329
  2187  00E1                     u370:	
  2188  00E1                     l1327:	
  2189                           
  2190                           ;app.c: 64:                         appledData.state = APP_LED_STATE_BLINK_LED;
  2191  00E1  3002               	movlw	2
  2192  00E2  00F8               	movwf	??_APP_S2_Tasks
  2193  00E3  0878               	movf	??_APP_S2_Tasks,w
  2194  00E4  00F3               	movwf	_appledData
  2195  00E5  28EA               	goto	l1331
  2196  00E6                     l1329:	
  2197  00E6  3003               	movlw	3
  2198  00E7  00F8               	movwf	??_APP_S2_Tasks
  2199  00E8  0878               	movf	??_APP_S2_Tasks,w
  2200  00E9  00F3               	movwf	_appledData
  2201  00EA                     l1331:	
  2202                           
  2203                           ;app.c: 67:                     if (appledData2.state == APP_LED_STATE_STOP)
  2204  00EA  3003               	movlw	3
  2205  00EB  0625               	xorwf	_appledData2,w
  2206  00EC  1D03               	btfss	3,2
  2207  00ED  28EF               	goto	u381
  2208  00EE  28F0               	goto	u380
  2209  00EF                     u381:	
  2210  00EF  28F5               	goto	l1335
  2211  00F0                     u380:	
  2212  00F0                     l1333:	
  2213                           
  2214                           ;app.c: 68:                         appledData2.state = APP_LED_STATE_BLINK_LED;
  2215  00F0  3002               	movlw	2
  2216  00F1  00F8               	movwf	??_APP_S2_Tasks
  2217  00F2  0878               	movf	??_APP_S2_Tasks,w
  2218  00F3  00A5               	movwf	_appledData2
  2219  00F4  2910               	goto	l312
  2220  00F5                     l1335:	
  2221  00F5  3003               	movlw	3
  2222  00F6  00F8               	movwf	??_APP_S2_Tasks
  2223  00F7  0878               	movf	??_APP_S2_Tasks,w
  2224  00F8  00A5               	movwf	_appledData2
  2225  00F9  2910               	goto	l312
  2226  00FA                     l1339:	
  2227  00FA  0870               	movf	_apps2Data,w
  2228  00FB  00F8               	movwf	??_APP_S2_Tasks
  2229  00FC  01F9               	clrf	??_APP_S2_Tasks+1
  2230                           
  2231                           ; Switch on 2 bytes has been partitioned into a top level switch of size 1, and 1 sub-sw
      +                          itches
  2232                           ; Switch size 1, requested type "simple"
  2233                           ; Number of cases is 1, Range of values is 0 to 0
  2234                           ; switch strategies available:
  2235                           ; Name         Instructions Cycles
  2236                           ; simple_byte            4     3 (average)
  2237                           ; direct_byte            8     6 (fixed)
  2238                           ; jumptable            260     6 (fixed)
  2239                           ;	Chosen strategy is simple_byte
  2240  00FD  0879               	movf	??_APP_S2_Tasks+1,w
  2241  00FE  3A00               	xorlw	0	; case 0
  2242  00FF  1903               	skipnz
  2243  0100  2902               	goto	l1681
  2244  0101  2910               	goto	l312
  2245  0102                     l1681:	
  2246                           
  2247                           ; Switch size 1, requested type "simple"
  2248                           ; Number of cases is 4, Range of values is 0 to 3
  2249                           ; switch strategies available:
  2250                           ; Name         Instructions Cycles
  2251                           ; simple_byte           13     7 (average)
  2252                           ; direct_byte           14     6 (fixed)
  2253                           ; jumptable            260     6 (fixed)
  2254                           ;	Chosen strategy is simple_byte
  2255  0102  0878               	movf	??_APP_S2_Tasks,w
  2256  0103  3A00               	xorlw	0	; case 0
  2257  0104  1903               	skipnz
  2258  0105  28A7               	goto	l295
  2259  0106  3A01               	xorlw	1	; case 1
  2260  0107  1903               	skipnz
  2261  0108  28B4               	goto	l299
  2262  0109  3A03               	xorlw	3	; case 2
  2263  010A  1903               	skipnz
  2264  010B  28C6               	goto	l1319
  2265  010C  3A01               	xorlw	1	; case 3
  2266  010D  1903               	skipnz
  2267  010E  28C0               	goto	l301
  2268  010F  2910               	goto	l312
  2269  0110                     l312:	
  2270  0110  0008               	return
  2271  0111                     __end_of_APP_S2_Tasks:	
  2272                           
  2273                           	psect	text11
  2274  0297                     __ptext11:	
  2275 ;; *************** function _APP_S2_Initialize *****************
  2276 ;; Defined at:
  2277 ;;		line 19 in file "app.c"
  2278 ;; Parameters:    Size  Location     Type
  2279 ;;		None
  2280 ;; Auto vars:     Size  Location     Type
  2281 ;;		None
  2282 ;; Return value:  Size  Location     Type
  2283 ;;                  1    wreg      void 
  2284 ;; Registers used:
  2285 ;;		status,2
  2286 ;; Tracked objects:
  2287 ;;		On entry : 0/0
  2288 ;;		On exit  : 0/0
  2289 ;;		Unchanged: 0/0
  2290 ;; Data sizes:     COMMON   BANK0   BANK1   BANK2   BANK3   BANK4   BANK5   BANK6   BANK7   BANK8   BANK9  BANK10  BANK1
      +1  BANK12
  2291 ;;      Params:         0       0       0       0       0       0       0       0       0       0       0       0       
      +0       0
  2292 ;;      Locals:         0       0       0       0       0       0       0       0       0       0       0       0       
      +0       0
  2293 ;;      Temps:          0       0       0       0       0       0       0       0       0       0       0       0       
      +0       0
  2294 ;;      Totals:         0       0       0       0       0       0       0       0       0       0       0       0       
      +0       0
  2295 ;;Total ram usage:        0 bytes
  2296 ;; Hardware stack levels used:    1
  2297 ;; Hardware stack levels required when called:    4
  2298 ;; This function calls:
  2299 ;;		Nothing
  2300 ;; This function is called by:
  2301 ;;		_main
  2302 ;; This function uses a non-reentrant model
  2303 ;;
  2304                           
  2305                           
  2306                           ;psect for function _APP_S2_Initialize
  2307  0297                     _APP_S2_Initialize:	
  2308  0297                     l1255:	
  2309                           ;incstack = 0
  2310                           ; Regs used in _APP_S2_Initialize: [status,2]
  2311                           
  2312                           
  2313                           ;app.c: 20:     apps2Data.state = APP_KEY_STATE_INIT;
  2314  0297  01F0               	clrf	_apps2Data
  2315                           
  2316                           ;app.c: 21:     apps2Data.TimerDebounce = 0;
  2317  0298  01F1               	clrf	_apps2Data+1
  2318  0299  01F2               	clrf	_apps2Data+2
  2319  029A                     l288:	
  2320  029A  0008               	return
  2321  029B                     __end_of_APP_S2_Initialize:	
  2322                           
  2323                           	psect	text12
  2324  0111                     __ptext12:	
  2325 ;; *************** function _APP_LED_Tasks2 *****************
  2326 ;; Defined at:
  2327 ;;		line 114 in file "app.c"
  2328 ;; Parameters:    Size  Location     Type
  2329 ;;		None
  2330 ;; Auto vars:     Size  Location     Type
  2331 ;;		None
  2332 ;; Return value:  Size  Location     Type
  2333 ;;                  1    wreg      void 
  2334 ;; Registers used:
  2335 ;;		wreg, fsr0l, fsr0h, status,2, status,0
  2336 ;; Tracked objects:
  2337 ;;		On entry : 0/0
  2338 ;;		On exit  : 0/0
  2339 ;;		Unchanged: 0/0
  2340 ;; Data sizes:     COMMON   BANK0   BANK1   BANK2   BANK3   BANK4   BANK5   BANK6   BANK7   BANK8   BANK9  BANK10  BANK1
      +1  BANK12
  2341 ;;      Params:         0       0       0       0       0       0       0       0       0       0       0       0       
      +0       0
  2342 ;;      Locals:         0       0       0       0       0       0       0       0       0       0       0       0       
      +0       0
  2343 ;;      Temps:          2       0       0       0       0       0       0       0       0       0       0       0       
      +0       0
  2344 ;;      Totals:         2       0       0       0       0       0       0       0       0       0       0       0       
      +0       0
  2345 ;;Total ram usage:        2 bytes
  2346 ;; Hardware stack levels used:    1
  2347 ;; Hardware stack levels required when called:    4
  2348 ;; This function calls:
  2349 ;;		Nothing
  2350 ;; This function is called by:
  2351 ;;		_main
  2352 ;; This function uses a non-reentrant model
  2353 ;;
  2354                           
  2355                           
  2356                           ;psect for function _APP_LED_Tasks2
  2357  0111                     _APP_LED_Tasks2:	
  2358  0111                     l1283:	
  2359                           ;incstack = 0
  2360                           ; Regs used in _APP_LED_Tasks2: [wreg-fsr0h+status,2+status,0]
  2361                           
  2362                           
  2363                           ;app.c: 115:     switch (appledData2.state) {
  2364  0111  293A               	goto	l1299
  2365  0112                     l329:	
  2366                           ;app.c: 116:         case APP_LED_STATE_INIT:
  2367                           
  2368                           
  2369                           ;app.c: 117:         {;app.c: 118:             appledData2.state = APP_LED_STATE_WAIT;
  2370  0112  0020               	movlb	0	; select bank0
  2371  0113  01A5               	clrf	_appledData2
  2372  0114  0AA5               	incf	_appledData2,f
  2373                           
  2374                           ;app.c: 119:             break;
  2375  0115  2951               	goto	l338
  2376  0116                     l1285:	
  2377                           
  2378                           ;app.c: 122:         {;app.c: 123:             if (appledData2.TimerCount >= 327 / 2) {
  2379  0116  0827               	movf	_appledData2+2,w
  2380  0117  3A80               	xorlw	128
  2381  0118  00F8               	movwf	??_APP_LED_Tasks2
  2382  0119  3080               	movlw	128
  2383  011A  0278               	subwf	??_APP_LED_Tasks2,w
  2384  011B  1D03               	skipz
  2385  011C  291F               	goto	u295
  2386  011D  30A3               	movlw	163
  2387  011E  0226               	subwf	_appledData2+1,w
  2388  011F                     u295:	
  2389  011F  1C03               	skipc
  2390  0120  2922               	goto	u291
  2391  0121  2923               	goto	u290
  2392  0122                     u291:	
  2393  0122  2951               	goto	l338
  2394  0123                     u290:	
  2395  0123                     l1287:	
  2396                           
  2397                           ;app.c: 124:                 appledData2.state = APP_LED_STATE_BLINK_LED;
  2398  0123  3002               	movlw	2
  2399  0124  00F8               	movwf	??_APP_LED_Tasks2
  2400  0125  0878               	movf	??_APP_LED_Tasks2,w
  2401  0126  0020               	movlb	0	; select bank0
  2402  0127  00A5               	movwf	_appledData2
  2403  0128                     l1289:	
  2404                           
  2405                           ;app.c: 125:                 appledData2.TimerCount = 0;
  2406  0128  01A6               	clrf	_appledData2+1
  2407  0129  01A7               	clrf	_appledData2+2
  2408  012A  2951               	goto	l338
  2409  012B                     l1291:	
  2410  012B  1003               	clrc
  2411  012C  0022               	movlb	2	; select bank2
  2412  012D  1C8C               	btfss	12,1	;volatile
  2413  012E  1403               	setc
  2414  012F  1803               	btfsc	3,0
  2415  0130  2932               	goto	u301
  2416  0131  2935               	goto	u300
  2417  0132                     u301:	
  2418  0132  0022               	movlb	2	; select bank2
  2419  0133  148C               	bsf	12,1	;volatile
  2420  0134  2937               	goto	u314
  2421  0135                     u300:	
  2422  0135  0022               	movlb	2	; select bank2
  2423  0136  108C               	bcf	12,1	;volatile
  2424  0137                     u314:	
  2425  0137  2912               	goto	l329
  2426  0138                     l1295:	
  2427                           
  2428                           ;app.c: 140:         {;app.c: 141:             appledData2.state = APP_LED_STATE_INIT;
  2429  0138  01A5               	clrf	_appledData2
  2430                           
  2431                           ;app.c: 142:             break;
  2432  0139  2951               	goto	l338
  2433  013A                     l1299:	
  2434  013A  0020               	movlb	0	; select bank0
  2435  013B  0825               	movf	_appledData2,w
  2436  013C  00F8               	movwf	??_APP_LED_Tasks2
  2437  013D  01F9               	clrf	??_APP_LED_Tasks2+1
  2438                           
  2439                           ; Switch on 2 bytes has been partitioned into a top level switch of size 1, and 1 sub-sw
      +                          itches
  2440                           ; Switch size 1, requested type "simple"
  2441                           ; Number of cases is 1, Range of values is 0 to 0
  2442                           ; switch strategies available:
  2443                           ; Name         Instructions Cycles
  2444                           ; simple_byte            4     3 (average)
  2445                           ; direct_byte            8     6 (fixed)
  2446                           ; jumptable            260     6 (fixed)
  2447                           ;	Chosen strategy is simple_byte
  2448  013E  0879               	movf	??_APP_LED_Tasks2+1,w
  2449  013F  3A00               	xorlw	0	; case 0
  2450  0140  1903               	skipnz
  2451  0141  2943               	goto	l1683
  2452  0142  2938               	goto	l1295
  2453  0143                     l1683:	
  2454                           
  2455                           ; Switch size 1, requested type "simple"
  2456                           ; Number of cases is 4, Range of values is 0 to 3
  2457                           ; switch strategies available:
  2458                           ; Name         Instructions Cycles
  2459                           ; simple_byte           13     7 (average)
  2460                           ; direct_byte           14     6 (fixed)
  2461                           ; jumptable            260     6 (fixed)
  2462                           ;	Chosen strategy is simple_byte
  2463  0143  0878               	movf	??_APP_LED_Tasks2,w
  2464  0144  3A00               	xorlw	0	; case 0
  2465  0145  1903               	skipnz
  2466  0146  2912               	goto	l329
  2467  0147  3A01               	xorlw	1	; case 1
  2468  0148  1903               	skipnz
  2469  0149  2916               	goto	l1285
  2470  014A  3A03               	xorlw	3	; case 2
  2471  014B  1903               	skipnz
  2472  014C  292B               	goto	l1291
  2473  014D  3A01               	xorlw	1	; case 3
  2474  014E  1903               	skipnz
  2475  014F  2951               	goto	l338
  2476  0150  2938               	goto	l1295
  2477  0151                     l338:	
  2478  0151  0008               	return
  2479  0152                     __end_of_APP_LED_Tasks2:	
  2480                           
  2481                           	psect	text13
  2482  0152                     __ptext13:	
  2483 ;; *************** function _APP_LED_Tasks *****************
  2484 ;; Defined at:
  2485 ;;		line 81 in file "app.c"
  2486 ;; Parameters:    Size  Location     Type
  2487 ;;		None
  2488 ;; Auto vars:     Size  Location     Type
  2489 ;;		None
  2490 ;; Return value:  Size  Location     Type
  2491 ;;                  1    wreg      void 
  2492 ;; Registers used:
  2493 ;;		wreg, fsr0l, fsr0h, status,2, status,0
  2494 ;; Tracked objects:
  2495 ;;		On entry : 0/0
  2496 ;;		On exit  : 0/0
  2497 ;;		Unchanged: 0/0
  2498 ;; Data sizes:     COMMON   BANK0   BANK1   BANK2   BANK3   BANK4   BANK5   BANK6   BANK7   BANK8   BANK9  BANK10  BANK1
      +1  BANK12
  2499 ;;      Params:         0       0       0       0       0       0       0       0       0       0       0       0       
      +0       0
  2500 ;;      Locals:         0       0       0       0       0       0       0       0       0       0       0       0       
      +0       0
  2501 ;;      Temps:          2       0       0       0       0       0       0       0       0       0       0       0       
      +0       0
  2502 ;;      Totals:         2       0       0       0       0       0       0       0       0       0       0       0       
      +0       0
  2503 ;;Total ram usage:        2 bytes
  2504 ;; Hardware stack levels used:    1
  2505 ;; Hardware stack levels required when called:    4
  2506 ;; This function calls:
  2507 ;;		Nothing
  2508 ;; This function is called by:
  2509 ;;		_main
  2510 ;; This function uses a non-reentrant model
  2511 ;;
  2512                           
  2513                           
  2514                           ;psect for function _APP_LED_Tasks
  2515  0152                     _APP_LED_Tasks:	
  2516  0152                     l1259:	
  2517                           ;incstack = 0
  2518                           ; Regs used in _APP_LED_Tasks: [wreg-fsr0h+status,2+status,0]
  2519                           
  2520                           
  2521                           ;app.c: 82:     switch (appledData.state) {
  2522  0152  2979               	goto	l1275
  2523  0153                     l316:	
  2524                           ;app.c: 83:         case APP_LED_STATE_INIT:
  2525                           
  2526                           
  2527                           ;app.c: 84:         {;app.c: 85:             appledData.state = APP_LED_STATE_WAIT;
  2528  0153  01F3               	clrf	_appledData
  2529  0154  0AF3               	incf	_appledData,f
  2530                           
  2531                           ;app.c: 86:             break;
  2532  0155  298F               	goto	l325
  2533  0156                     l1261:	
  2534                           
  2535                           ;app.c: 89:         {;app.c: 90:             if (appledData.TimerCount >= 250) {
  2536  0156  0875               	movf	_appledData+2,w
  2537  0157  3A80               	xorlw	128
  2538  0158  00F8               	movwf	??_APP_LED_Tasks
  2539  0159  3080               	movlw	128
  2540  015A  0278               	subwf	??_APP_LED_Tasks,w
  2541  015B  1D03               	skipz
  2542  015C  295F               	goto	u265
  2543  015D  30FA               	movlw	250
  2544  015E  0274               	subwf	_appledData+1,w
  2545  015F                     u265:	
  2546  015F  1C03               	skipc
  2547  0160  2962               	goto	u261
  2548  0161  2963               	goto	u260
  2549  0162                     u261:	
  2550  0162  298F               	goto	l325
  2551  0163                     u260:	
  2552  0163                     l1263:	
  2553                           
  2554                           ;app.c: 91:                 appledData.state = APP_LED_STATE_BLINK_LED;
  2555  0163  3002               	movlw	2
  2556  0164  00F8               	movwf	??_APP_LED_Tasks
  2557  0165  0878               	movf	??_APP_LED_Tasks,w
  2558  0166  00F3               	movwf	_appledData
  2559  0167                     l1265:	
  2560                           
  2561                           ;app.c: 92:                 appledData.TimerCount = 0;
  2562  0167  01F4               	clrf	_appledData+1
  2563  0168  01F5               	clrf	_appledData+2
  2564  0169  298F               	goto	l325
  2565  016A                     l1267:	
  2566  016A  1003               	clrc
  2567  016B  0022               	movlb	2	; select bank2
  2568  016C  1C0C               	btfss	12,0	;volatile
  2569  016D  1403               	setc
  2570  016E  1803               	btfsc	3,0
  2571  016F  2971               	goto	u271
  2572  0170  2974               	goto	u270
  2573  0171                     u271:	
  2574  0171  0022               	movlb	2	; select bank2
  2575  0172  140C               	bsf	12,0	;volatile
  2576  0173  2976               	goto	u284
  2577  0174                     u270:	
  2578  0174  0022               	movlb	2	; select bank2
  2579  0175  100C               	bcf	12,0	;volatile
  2580  0176                     u284:	
  2581  0176  2953               	goto	l316
  2582  0177                     l1271:	
  2583                           
  2584                           ;app.c: 107:         {;app.c: 108:             appledData.state = APP_LED_STATE_INIT;
  2585  0177  01F3               	clrf	_appledData
  2586                           
  2587                           ;app.c: 109:             break;
  2588  0178  298F               	goto	l325
  2589  0179                     l1275:	
  2590  0179  0873               	movf	_appledData,w
  2591  017A  00F8               	movwf	??_APP_LED_Tasks
  2592  017B  01F9               	clrf	??_APP_LED_Tasks+1
  2593                           
  2594                           ; Switch on 2 bytes has been partitioned into a top level switch of size 1, and 1 sub-sw
      +                          itches
  2595                           ; Switch size 1, requested type "simple"
  2596                           ; Number of cases is 1, Range of values is 0 to 0
  2597                           ; switch strategies available:
  2598                           ; Name         Instructions Cycles
  2599                           ; simple_byte            4     3 (average)
  2600                           ; direct_byte            8     6 (fixed)
  2601                           ; jumptable            260     6 (fixed)
  2602                           ;	Chosen strategy is simple_byte
  2603  017C  0879               	movf	??_APP_LED_Tasks+1,w
  2604  017D  3A00               	xorlw	0	; case 0
  2605  017E  1903               	skipnz
  2606  017F  2981               	goto	l1685
  2607  0180  2977               	goto	l1271
  2608  0181                     l1685:	
  2609                           
  2610                           ; Switch size 1, requested type "simple"
  2611                           ; Number of cases is 4, Range of values is 0 to 3
  2612                           ; switch strategies available:
  2613                           ; Name         Instructions Cycles
  2614                           ; simple_byte           13     7 (average)
  2615                           ; direct_byte           14     6 (fixed)
  2616                           ; jumptable            260     6 (fixed)
  2617                           ;	Chosen strategy is simple_byte
  2618  0181  0878               	movf	??_APP_LED_Tasks,w
  2619  0182  3A00               	xorlw	0	; case 0
  2620  0183  1903               	skipnz
  2621  0184  2953               	goto	l316
  2622  0185  3A01               	xorlw	1	; case 1
  2623  0186  1903               	skipnz
  2624  0187  2956               	goto	l1261
  2625  0188  3A03               	xorlw	3	; case 2
  2626  0189  1903               	skipnz
  2627  018A  296A               	goto	l1267
  2628  018B  3A01               	xorlw	1	; case 3
  2629  018C  1903               	skipnz
  2630  018D  298F               	goto	l325
  2631  018E  2977               	goto	l1271
  2632  018F                     l325:	
  2633  018F  0008               	return
  2634  0190                     __end_of_APP_LED_Tasks:	
  2635                           
  2636                           	psect	text14
  2637  025E                     __ptext14:	
  2638 ;; *************** function _APP_LED_Initialize *****************
  2639 ;; Defined at:
  2640 ;;		line 12 in file "app.c"
  2641 ;; Parameters:    Size  Location     Type
  2642 ;;		None
  2643 ;; Auto vars:     Size  Location     Type
  2644 ;;		None
  2645 ;; Return value:  Size  Location     Type
  2646 ;;                  1    wreg      void 
  2647 ;; Registers used:
  2648 ;;		status,2
  2649 ;; Tracked objects:
  2650 ;;		On entry : 0/0
  2651 ;;		On exit  : 0/0
  2652 ;;		Unchanged: 0/0
  2653 ;; Data sizes:     COMMON   BANK0   BANK1   BANK2   BANK3   BANK4   BANK5   BANK6   BANK7   BANK8   BANK9  BANK10  BANK1
      +1  BANK12
  2654 ;;      Params:         0       0       0       0       0       0       0       0       0       0       0       0       
      +0       0
  2655 ;;      Locals:         0       0       0       0       0       0       0       0       0       0       0       0       
      +0       0
  2656 ;;      Temps:          0       0       0       0       0       0       0       0       0       0       0       0       
      +0       0
  2657 ;;      Totals:         0       0       0       0       0       0       0       0       0       0       0       0       
      +0       0
  2658 ;;Total ram usage:        0 bytes
  2659 ;; Hardware stack levels used:    1
  2660 ;; Hardware stack levels required when called:    4
  2661 ;; This function calls:
  2662 ;;		Nothing
  2663 ;; This function is called by:
  2664 ;;		_main
  2665 ;; This function uses a non-reentrant model
  2666 ;;
  2667                           
  2668                           
  2669                           ;psect for function _APP_LED_Initialize
  2670  025E                     _APP_LED_Initialize:	
  2671  025E                     l1253:	
  2672                           ;incstack = 0
  2673                           ; Regs used in _APP_LED_Initialize: [status,2]
  2674                           
  2675                           
  2676                           ;app.c: 13:     appledData.state = APP_LED_STATE_INIT;
  2677  025E  01F3               	clrf	_appledData
  2678                           
  2679                           ;app.c: 14:     appledData.TimerCount = 0;
  2680  025F  01F4               	clrf	_appledData+1
  2681  0260  01F5               	clrf	_appledData+2
  2682                           
  2683                           ;app.c: 15:     appledData2.state = APP_LED_STATE_INIT;
  2684  0261  0020               	movlb	0	; select bank0
  2685  0262  01A5               	clrf	_appledData2
  2686                           
  2687                           ;app.c: 16:     appledData2.TimerCount = 0;
  2688  0263  01A6               	clrf	_appledData2+1
  2689  0264  01A7               	clrf	_appledData2+2
  2690  0265                     l285:	
  2691  0265  0008               	return
  2692  0266                     __end_of_APP_LED_Initialize:	
  2693                           
  2694                           	psect	text15
  2695  0032                     __ptext15:	
  2696 ;; *************** function _APP_ADC_Tasks *****************
  2697 ;; Defined at:
  2698 ;;		line 147 in file "app.c"
  2699 ;; Parameters:    Size  Location     Type
  2700 ;;		None
  2701 ;; Auto vars:     Size  Location     Type
  2702 ;;		None
  2703 ;; Return value:  Size  Location     Type
  2704 ;;                  1    wreg      void 
  2705 ;; Registers used:
  2706 ;;		wreg, fsr0l, fsr0h, fsr1l, fsr1h, status,2, status,0, pclath, cstack
  2707 ;; Tracked objects:
  2708 ;;		On entry : 0/0
  2709 ;;		On exit  : 0/0
  2710 ;;		Unchanged: 0/0
  2711 ;; Data sizes:     COMMON   BANK0   BANK1   BANK2   BANK3   BANK4   BANK5   BANK6   BANK7   BANK8   BANK9  BANK10  BANK1
      +1  BANK12
  2712 ;;      Params:         0       0       0       0       0       0       0       0       0       0       0       0       
      +0       0
  2713 ;;      Locals:         0       0       0       0       0       0       0       0       0       0       0       0       
      +0       0
  2714 ;;      Temps:          0       2       0       0       0       0       0       0       0       0       0       0       
      +0       0
  2715 ;;      Totals:         0       2       0       0       0       0       0       0       0       0       0       0       
      +0       0
  2716 ;;Total ram usage:        2 bytes
  2717 ;; Hardware stack levels used:    1
  2718 ;; Hardware stack levels required when called:    5
  2719 ;; This function calls:
  2720 ;;		_ADC_GetConversionResult
  2721 ;;		_ADC_IsConversionDone
  2722 ;;		_ADC_SelectChannel
  2723 ;;		_ADC_StartConversion
  2724 ;;		_PWM1_LoadDutyValue
  2725 ;; This function is called by:
  2726 ;;		_main
  2727 ;; This function uses a non-reentrant model
  2728 ;;
  2729                           
  2730                           
  2731                           ;psect for function _APP_ADC_Tasks
  2732  0032                     _APP_ADC_Tasks:	
  2733  0032                     l1519:	
  2734                           ;incstack = 0
  2735                           ; Regs used in _APP_ADC_Tasks: [wreg-fsr1h+status,2+status,0+pclath+cstack]
  2736                           
  2737                           
  2738                           ;app.c: 148:     switch(appadcData.state){
  2739  0032  288E               	goto	l1555
  2740  0033                     l1521:	
  2741                           
  2742                           ;app.c: 150:         {;app.c: 151:             ADC_SelectChannel(Pot);
  2743  0033  3004               	movlw	4
  2744  0034  3182  223C  3180   	fcall	_ADC_SelectChannel
  2745  0037                     l1523:	
  2746                           
  2747                           ;app.c: 152:             appadcData.adcCount = 0;
  2748  0037  0020               	movlb	0	; select bank0
  2749  0038  01A1               	clrf	_appadcData+1
  2750  0039  01A2               	clrf	_appadcData+2
  2751  003A                     l1525:	
  2752                           
  2753                           ;app.c: 153:             appadcData.adcValue = 0;
  2754  003A  0020               	movlb	0	; select bank0
  2755  003B  01A3               	clrf	_appadcData+3
  2756  003C  01A4               	clrf	_appadcData+4
  2757  003D                     l1527:	
  2758                           
  2759                           ;app.c: 154:             appadcData.state = APP_ADC_STATE_CONVERT;
  2760  003D  0020               	movlb	0	; select bank0
  2761  003E  01A0               	clrf	_appadcData
  2762  003F  0AA0               	incf	_appadcData,f
  2763                           
  2764                           ;app.c: 155:             break;
  2765  0040  28A5               	goto	l351
  2766  0041                     l1529:	
  2767                           
  2768                           ;app.c: 158:         {;app.c: 159:             if(ADC_IsConversionDone())
  2769  0041  3182  226D  3180   	fcall	_ADC_IsConversionDone
  2770  0044  3A00               	xorlw	0
  2771  0045  1903               	skipnz
  2772  0046  2848               	goto	u441
  2773  0047  2849               	goto	u440
  2774  0048                     u441:	
  2775  0048  28A5               	goto	l351
  2776  0049                     u440:	
  2777  0049                     l1531:	
  2778                           
  2779                           ;app.c: 160:             {;app.c: 161:                 appadcData.adcValue = appadcData.
      +                          adcValue + ADC_GetConversionResult();
  2780  0049  3003               	movlw	3
  2781  004A  3E20               	addlw	(low (_appadcData| 0))& (0+255)
  2782  004B  0086               	movwf	6
  2783  004C  0187               	clrf	7
  2784  004D  3182  228D  3180   	fcall	_ADC_GetConversionResult
  2785  0050  3F40               	moviw [0]fsr1
  2786  0051  0778               	addwf	?_ADC_GetConversionResult,w
  2787  0052  0020               	movlb	0	; select bank0
  2788  0053  00A3               	movwf	_appadcData+3
  2789  0054  3F41               	moviw [1]fsr1
  2790  0055  3D79               	addwfc	?_ADC_GetConversionResult+1,w
  2791  0056  00A4               	movwf	_appadcData+4
  2792  0057                     l1533:	
  2793                           
  2794                           ;app.c: 163:                 if(appadcData.adcCount >= 16)
  2795  0057  0822               	movf	_appadcData+2,w
  2796  0058  3A80               	xorlw	128
  2797  0059  00B0               	movwf	??_APP_ADC_Tasks
  2798  005A  3080               	movlw	128
  2799  005B  0230               	subwf	??_APP_ADC_Tasks,w
  2800  005C  1D03               	skipz
  2801  005D  2860               	goto	u455
  2802  005E  3010               	movlw	16
  2803  005F  0221               	subwf	_appadcData+1,w
  2804  0060                     u455:	
  2805  0060  1C03               	skipc
  2806  0061  2863               	goto	u451
  2807  0062  2864               	goto	u450
  2808  0063                     u451:	
  2809  0063  283D               	goto	l1527
  2810  0064                     u450:	
  2811  0064                     l1535:	
  2812                           
  2813                           ;app.c: 164:                     appadcData.state = APP_ADC_STATE_DONE;
  2814  0064  3003               	movlw	3
  2815  0065  0020               	movlb	0	; select bank0
  2816  0066  00B0               	movwf	??_APP_ADC_Tasks
  2817  0067  0830               	movf	??_APP_ADC_Tasks,w
  2818  0068  00A0               	movwf	_appadcData
  2819  0069  28A5               	goto	l351
  2820  006A                     l1537:	
  2821                           
  2822                           ;app.c: 170:         {;app.c: 171:             appadcData.adcCount = 0;
  2823  006A  01A1               	clrf	_appadcData+1
  2824  006B  01A2               	clrf	_appadcData+2
  2825  006C                     l1539:	
  2826                           
  2827                           ;app.c: 172:             ADCValue = appadcData.adcValue >> 4;
  2828  006C  0E23               	swapf	_appadcData+3,w
  2829  006D  390F               	andlw	15
  2830  006E  00A8               	movwf	_ADCValue
  2831  006F  0E24               	swapf	_appadcData+4,w
  2832  0070  39F0               	andlw	240
  2833  0071  04A8               	iorwf	_ADCValue,f
  2834  0072  0E24               	swapf	_appadcData+4,w
  2835  0073  390F               	andlw	15
  2836  0074  00A9               	movwf	_ADCValue+1
  2837  0075  30F0               	movlw	240
  2838  0076  1DA9               	btfss	_ADCValue+1,3
  2839  0077  3000               	movlw	0
  2840  0078  04A9               	iorwf	_ADCValue+1,f
  2841  0079                     l1541:	
  2842                           
  2843                           ;app.c: 173:             PWM1_LoadDutyValue(ADCValue);
  2844  0079  0829               	movf	_ADCValue+1,w
  2845  007A  00F9               	movwf	PWM1_LoadDutyValue@dutyValue+1
  2846  007B  0828               	movf	_ADCValue,w
  2847  007C  00F8               	movwf	PWM1_LoadDutyValue@dutyValue
  2848  007D  3181  21FE  3180   	fcall	_PWM1_LoadDutyValue
  2849  0080  283A               	goto	l1525
  2850  0081                     l1547:	
  2851                           
  2852                           ;app.c: 179:         {;app.c: 180:             ADC_StartConversion();
  2853  0081  3182  229B  3180   	fcall	_ADC_StartConversion
  2854  0084                     l1549:	
  2855                           
  2856                           ;app.c: 181:             appadcData.adcCount++;
  2857  0084  3001               	movlw	1
  2858  0085  0020               	movlb	0	; select bank0
  2859  0086  07A1               	addwf	_appadcData+1,f
  2860  0087  3000               	movlw	0
  2861  0088  3DA2               	addwfc	_appadcData+2,f
  2862  0089                     l1551:	
  2863                           
  2864                           ;app.c: 182:             appadcData.state = APP_ADC_STATE_WAIT;
  2865  0089  3002               	movlw	2
  2866  008A  00B0               	movwf	??_APP_ADC_Tasks
  2867  008B  0830               	movf	??_APP_ADC_Tasks,w
  2868  008C  00A0               	movwf	_appadcData
  2869                           
  2870                           ;app.c: 183:             break;
  2871  008D  28A5               	goto	l351
  2872  008E                     l1555:	
  2873  008E  0020               	movlb	0	; select bank0
  2874  008F  0820               	movf	_appadcData,w
  2875  0090  00B0               	movwf	??_APP_ADC_Tasks
  2876  0091  01B1               	clrf	??_APP_ADC_Tasks+1
  2877                           
  2878                           ; Switch on 2 bytes has been partitioned into a top level switch of size 1, and 1 sub-sw
      +                          itches
  2879                           ; Switch size 1, requested type "simple"
  2880                           ; Number of cases is 1, Range of values is 0 to 0
  2881                           ; switch strategies available:
  2882                           ; Name         Instructions Cycles
  2883                           ; simple_byte            4     3 (average)
  2884                           ; direct_byte            8     6 (fixed)
  2885                           ; jumptable            260     6 (fixed)
  2886                           ;	Chosen strategy is simple_byte
  2887  0092  0831               	movf	??_APP_ADC_Tasks+1,w
  2888  0093  3A00               	xorlw	0	; case 0
  2889  0094  1903               	skipnz
  2890  0095  2897               	goto	l1687
  2891  0096  28A5               	goto	l351
  2892  0097                     l1687:	
  2893                           
  2894                           ; Switch size 1, requested type "simple"
  2895                           ; Number of cases is 4, Range of values is 0 to 3
  2896                           ; switch strategies available:
  2897                           ; Name         Instructions Cycles
  2898                           ; simple_byte           13     7 (average)
  2899                           ; direct_byte           14     6 (fixed)
  2900                           ; jumptable            260     6 (fixed)
  2901                           ;	Chosen strategy is simple_byte
  2902  0097  0830               	movf	??_APP_ADC_Tasks,w
  2903  0098  3A00               	xorlw	0	; case 0
  2904  0099  1903               	skipnz
  2905  009A  2833               	goto	l1521
  2906  009B  3A01               	xorlw	1	; case 1
  2907  009C  1903               	skipnz
  2908  009D  2881               	goto	l1547
  2909  009E  3A03               	xorlw	3	; case 2
  2910  009F  1903               	skipnz
  2911  00A0  2841               	goto	l1529
  2912  00A1  3A01               	xorlw	1	; case 3
  2913  00A2  1903               	skipnz
  2914  00A3  286A               	goto	l1537
  2915  00A4  28A5               	goto	l351
  2916  00A5                     l351:	
  2917  00A5  0008               	return
  2918  00A6                     __end_of_APP_ADC_Tasks:	
  2919                           
  2920                           	psect	text16
  2921  01FE                     __ptext16:	
  2922 ;; *************** function _PWM1_LoadDutyValue *****************
  2923 ;; Defined at:
  2924 ;;		line 80 in file "mcc_generated_files/pwm1.c"
  2925 ;; Parameters:    Size  Location     Type
  2926 ;;  dutyValue       2    2[COMMON] unsigned short 
  2927 ;; Auto vars:     Size  Location     Type
  2928 ;;		None
  2929 ;; Return value:  Size  Location     Type
  2930 ;;                  1    wreg      void 
  2931 ;; Registers used:
  2932 ;;		wreg, status,2, status,0
  2933 ;; Tracked objects:
  2934 ;;		On entry : 0/0
  2935 ;;		On exit  : 0/0
  2936 ;;		Unchanged: 0/0
  2937 ;; Data sizes:     COMMON   BANK0   BANK1   BANK2   BANK3   BANK4   BANK5   BANK6   BANK7   BANK8   BANK9  BANK10  BANK1
      +1  BANK12
  2938 ;;      Params:         2       0       0       0       0       0       0       0       0       0       0       0       
      +0       0
  2939 ;;      Locals:         0       0       0       0       0       0       0       0       0       0       0       0       
      +0       0
  2940 ;;      Temps:          2       0       0       0       0       0       0       0       0       0       0       0       
      +0       0
  2941 ;;      Totals:         4       0       0       0       0       0       0       0       0       0       0       0       
      +0       0
  2942 ;;Total ram usage:        4 bytes
  2943 ;; Hardware stack levels used:    1
  2944 ;; Hardware stack levels required when called:    4
  2945 ;; This function calls:
  2946 ;;		Nothing
  2947 ;; This function is called by:
  2948 ;;		_APP_ADC_Tasks
  2949 ;; This function uses a non-reentrant model
  2950 ;;
  2951                           
  2952                           
  2953                           ;psect for function _PWM1_LoadDutyValue
  2954  01FE                     _PWM1_LoadDutyValue:	
  2955  01FE                     l1231:	
  2956                           ;incstack = 0
  2957                           ; Regs used in _PWM1_LoadDutyValue: [wreg+status,2+status,0]
  2958                           
  2959                           
  2960                           ;mcc_generated_files/pwm1.c: 80: void PWM1_LoadDutyValue(uint16_t dutyValue);mcc_generat
      +                          ed_files/pwm1.c: 81: {;mcc_generated_files/pwm1.c: 83:     CCPR1L = ((dutyValue & 0x03FC
      +                          )>>2);
  2961  01FE  0879               	movf	PWM1_LoadDutyValue@dutyValue+1,w
  2962  01FF  00FB               	movwf	??_PWM1_LoadDutyValue+1
  2963  0200  0878               	movf	PWM1_LoadDutyValue@dutyValue,w
  2964  0201  00FA               	movwf	??_PWM1_LoadDutyValue
  2965  0202  36FB               	lsrf	??_PWM1_LoadDutyValue+1,f
  2966  0203  0CFA               	rrf	??_PWM1_LoadDutyValue,f
  2967  0204  36FB               	lsrf	??_PWM1_LoadDutyValue+1,f
  2968  0205  0CFA               	rrf	??_PWM1_LoadDutyValue,f
  2969  0206  087A               	movf	??_PWM1_LoadDutyValue,w
  2970  0207  0025               	movlb	5	; select bank5
  2971  0208  0091               	movwf	17	;volatile
  2972                           
  2973                           ;mcc_generated_files/pwm1.c: 86:     CCP1CON = ((uint8_t)(CCP1CON & 0xCF) | ((dutyValue 
      +                          & 0x0003)<<4));
  2974  0209  0878               	movf	PWM1_LoadDutyValue@dutyValue,w
  2975  020A  3903               	andlw	3
  2976  020B  00FA               	movwf	??_PWM1_LoadDutyValue
  2977  020C  3004               	movlw	4
  2978  020D                     u255:	
  2979  020D  35FA               	lslf	??_PWM1_LoadDutyValue,f
  2980  020E  0B89               	decfsz	9,f
  2981  020F  2A0D               	goto	u255
  2982  0210  0813               	movf	19,w	;volatile
  2983  0211  39CF               	andlw	207
  2984  0212  047A               	iorwf	??_PWM1_LoadDutyValue,w
  2985  0213  0093               	movwf	19	;volatile
  2986  0214                     l162:	
  2987  0214  0008               	return
  2988  0215                     __end_of_PWM1_LoadDutyValue:	
  2989                           
  2990                           	psect	text17
  2991  029B                     __ptext17:	
  2992 ;; *************** function _ADC_StartConversion *****************
  2993 ;; Defined at:
  2994 ;;		line 93 in file "mcc_generated_files/adc.c"
  2995 ;; Parameters:    Size  Location     Type
  2996 ;;		None
  2997 ;; Auto vars:     Size  Location     Type
  2998 ;;		None
  2999 ;; Return value:  Size  Location     Type
  3000 ;;                  1    wreg      void 
  3001 ;; Registers used:
  3002 ;;		None
  3003 ;; Tracked objects:
  3004 ;;		On entry : 0/0
  3005 ;;		On exit  : 0/0
  3006 ;;		Unchanged: 0/0
  3007 ;; Data sizes:     COMMON   BANK0   BANK1   BANK2   BANK3   BANK4   BANK5   BANK6   BANK7   BANK8   BANK9  BANK10  BANK1
      +1  BANK12
  3008 ;;      Params:         0       0       0       0       0       0       0       0       0       0       0       0       
      +0       0
  3009 ;;      Locals:         0       0       0       0       0       0       0       0       0       0       0       0       
      +0       0
  3010 ;;      Temps:          0       0       0       0       0       0       0       0       0       0       0       0       
      +0       0
  3011 ;;      Totals:         0       0       0       0       0       0       0       0       0       0       0       0       
      +0       0
  3012 ;;Total ram usage:        0 bytes
  3013 ;; Hardware stack levels used:    1
  3014 ;; Hardware stack levels required when called:    4
  3015 ;; This function calls:
  3016 ;;		Nothing
  3017 ;; This function is called by:
  3018 ;;		_APP_ADC_Tasks
  3019 ;; This function uses a non-reentrant model
  3020 ;;
  3021                           
  3022                           
  3023                           ;psect for function _ADC_StartConversion
  3024  029B                     _ADC_StartConversion:	
  3025  029B                     l1237:	
  3026                           ;incstack = 0
  3027                           ; Regs used in _ADC_StartConversion: []
  3028                           
  3029                           
  3030                           ;mcc_generated_files/adc.c: 96:     ADCON0bits.GO_nDONE = 1;
  3031  029B  0021               	movlb	1	; select bank1
  3032  029C  149D               	bsf	29,1	;volatile
  3033  029D                     l217:	
  3034  029D  0008               	return
  3035  029E                     __end_of_ADC_StartConversion:	
  3036                           
  3037                           	psect	text18
  3038  023C                     __ptext18:	
  3039 ;; *************** function _ADC_SelectChannel *****************
  3040 ;; Defined at:
  3041 ;;		line 85 in file "mcc_generated_files/adc.c"
  3042 ;; Parameters:    Size  Location     Type
  3043 ;;  channel         1    wreg     enum E1681
  3044 ;; Auto vars:     Size  Location     Type
  3045 ;;  channel         1    3[COMMON] enum E1681
  3046 ;; Return value:  Size  Location     Type
  3047 ;;                  1    wreg      void 
  3048 ;; Registers used:
  3049 ;;		wreg, status,2, status,0
  3050 ;; Tracked objects:
  3051 ;;		On entry : 0/0
  3052 ;;		On exit  : 0/0
  3053 ;;		Unchanged: 0/0
  3054 ;; Data sizes:     COMMON   BANK0   BANK1   BANK2   BANK3   BANK4   BANK5   BANK6   BANK7   BANK8   BANK9  BANK10  BANK1
      +1  BANK12
  3055 ;;      Params:         0       0       0       0       0       0       0       0       0       0       0       0       
      +0       0
  3056 ;;      Locals:         1       0       0       0       0       0       0       0       0       0       0       0       
      +0       0
  3057 ;;      Temps:          1       0       0       0       0       0       0       0       0       0       0       0       
      +0       0
  3058 ;;      Totals:         2       0       0       0       0       0       0       0       0       0       0       0       
      +0       0
  3059 ;;Total ram usage:        2 bytes
  3060 ;; Hardware stack levels used:    1
  3061 ;; Hardware stack levels required when called:    4
  3062 ;; This function calls:
  3063 ;;		Nothing
  3064 ;; This function is called by:
  3065 ;;		_APP_ADC_Tasks
  3066 ;; This function uses a non-reentrant model
  3067 ;;
  3068                           
  3069                           
  3070                           ;psect for function _ADC_SelectChannel
  3071  023C                     _ADC_SelectChannel:	
  3072                           
  3073                           ;incstack = 0
  3074                           ; Regs used in _ADC_SelectChannel: [wreg+status,2+status,0]
  3075                           ;ADC_SelectChannel@channel stored from wreg
  3076  023C  00F9               	movwf	ADC_SelectChannel@channel
  3077  023D                     l1233:	
  3078                           
  3079                           ;mcc_generated_files/adc.c: 85: void ADC_SelectChannel(adc_channel_t channel);mcc_genera
      +                          ted_files/adc.c: 86: {;mcc_generated_files/adc.c: 88:     ADCON0bits.CHS = channel;
  3080  023D  0879               	movf	ADC_SelectChannel@channel,w
  3081  023E  00F8               	movwf	??_ADC_SelectChannel
  3082  023F  0DF8               	rlf	??_ADC_SelectChannel,f
  3083  0240  0DF8               	rlf	??_ADC_SelectChannel,f
  3084  0241  0021               	movlb	1	; select bank1
  3085  0242  081D               	movf	29,w	;volatile
  3086  0243  0678               	xorwf	??_ADC_SelectChannel,w
  3087  0244  3983               	andlw	-125
  3088  0245  0678               	xorwf	??_ADC_SelectChannel,w
  3089  0246  009D               	movwf	29	;volatile
  3090  0247                     l1235:	
  3091                           
  3092                           ;mcc_generated_files/adc.c: 90:     ADCON0bits.ADON = 1;
  3093  0247  141D               	bsf	29,0	;volatile
  3094  0248                     l214:	
  3095  0248  0008               	return
  3096  0249                     __end_of_ADC_SelectChannel:	
  3097                           
  3098                           	psect	text19
  3099  026D                     __ptext19:	
  3100 ;; *************** function _ADC_IsConversionDone *****************
  3101 ;; Defined at:
  3102 ;;		line 100 in file "mcc_generated_files/adc.c"
  3103 ;; Parameters:    Size  Location     Type
  3104 ;;		None
  3105 ;; Auto vars:     Size  Location     Type
  3106 ;;		None
  3107 ;; Return value:  Size  Location     Type
  3108 ;;                  1    wreg      _Bool 
  3109 ;; Registers used:
  3110 ;;		wreg, status,0
  3111 ;; Tracked objects:
  3112 ;;		On entry : 0/0
  3113 ;;		On exit  : 0/0
  3114 ;;		Unchanged: 0/0
  3115 ;; Data sizes:     COMMON   BANK0   BANK1   BANK2   BANK3   BANK4   BANK5   BANK6   BANK7   BANK8   BANK9  BANK10  BANK1
      +1  BANK12
  3116 ;;      Params:         0       0       0       0       0       0       0       0       0       0       0       0       
      +0       0
  3117 ;;      Locals:         0       0       0       0       0       0       0       0       0       0       0       0       
      +0       0
  3118 ;;      Temps:          0       0       0       0       0       0       0       0       0       0       0       0       
      +0       0
  3119 ;;      Totals:         0       0       0       0       0       0       0       0       0       0       0       0       
      +0       0
  3120 ;;Total ram usage:        0 bytes
  3121 ;; Hardware stack levels used:    1
  3122 ;; Hardware stack levels required when called:    4
  3123 ;; This function calls:
  3124 ;;		Nothing
  3125 ;; This function is called by:
  3126 ;;		_APP_ADC_Tasks
  3127 ;; This function uses a non-reentrant model
  3128 ;;
  3129                           
  3130                           
  3131                           ;psect for function _ADC_IsConversionDone
  3132  026D                     _ADC_IsConversionDone:	
  3133  026D                     l1239:	
  3134                           ;incstack = 0
  3135                           ; Regs used in _ADC_IsConversionDone: [wreg+status,0]
  3136                           
  3137                           
  3138                           ;mcc_generated_files/adc.c: 103:    return ((_Bool)(!ADCON0bits.GO_nDONE));
  3139  026D  1003               	clrc
  3140  026E  0021               	movlb	1	; select bank1
  3141  026F  1C9D               	btfss	29,1	;volatile
  3142  0270  1403               	setc
  3143  0271  3000               	movlw	0
  3144  0272  3D09               	addwfc	9,w
  3145  0273                     l220:	
  3146  0273  0008               	return
  3147  0274                     __end_of_ADC_IsConversionDone:	
  3148                           
  3149                           	psect	text20
  3150  028D                     __ptext20:	
  3151 ;; *************** function _ADC_GetConversionResult *****************
  3152 ;; Defined at:
  3153 ;;		line 106 in file "mcc_generated_files/adc.c"
  3154 ;; Parameters:    Size  Location     Type
  3155 ;;		None
  3156 ;; Auto vars:     Size  Location     Type
  3157 ;;		None
  3158 ;; Return value:  Size  Location     Type
  3159 ;;                  2    2[COMMON] unsigned short 
  3160 ;; Registers used:
  3161 ;;		wreg
  3162 ;; Tracked objects:
  3163 ;;		On entry : 0/0
  3164 ;;		On exit  : 0/0
  3165 ;;		Unchanged: 0/0
  3166 ;; Data sizes:     COMMON   BANK0   BANK1   BANK2   BANK3   BANK4   BANK5   BANK6   BANK7   BANK8   BANK9  BANK10  BANK1
      +1  BANK12
  3167 ;;      Params:         2       0       0       0       0       0       0       0       0       0       0       0       
      +0       0
  3168 ;;      Locals:         0       0       0       0       0       0       0       0       0       0       0       0       
      +0       0
  3169 ;;      Temps:          0       0       0       0       0       0       0       0       0       0       0       0       
      +0       0
  3170 ;;      Totals:         2       0       0       0       0       0       0       0       0       0       0       0       
      +0       0
  3171 ;;Total ram usage:        2 bytes
  3172 ;; Hardware stack levels used:    1
  3173 ;; Hardware stack levels required when called:    4
  3174 ;; This function calls:
  3175 ;;		Nothing
  3176 ;; This function is called by:
  3177 ;;		_APP_ADC_Tasks
  3178 ;; This function uses a non-reentrant model
  3179 ;;
  3180                           
  3181                           
  3182                           ;psect for function _ADC_GetConversionResult
  3183  028D                     _ADC_GetConversionResult:	
  3184  028D                     l1243:	
  3185                           ;incstack = 0
  3186                           ; Regs used in _ADC_GetConversionResult: [wreg]
  3187                           
  3188                           
  3189                           ;mcc_generated_files/adc.c: 109:     return ((adc_result_t)((ADRESH << 8) + ADRESL));
  3190  028D  0021               	movlb	1	; select bank1
  3191  028E  081C               	movf	28,w	;volatile
  3192  028F  00F9               	movwf	?_ADC_GetConversionResult+1
  3193  0290  081B               	movf	27,w	;volatile
  3194  0291  00F8               	movwf	?_ADC_GetConversionResult
  3195  0292                     l223:	
  3196  0292  0008               	return
  3197  0293                     __end_of_ADC_GetConversionResult:	
  3198                           
  3199                           	psect	text21
  3200  0274                     __ptext21:	
  3201 ;; *************** function _APP_ADC_Initialize *****************
  3202 ;; Defined at:
  3203 ;;		line 24 in file "app.c"
  3204 ;; Parameters:    Size  Location     Type
  3205 ;;		None
  3206 ;; Auto vars:     Size  Location     Type
  3207 ;;		None
  3208 ;; Return value:  Size  Location     Type
  3209 ;;                  1    wreg      void 
  3210 ;; Registers used:
  3211 ;;		status,2
  3212 ;; Tracked objects:
  3213 ;;		On entry : 0/0
  3214 ;;		On exit  : 0/0
  3215 ;;		Unchanged: 0/0
  3216 ;; Data sizes:     COMMON   BANK0   BANK1   BANK2   BANK3   BANK4   BANK5   BANK6   BANK7   BANK8   BANK9  BANK10  BANK1
      +1  BANK12
  3217 ;;      Params:         0       0       0       0       0       0       0       0       0       0       0       0       
      +0       0
  3218 ;;      Locals:         0       0       0       0       0       0       0       0       0       0       0       0       
      +0       0
  3219 ;;      Temps:          0       0       0       0       0       0       0       0       0       0       0       0       
      +0       0
  3220 ;;      Totals:         0       0       0       0       0       0       0       0       0       0       0       0       
      +0       0
  3221 ;;Total ram usage:        0 bytes
  3222 ;; Hardware stack levels used:    1
  3223 ;; Hardware stack levels required when called:    4
  3224 ;; This function calls:
  3225 ;;		Nothing
  3226 ;; This function is called by:
  3227 ;;		_main
  3228 ;; This function uses a non-reentrant model
  3229 ;;
  3230                           
  3231                           
  3232                           ;psect for function _APP_ADC_Initialize
  3233  0274                     _APP_ADC_Initialize:	
  3234  0274                     l1257:	
  3235                           ;incstack = 0
  3236                           ; Regs used in _APP_ADC_Initialize: [status,2]
  3237                           
  3238                           
  3239                           ;app.c: 26:     appadcData.state = APP_ADC_STATE_INIT;
  3240  0274  0020               	movlb	0	; select bank0
  3241  0275  01A0               	clrf	_appadcData
  3242                           
  3243                           ;app.c: 27:     appadcData.adcValue = 0;
  3244  0276  01A3               	clrf	_appadcData+3
  3245  0277  01A4               	clrf	_appadcData+4
  3246                           
  3247                           ;app.c: 28:     appadcData.adcCount = 0;
  3248  0278  01A1               	clrf	_appadcData+1
  3249  0279  01A2               	clrf	_appadcData+2
  3250  027A                     l291:	
  3251  027A  0008               	return
  3252  027B                     __end_of_APP_ADC_Initialize:	
  3253                           
  3254                           	psect	intentry
  3255  0004                     __pintentry:	
  3256 ;; *************** function _INTERRUPT_InterruptManager *****************
  3257 ;; Defined at:
  3258 ;;		line 52 in file "mcc_generated_files/interrupt_manager.c"
  3259 ;; Parameters:    Size  Location     Type
  3260 ;;		None
  3261 ;; Auto vars:     Size  Location     Type
  3262 ;;		None
  3263 ;; Return value:  Size  Location     Type
  3264 ;;                  1    wreg      void 
  3265 ;; Registers used:
  3266 ;;		wreg, status,2, status,0, pclath, cstack
  3267 ;; Tracked objects:
  3268 ;;		On entry : 0/0
  3269 ;;		On exit  : 0/0
  3270 ;;		Unchanged: 0/0
  3271 ;; Data sizes:     COMMON   BANK0   BANK1   BANK2   BANK3   BANK4   BANK5   BANK6   BANK7   BANK8   BANK9  BANK10  BANK1
      +1  BANK12
  3272 ;;      Params:         0       0       0       0       0       0       0       0       0       0       0       0       
      +0       0
  3273 ;;      Locals:         0       0       0       0       0       0       0       0       0       0       0       0       
      +0       0
  3274 ;;      Temps:          0       0       0       0       0       0       0       0       0       0       0       0       
      +0       0
  3275 ;;      Totals:         0       0       0       0       0       0       0       0       0       0       0       0       
      +0       0
  3276 ;;Total ram usage:        0 bytes
  3277 ;; Hardware stack levels used:    1
  3278 ;; Hardware stack levels required when called:    3
  3279 ;; This function calls:
  3280 ;;		_TMR1_ISR
  3281 ;; This function is called by:
  3282 ;;		Interrupt level 1
  3283 ;; This function uses a non-reentrant model
  3284 ;;
  3285                           
  3286  0004                     _INTERRUPT_InterruptManager:	
  3287                           
  3288                           ;incstack = 0
  3289  0004  147E               	bsf	int$flags,0	;set compiler interrupt flag (level 1)
  3290                           
  3291                           ; Regs used in _INTERRUPT_InterruptManager: [wreg+status,2+status,0+pclath+cstack]
  3292  0005  3180               	pagesel	$
  3293  0006                     i1l1391:	
  3294                           
  3295                           ;mcc_generated_files/interrupt_manager.c: 55:     if(INTCONbits.PEIE == 1)
  3296  0006  1F0B               	btfss	11,6	;volatile
  3297  0007  2809               	goto	u41_21
  3298  0008  280A               	goto	u41_20
  3299  0009                     u41_21:	
  3300  0009  2817               	goto	i1l89
  3301  000A                     u41_20:	
  3302  000A                     i1l1393:	
  3303                           
  3304                           ;mcc_generated_files/interrupt_manager.c: 56:     {;mcc_generated_files/interrupt_manage
      +                          r.c: 57:         if(PIE1bits.TMR1IE == 1 && PIR1bits.TMR1IF == 1)
  3305  000A  0021               	movlb	1	; select bank1
  3306  000B  1C11               	btfss	17,0	;volatile
  3307  000C  280E               	goto	u42_21
  3308  000D  280F               	goto	u42_20
  3309  000E                     u42_21:	
  3310  000E  2817               	goto	i1l89
  3311  000F                     u42_20:	
  3312  000F                     i1l1395:	
  3313  000F  0020               	movlb	0	; select bank0
  3314  0010  1C11               	btfss	17,0	;volatile
  3315  0011  2813               	goto	u43_21
  3316  0012  2814               	goto	u43_20
  3317  0013                     u43_21:	
  3318  0013  2817               	goto	i1l89
  3319  0014                     u43_20:	
  3320  0014                     i1l1397:	
  3321                           
  3322                           ;mcc_generated_files/interrupt_manager.c: 58:         {;mcc_generated_files/interrupt_ma
      +                          nager.c: 59:             TMR1_ISR();
  3323  0014  3182  2249  3180   	fcall	_TMR1_ISR
  3324  0017                     i1l89:	
  3325                           ;mcc_generated_files/interrupt_manager.c: 60:         }
  3326                           
  3327  0017  107E               	bcf	int$flags,0	;clear compiler interrupt flag (level 1)
  3328  0018  0009               	retfie
  3329  0019                     __end_of_INTERRUPT_InterruptManager:	
  3330                           
  3331                           	psect	text23
  3332  0249                     __ptext23:	
  3333 ;; *************** function _TMR1_ISR *****************
  3334 ;; Defined at:
  3335 ;;		line 158 in file "mcc_generated_files/tmr1.c"
  3336 ;; Parameters:    Size  Location     Type
  3337 ;;		None
  3338 ;; Auto vars:     Size  Location     Type
  3339 ;;		None
  3340 ;; Return value:  Size  Location     Type
  3341 ;;                  1    wreg      void 
  3342 ;; Registers used:
  3343 ;;		wreg, status,2, status,0, pclath, cstack
  3344 ;; Tracked objects:
  3345 ;;		On entry : 0/0
  3346 ;;		On exit  : 0/0
  3347 ;;		Unchanged: 0/0
  3348 ;; Data sizes:     COMMON   BANK0   BANK1   BANK2   BANK3   BANK4   BANK5   BANK6   BANK7   BANK8   BANK9  BANK10  BANK1
      +1  BANK12
  3349 ;;      Params:         0       0       0       0       0       0       0       0       0       0       0       0       
      +0       0
  3350 ;;      Locals:         0       0       0       0       0       0       0       0       0       0       0       0       
      +0       0
  3351 ;;      Temps:          0       0       0       0       0       0       0       0       0       0       0       0       
      +0       0
  3352 ;;      Totals:         0       0       0       0       0       0       0       0       0       0       0       0       
      +0       0
  3353 ;;Total ram usage:        0 bytes
  3354 ;; Hardware stack levels used:    1
  3355 ;; Hardware stack levels required when called:    2
  3356 ;; This function calls:
  3357 ;;		_TMR1_CallBack
  3358 ;;		_TMR1_WriteTimer
  3359 ;; This function is called by:
  3360 ;;		_INTERRUPT_InterruptManager
  3361 ;; This function uses a non-reentrant model
  3362 ;;
  3363                           
  3364                           
  3365                           ;psect for function _TMR1_ISR
  3366  0249                     _TMR1_ISR:	
  3367  0249                     i1l1247:	
  3368                           ;incstack = 0
  3369                           ; Regs used in _TMR1_ISR: [wreg+status,2+status,0+pclath+cstack]
  3370                           
  3371                           
  3372                           ;mcc_generated_files/tmr1.c: 162:     PIR1bits.TMR1IF = 0;
  3373  0249  0020               	movlb	0	; select bank0
  3374  024A  1011               	bcf	17,0	;volatile
  3375  024B                     i1l1249:	
  3376                           
  3377                           ;mcc_generated_files/tmr1.c: 163:     TMR1_WriteTimer(timer1ReloadVal);
  3378  024B  082F               	movf	_timer1ReloadVal+1,w	;volatile
  3379  024C  00F7               	movwf	TMR1_WriteTimer@timerVal+1
  3380  024D  082E               	movf	_timer1ReloadVal,w	;volatile
  3381  024E  00F6               	movwf	TMR1_WriteTimer@timerVal
  3382  024F  3182  222B  3182   	fcall	_TMR1_WriteTimer
  3383                           
  3384                           ;mcc_generated_files/tmr1.c: 167:     TMR1_CallBack();
  3385  0252  3181  2190  3182   	fcall	_TMR1_CallBack
  3386  0255                     i1l61:	
  3387  0255  0008               	return
  3388  0256                     __end_of_TMR1_ISR:	
  3389                           
  3390                           	psect	text24
  3391  022B                     __ptext24:	
  3392 ;; *************** function _TMR1_WriteTimer *****************
  3393 ;; Defined at:
  3394 ;;		line 121 in file "mcc_generated_files/tmr1.c"
  3395 ;; Parameters:    Size  Location     Type
  3396 ;;  timerVal        2    0[COMMON] unsigned short 
  3397 ;; Auto vars:     Size  Location     Type
  3398 ;;		None
  3399 ;; Return value:  Size  Location     Type
  3400 ;;                  1    wreg      void 
  3401 ;; Registers used:
  3402 ;;		wreg, status,2
  3403 ;; Tracked objects:
  3404 ;;		On entry : 0/0
  3405 ;;		On exit  : 0/0
  3406 ;;		Unchanged: 0/0
  3407 ;; Data sizes:     COMMON   BANK0   BANK1   BANK2   BANK3   BANK4   BANK5   BANK6   BANK7   BANK8   BANK9  BANK10  BANK1
      +1  BANK12
  3408 ;;      Params:         2       0       0       0       0       0       0       0       0       0       0       0       
      +0       0
  3409 ;;      Locals:         0       0       0       0       0       0       0       0       0       0       0       0       
      +0       0
  3410 ;;      Temps:          0       0       0       0       0       0       0       0       0       0       0       0       
      +0       0
  3411 ;;      Totals:         2       0       0       0       0       0       0       0       0       0       0       0       
      +0       0
  3412 ;;Total ram usage:        2 bytes
  3413 ;; Hardware stack levels used:    1
  3414 ;; This function calls:
  3415 ;;		Nothing
  3416 ;; This function is called by:
  3417 ;;		_TMR1_ISR
  3418 ;;		_TMR1_Reload
  3419 ;; This function uses a non-reentrant model
  3420 ;;
  3421                           
  3422                           
  3423                           ;psect for function _TMR1_WriteTimer
  3424  022B                     _TMR1_WriteTimer:	
  3425  022B                     i1l1207:	
  3426                           ;incstack = 0
  3427                           ; Regs used in _TMR1_WriteTimer: [wreg+status,2]
  3428                           
  3429                           
  3430                           ;mcc_generated_files/tmr1.c: 121: void TMR1_WriteTimer(uint16_t timerVal);mcc_generated_
      +                          files/tmr1.c: 122: {;mcc_generated_files/tmr1.c: 123:     if (T1CONbits.nT1SYNC == 1)
  3431  022B  0020               	movlb	0	; select bank0
  3432  022C  1D18               	btfss	24,2	;volatile
  3433  022D  2A2F               	goto	u22_21
  3434  022E  2A30               	goto	u22_20
  3435  022F                     u22_21:	
  3436  022F  2A37               	goto	i1l1217
  3437  0230                     u22_20:	
  3438  0230                     i1l1209:	
  3439                           
  3440                           ;mcc_generated_files/tmr1.c: 124:     {;mcc_generated_files/tmr1.c: 126:         T1CONbi
      +                          ts.TMR1ON = 0;
  3441  0230  1018               	bcf	24,0	;volatile
  3442  0231                     i1l1211:	
  3443                           
  3444                           ;mcc_generated_files/tmr1.c: 129:         TMR1H = (timerVal >> 8);
  3445  0231  0877               	movf	TMR1_WriteTimer@timerVal+1,w
  3446  0232  0097               	movwf	23	;volatile
  3447  0233                     i1l1213:	
  3448                           
  3449                           ;mcc_generated_files/tmr1.c: 130:         TMR1L = timerVal;
  3450  0233  0876               	movf	TMR1_WriteTimer@timerVal,w
  3451  0234  0096               	movwf	22	;volatile
  3452  0235                     i1l1215:	
  3453                           
  3454                           ;mcc_generated_files/tmr1.c: 133:         T1CONbits.TMR1ON =1;
  3455  0235  1418               	bsf	24,0	;volatile
  3456                           
  3457                           ;mcc_generated_files/tmr1.c: 134:     }
  3458  0236  2A3B               	goto	i1l49
  3459  0237                     i1l1217:	
  3460                           
  3461                           ;mcc_generated_files/tmr1.c: 136:     {;mcc_generated_files/tmr1.c: 138:         TMR1H =
      +                           (timerVal >> 8);
  3462  0237  0877               	movf	TMR1_WriteTimer@timerVal+1,w
  3463  0238  0097               	movwf	23	;volatile
  3464  0239                     i1l1219:	
  3465                           
  3466                           ;mcc_generated_files/tmr1.c: 139:         TMR1L = timerVal;
  3467  0239  0876               	movf	TMR1_WriteTimer@timerVal,w
  3468  023A  0096               	movwf	22	;volatile
  3469  023B                     i1l49:	
  3470  023B  0008               	return
  3471  023C                     __end_of_TMR1_WriteTimer:	
  3472                           
  3473                           	psect	text25
  3474  0190                     __ptext25:	
  3475 ;; *************** function _TMR1_CallBack *****************
  3476 ;; Defined at:
  3477 ;;		line 170 in file "mcc_generated_files/tmr1.c"
  3478 ;; Parameters:    Size  Location     Type
  3479 ;;		None
  3480 ;; Auto vars:     Size  Location     Type
  3481 ;;		None
  3482 ;; Return value:  Size  Location     Type
  3483 ;;                  1    wreg      void 
  3484 ;; Registers used:
  3485 ;;		wreg, status,2, status,0, pclath, cstack
  3486 ;; Tracked objects:
  3487 ;;		On entry : 0/0
  3488 ;;		On exit  : 0/0
  3489 ;;		Unchanged: 0/0
  3490 ;; Data sizes:     COMMON   BANK0   BANK1   BANK2   BANK3   BANK4   BANK5   BANK6   BANK7   BANK8   BANK9  BANK10  BANK1
      +1  BANK12
  3491 ;;      Params:         0       0       0       0       0       0       0       0       0       0       0       0       
      +0       0
  3492 ;;      Locals:         0       0       0       0       0       0       0       0       0       0       0       0       
      +0       0
  3493 ;;      Temps:          0       0       0       0       0       0       0       0       0       0       0       0       
      +0       0
  3494 ;;      Totals:         0       0       0       0       0       0       0       0       0       0       0       0       
      +0       0
  3495 ;;Total ram usage:        0 bytes
  3496 ;; Hardware stack levels used:    1
  3497 ;; Hardware stack levels required when called:    1
  3498 ;; This function calls:
  3499 ;;		Absolute function
  3500 ;;		_TMR1_DefaultInterruptHandler
  3501 ;; This function is called by:
  3502 ;;		_TMR1_ISR
  3503 ;; This function uses a non-reentrant model
  3504 ;;
  3505                           
  3506                           
  3507                           ;psect for function _TMR1_CallBack
  3508  0190                     _TMR1_CallBack:	
  3509  0190                     i1l1221:	
  3510                           ;incstack = 0
  3511                           ; Regs used in _TMR1_CallBack: [wreg+status,2+status,0+pclath+cstack]
  3512                           
  3513                           
  3514                           ;mcc_generated_files/tmr1.c: 173:     appledData.TimerCount++;
  3515  0190  3001               	movlw	1
  3516  0191  07F4               	addwf	_appledData+1,f
  3517  0192  3000               	movlw	0
  3518  0193  3DF5               	addwfc	_appledData+2,f
  3519                           
  3520                           ;mcc_generated_files/tmr1.c: 174:     appledData2.TimerCount++;
  3521  0194  3001               	movlw	1
  3522  0195  0020               	movlb	0	; select bank0
  3523  0196  07A6               	addwf	_appledData2+1,f
  3524  0197  3000               	movlw	0
  3525  0198  3DA7               	addwfc	_appledData2+2,f
  3526  0199                     i1l1223:	
  3527                           
  3528                           ;mcc_generated_files/tmr1.c: 176:     if (apps2Data.state == APP_KEY_STATE_DEBOUNCE)
  3529  0199  3002               	movlw	2
  3530  019A  0670               	xorwf	_apps2Data,w
  3531  019B  1D03               	btfss	3,2
  3532  019C  299E               	goto	u23_21
  3533  019D  299F               	goto	u23_20
  3534  019E                     u23_21:	
  3535  019E  29A3               	goto	i1l1227
  3536  019F                     u23_20:	
  3537  019F                     i1l1225:	
  3538                           
  3539                           ;mcc_generated_files/tmr1.c: 177:     {;mcc_generated_files/tmr1.c: 178:         apps2Da
      +                          ta.TimerDebounce++;
  3540  019F  3001               	movlw	1
  3541  01A0  07F1               	addwf	_apps2Data+1,f
  3542  01A1  3000               	movlw	0
  3543  01A2  3DF2               	addwfc	_apps2Data+2,f
  3544  01A3                     i1l1227:	
  3545                           
  3546                           ;mcc_generated_files/tmr1.c: 182:     if(TMR1_InterruptHandler)
  3547  01A3  082C               	movf	_TMR1_InterruptHandler,w
  3548  01A4  042D               	iorwf	_TMR1_InterruptHandler+1,w
  3549  01A5  1903               	btfsc	3,2
  3550  01A6  29A8               	goto	u24_21
  3551  01A7  29A9               	goto	u24_20
  3552  01A8                     u24_21:	
  3553  01A8  29AE               	goto	i1l66
  3554  01A9                     u24_20:	
  3555  01A9                     i1l1229:	
  3556                           
  3557                           ;mcc_generated_files/tmr1.c: 183:     {;mcc_generated_files/tmr1.c: 184:         TMR1_In
      +                          terruptHandler();
  3558  01A9  082D               	movf	_TMR1_InterruptHandler+1,w
  3559  01AA  008A               	movwf	10
  3560  01AB  082C               	movf	_TMR1_InterruptHandler,w
  3561  01AC  000A               	callw
  3562  01AD  3181               	pagesel	$
  3563  01AE                     i1l66:	
  3564  01AE  0008               	return
  3565  01AF                     __end_of_TMR1_CallBack:	
  3566                           
  3567                           	psect	text26
  3568  029E                     __ptext26:	
  3569 ;; *************** function _TMR1_DefaultInterruptHandler *****************
  3570 ;; Defined at:
  3571 ;;		line 192 in file "mcc_generated_files/tmr1.c"
  3572 ;; Parameters:    Size  Location     Type
  3573 ;;		None
  3574 ;; Auto vars:     Size  Location     Type
  3575 ;;		None
  3576 ;; Return value:  Size  Location     Type
  3577 ;;                  1    wreg      void 
  3578 ;; Registers used:
  3579 ;;		None
  3580 ;; Tracked objects:
  3581 ;;		On entry : 0/0
  3582 ;;		On exit  : 0/0
  3583 ;;		Unchanged: 0/0
  3584 ;; Data sizes:     COMMON   BANK0   BANK1   BANK2   BANK3   BANK4   BANK5   BANK6   BANK7   BANK8   BANK9  BANK10  BANK1
      +1  BANK12
  3585 ;;      Params:         0       0       0       0       0       0       0       0       0       0       0       0       
      +0       0
  3586 ;;      Locals:         0       0       0       0       0       0       0       0       0       0       0       0       
      +0       0
  3587 ;;      Temps:          0       0       0       0       0       0       0       0       0       0       0       0       
      +0       0
  3588 ;;      Totals:         0       0       0       0       0       0       0       0       0       0       0       0       
      +0       0
  3589 ;;Total ram usage:        0 bytes
  3590 ;; Hardware stack levels used:    1
  3591 ;; This function calls:
  3592 ;;		Nothing
  3593 ;; This function is called by:
  3594 ;;		_TMR1_Initialize
  3595 ;;		_TMR1_CallBack
  3596 ;; This function uses a non-reentrant model
  3597 ;;
  3598                           
  3599                           
  3600                           ;psect for function _TMR1_DefaultInterruptHandler
  3601  029E                     _TMR1_DefaultInterruptHandler:	
  3602  029E                     i1l72:	
  3603                           ;incstack = 0
  3604                           ; Regs used in _TMR1_DefaultInterruptHandler: []
  3605                           
  3606  029E  0008               	return
  3607  029F                     __end_of_TMR1_DefaultInterruptHandler:	
  3608  007E                     btemp	set	126	;btemp
  3609  007E                     int$flags	set	126
  3610  007E                     wtemp0	set	126


Data Sizes:
    Strings     0
    Constant    0
    Data        0
    BSS         18
    Persistent  36
    Stack       0

Auto Spaces:
    Space          Size  Autos    Used
    COMMON           14      6      12
    BANK0            80      2      18
    BANK1            80      0       0
    BANK2            80      0       0
    BANK3            80      0       0
    BANK4            80      0       0
    BANK5            80      0       0
    BANK6            80      0       0
    BANK7            80      0       0
    BANK8            80      0       0
    BANK9            80      0       0
    BANK10           80      0       0
    BANK11           80      0       0
    BANK12           48      0       0

Pointer List with Targets:

    ADC_InterruptHandler	PTR FTN()void  size(2) Largest target is 1
		 -> Absolute function(), 

    TMR1_SetInterruptHandler@InterruptHandler	PTR FTN()void  size(2) Largest target is 1
		 -> TMR1_DefaultInterruptHandler(), 

    TMR1_InterruptHandler	PTR FTN()void  size(2) Largest target is 1
		 -> Absolute function(), TMR1_DefaultInterruptHandler(), 


Critical Paths under _main in COMMON

    _TMR1_Initialize->_TMR1_SetInterruptHandler
    _APP_ADC_Tasks->_PWM1_LoadDutyValue

Critical Paths under _INTERRUPT_InterruptManager in COMMON

    _TMR1_ISR->_TMR1_WriteTimer

Critical Paths under _main in BANK0

    _main->_APP_ADC_Tasks

Critical Paths under _INTERRUPT_InterruptManager in BANK0

    None.

Critical Paths under _main in BANK1

    None.

Critical Paths under _INTERRUPT_InterruptManager in BANK1

    None.

Critical Paths under _main in BANK2

    None.

Critical Paths under _INTERRUPT_InterruptManager in BANK2

    None.

Critical Paths under _main in BANK3

    None.

Critical Paths under _INTERRUPT_InterruptManager in BANK3

    None.

Critical Paths under _main in BANK4

    None.

Critical Paths under _INTERRUPT_InterruptManager in BANK4

    None.

Critical Paths under _main in BANK5

    None.

Critical Paths under _INTERRUPT_InterruptManager in BANK5

    None.

Critical Paths under _main in BANK6

    None.

Critical Paths under _INTERRUPT_InterruptManager in BANK6

    None.

Critical Paths under _main in BANK7

    None.

Critical Paths under _INTERRUPT_InterruptManager in BANK7

    None.

Critical Paths under _main in BANK8

    None.

Critical Paths under _INTERRUPT_InterruptManager in BANK8

    None.

Critical Paths under _main in BANK9

    None.

Critical Paths under _INTERRUPT_InterruptManager in BANK9

    None.

Critical Paths under _main in BANK10

    None.

Critical Paths under _INTERRUPT_InterruptManager in BANK10

    None.

Critical Paths under _main in BANK11

    None.

Critical Paths under _INTERRUPT_InterruptManager in BANK11

    None.

Critical Paths under _main in BANK12

    None.

Critical Paths under _INTERRUPT_InterruptManager in BANK12

    None.

Call Graph Tables:

 ---------------------------------------------------------------------------------
 (Depth) Function   	        Calls       Base Space   Used Autos Params    Refs
 ---------------------------------------------------------------------------------
 (0) _main                                                 0     0      0     240
                 _APP_ADC_Initialize
                      _APP_ADC_Tasks
                 _APP_LED_Initialize
                      _APP_LED_Tasks
                     _APP_LED_Tasks2
                  _APP_S2_Initialize
                       _APP_S2_Tasks
                  _SYSTEM_Initialize
 ---------------------------------------------------------------------------------
 (1) _SYSTEM_Initialize                                    0     0      0      98
                     _ADC_Initialize
              _OSCILLATOR_Initialize
             _PIN_MANAGER_Initialize
                    _PWM1_Initialize
                    _TMR1_Initialize
                    _TMR2_Initialize
                     _WDT_Initialize
 ---------------------------------------------------------------------------------
 (2) _WDT_Initialize                                       0     0      0       0
 ---------------------------------------------------------------------------------
 (2) _TMR2_Initialize                                      0     0      0       0
 ---------------------------------------------------------------------------------
 (2) _TMR1_Initialize                                      0     0      0      98
           _TMR1_SetInterruptHandler
 ---------------------------------------------------------------------------------
 (3) _TMR1_SetInterruptHandler                             2     0      2      98
                                              2 COMMON     2     0      2
 ---------------------------------------------------------------------------------
 (2) _PWM1_Initialize                                      0     0      0       0
 ---------------------------------------------------------------------------------
 (2) _PIN_MANAGER_Initialize                               0     0      0       0
 ---------------------------------------------------------------------------------
 (2) _OSCILLATOR_Initialize                                0     0      0       0
 ---------------------------------------------------------------------------------
 (2) _ADC_Initialize                                       0     0      0       0
 ---------------------------------------------------------------------------------
 (1) _APP_S2_Tasks                                         2     2      0       0
                                              2 COMMON     2     2      0
 ---------------------------------------------------------------------------------
 (1) _APP_S2_Initialize                                    0     0      0       0
 ---------------------------------------------------------------------------------
 (1) _APP_LED_Tasks2                                       2     2      0       0
                                              2 COMMON     2     2      0
 ---------------------------------------------------------------------------------
 (1) _APP_LED_Tasks                                        2     2      0       0
                                              2 COMMON     2     2      0
 ---------------------------------------------------------------------------------
 (1) _APP_LED_Initialize                                   0     0      0       0
 ---------------------------------------------------------------------------------
 (1) _APP_ADC_Tasks                                        2     2      0     142
                                              0 BANK0      2     2      0
            _ADC_GetConversionResult
               _ADC_IsConversionDone
                  _ADC_SelectChannel
                _ADC_StartConversion
                 _PWM1_LoadDutyValue
 ---------------------------------------------------------------------------------
 (2) _PWM1_LoadDutyValue                                   4     2      2     120
                                              2 COMMON     4     2      2
 ---------------------------------------------------------------------------------
 (2) _ADC_StartConversion                                  0     0      0       0
 ---------------------------------------------------------------------------------
 (2) _ADC_SelectChannel                                    2     2      0      22
                                              2 COMMON     2     2      0
 ---------------------------------------------------------------------------------
 (2) _ADC_IsConversionDone                                 0     0      0       0
 ---------------------------------------------------------------------------------
 (2) _ADC_GetConversionResult                              2     0      2       0
                                              2 COMMON     2     0      2
 ---------------------------------------------------------------------------------
 (1) _APP_ADC_Initialize                                   0     0      0       0
 ---------------------------------------------------------------------------------
 Estimated maximum stack depth 3
 ---------------------------------------------------------------------------------
 (Depth) Function   	        Calls       Base Space   Used Autos Params    Refs
 ---------------------------------------------------------------------------------
 (4) _INTERRUPT_InterruptManager                           0     0      0     240
                           _TMR1_ISR
 ---------------------------------------------------------------------------------
 (5) _TMR1_ISR                                             0     0      0     240
                      _TMR1_CallBack
                    _TMR1_WriteTimer
 ---------------------------------------------------------------------------------
 (6) _TMR1_WriteTimer                                      2     0      2     240
                                              0 COMMON     2     0      2
 ---------------------------------------------------------------------------------
 (6) _TMR1_CallBack                                        0     0      0       0
                   Absolute function *
       _TMR1_DefaultInterruptHandler *
 ---------------------------------------------------------------------------------
 (7) _TMR1_DefaultInterruptHandler                         0     0      0       0
 ---------------------------------------------------------------------------------
 (7) Absolute function(Fake)                               0     0      0       0
 ---------------------------------------------------------------------------------
 Estimated maximum stack depth 7
 ---------------------------------------------------------------------------------

 Call Graph Graphs:

 _main (ROOT)
   _APP_ADC_Initialize
   _APP_ADC_Tasks
     _ADC_GetConversionResult
     _ADC_IsConversionDone
     _ADC_SelectChannel
     _ADC_StartConversion
     _PWM1_LoadDutyValue
   _APP_LED_Initialize
   _APP_LED_Tasks
   _APP_LED_Tasks2
   _APP_S2_Initialize
   _APP_S2_Tasks
   _SYSTEM_Initialize
     _ADC_Initialize
     _OSCILLATOR_Initialize
     _PIN_MANAGER_Initialize
     _PWM1_Initialize
     _TMR1_Initialize
       _TMR1_SetInterruptHandler
     _TMR2_Initialize
     _WDT_Initialize

 _INTERRUPT_InterruptManager (ROOT)
   _TMR1_ISR
     _TMR1_CallBack
       Absolute function(Fake) *
       _TMR1_DefaultInterruptHandler *
     _TMR1_WriteTimer

 Address spaces:
Name               Size   Autos  Total    Cost      Usage
BIGRAM             3F0      0       0       0        0.0%
NULL                 0      0       0       0        0.0%
CODE                 0      0       0       0        0.0%
BITCOMMON            E      0       0       1        0.0%
BITSFR0              0      0       0       1        0.0%
SFR0                 0      0       0       1        0.0%
COMMON               E      6       C       2       85.7%
BITSFR1              0      0       0       2        0.0%
SFR1                 0      0       0       2        0.0%
BITSFR2              0      0       0       3        0.0%
SFR2                 0      0       0       3        0.0%
STACK                0      0       0       3        0.0%
BITBANK0            50      0       0       4        0.0%
BITSFR3              0      0       0       4        0.0%
SFR3                 0      0       0       4        0.0%
BANK0               50      2      12       5       22.5%
BITSFR4              0      0       0       5        0.0%
SFR4                 0      0       0       5        0.0%
BITBANK1            50      0       0       6        0.0%
BITSFR5              0      0       0       6        0.0%
SFR5                 0      0       0       6        0.0%
BANK1               50      0       0       7        0.0%
BITSFR6              0      0       0       7        0.0%
SFR6                 0      0       0       7        0.0%
BITBANK2            50      0       0       8        0.0%
BITSFR7              0      0       0       8        0.0%
SFR7                 0      0       0       8        0.0%
BANK2               50      0       0       9        0.0%
BITSFR8              0      0       0       9        0.0%
SFR8                 0      0       0       9        0.0%
BITBANK3            50      0       0      10        0.0%
BITSFR9              0      0       0      10        0.0%
SFR9                 0      0       0      10        0.0%
BANK3               50      0       0      11        0.0%
BITSFR10             0      0       0      11        0.0%
SFR10                0      0       0      11        0.0%
BITBANK4            50      0       0      12        0.0%
BITSFR11             0      0       0      12        0.0%
SFR11                0      0       0      12        0.0%
BANK4               50      0       0      13        0.0%
BITSFR12             0      0       0      13        0.0%
SFR12                0      0       0      13        0.0%
BITBANK5            50      0       0      14        0.0%
BITSFR13             0      0       0      14        0.0%
SFR13                0      0       0      14        0.0%
BANK5               50      0       0      15        0.0%
BITSFR14             0      0       0      15        0.0%
SFR14                0      0       0      15        0.0%
BITBANK6            50      0       0      16        0.0%
BITSFR15             0      0       0      16        0.0%
SFR15                0      0       0      16        0.0%
BANK6               50      0       0      17        0.0%
BITSFR16             0      0       0      17        0.0%
SFR16                0      0       0      17        0.0%
BITBANK7            50      0       0      18        0.0%
BITSFR17             0      0       0      18        0.0%
SFR17                0      0       0      18        0.0%
BANK7               50      0       0      19        0.0%
BITSFR18             0      0       0      19        0.0%
SFR18                0      0       0      19        0.0%
BITSFR19             0      0       0      20        0.0%
SFR19                0      0       0      20        0.0%
ABS                  0      0      1E      20        0.0%
BITBANK8            50      0       0      21        0.0%
BITSFR20             0      0       0      21        0.0%
SFR20                0      0       0      21        0.0%
BANK8               50      0       0      22        0.0%
BITSFR21             0      0       0      22        0.0%
SFR21                0      0       0      22        0.0%
BITBANK9            50      0       0      23        0.0%
BITSFR22             0      0       0      23        0.0%
SFR22                0      0       0      23        0.0%
BANK9               50      0       0      24        0.0%
BITSFR23             0      0       0      24        0.0%
SFR23                0      0       0      24        0.0%
BITBANK10           50      0       0      25        0.0%
BITSFR24             0      0       0      25        0.0%
SFR24                0      0       0      25        0.0%
BANK10              50      0       0      26        0.0%
BITSFR25             0      0       0      26        0.0%
SFR25                0      0       0      26        0.0%
BITBANK11           50      0       0      27        0.0%
BITSFR26             0      0       0      27        0.0%
SFR26                0      0       0      27        0.0%
BANK11              50      0       0      28        0.0%
BITSFR27             0      0       0      28        0.0%
SFR27                0      0       0      28        0.0%
BITBANK12           30      0       0      29        0.0%
BITSFR28             0      0       0      29        0.0%
SFR28                0      0       0      29        0.0%
BANK12              30      0       0      30        0.0%
BITSFR29             0      0       0      30        0.0%
SFR29                0      0       0      30        0.0%
BITSFR30             0      0       0      31        0.0%
SFR30                0      0       0      31        0.0%
DATA                 0      0      1E      31        0.0%
BITSFR31             0      0       0      32        0.0%
SFR31                0      0       0      32        0.0%


Microchip Technology PIC Macro Assembler V2.10 build 88905656 
Symbol Table                                                                                   Thu Feb 27 11:36:05 2020

                             __CFG_CP$OFF 0000                                        l35 01FD  
                                      l69 0280                               __CFG_LVP$ON 0000  
                                     l112 022A                                       l211 026C  
                                     l115 028C                                       l220 0273  
                                     l301 00C0                                       l214 0248  
                                     l118 0296                                       l223 0292  
                                     l312 0110                                       l217 029D  
                                     l305 00D9                                       l162 0214  
                                     l147 01E5                                       l316 0153  
                                     l325 018F                                       l351 00A5  
                                     l159 0286                                       l175 025D  
                                     l329 0112                                       l338 0151  
                                     l291 027A                                       l285 0265  
                                     l295 00A7                                       l288 029A  
                                     l299 00B4                                       l921 01D0  
                                     l931 01DC                                       l923 01D3  
                                     l933 01E1                                       l925 01D5  
                                     l941 0281                                       l951 026A  
                                     l935 0287                                       l927 01D7  
                                     l919 01CC                                       l943 0284  
                                     l953 026B                                       l937 028A  
                                     l929 01DA                                       l945 0285  
                                     l961 025B                                       l947 0266  
                                     l955 0256                                       l939 0293  
                                     l949 0269                                       l957 0259  
                                     l959 025A                                       u300 0135  
                                     u301 0132                                       u320 00AC  
                                     u321 00AB                                       u314 0137  
                                     u330 00B9                                       u331 00B8  
                                     u260 0163                                       u340 00C5  
                                     u261 0162                                       u341 00C4  
                                     u270 0174                                       u350 00D3  
                                     _PR2 001B                                       u255 020D  
                                     u271 0171                                       u351 00D2  
                                     u440 0049                                       u360 00D8  
                                     u441 0048                                       u265 015F  
                                     u361 00D7                                       u450 0064  
                                     u290 0123                                       u370 00E1  
                                     u451 0063                                       u291 0122  
                                     u371 00E0                                       u355 00CF  
                                     u284 0176                                       u380 00F0  
                                     u381 00EF                                       u455 0060  
                                     u295 011F                           _timer1ReloadVal 002E  
                         _TMR2_Initialize 0256                              __CFG_BORV$LO 0000  
